{
  "address": "0x99CB3439F88dFD1D9c6C4B7141a0696EcEa96ff3",
  "abi": [
    {
      "inputs": [
        {
          "internalType": "address",
          "name": "swapRouter_",
          "type": "address"
        },
        {
          "internalType": "address",
          "name": "factory_",
          "type": "address"
        },
        {
          "internalType": "uint256",
          "name": "slippage_",
          "type": "uint256"
        },
        {
          "internalType": "uint32",
          "name": "secondsAgoDefault_",
          "type": "uint32"
        }
      ],
      "stateMutability": "nonpayable",
      "type": "constructor"
    },
    {
      "anonymous": false,
      "inputs": [
        {
          "indexed": true,
          "internalType": "bytes32",
          "name": "role",
          "type": "bytes32"
        },
        {
          "indexed": true,
          "internalType": "bytes32",
          "name": "previousAdminRole",
          "type": "bytes32"
        },
        {
          "indexed": true,
          "internalType": "bytes32",
          "name": "newAdminRole",
          "type": "bytes32"
        }
      ],
      "name": "RoleAdminChanged",
      "type": "event"
    },
    {
      "anonymous": false,
      "inputs": [
        {
          "indexed": true,
          "internalType": "bytes32",
          "name": "role",
          "type": "bytes32"
        },
        {
          "indexed": true,
          "internalType": "address",
          "name": "account",
          "type": "address"
        },
        {
          "indexed": true,
          "internalType": "address",
          "name": "sender",
          "type": "address"
        }
      ],
      "name": "RoleGranted",
      "type": "event"
    },
    {
      "anonymous": false,
      "inputs": [
        {
          "indexed": true,
          "internalType": "bytes32",
          "name": "role",
          "type": "bytes32"
        },
        {
          "indexed": true,
          "internalType": "address",
          "name": "account",
          "type": "address"
        },
        {
          "indexed": true,
          "internalType": "address",
          "name": "sender",
          "type": "address"
        }
      ],
      "name": "RoleRevoked",
      "type": "event"
    },
    {
      "anonymous": false,
      "inputs": [
        {
          "indexed": false,
          "internalType": "uint32",
          "name": "value",
          "type": "uint32"
        }
      ],
      "name": "SecondsAgoDefaultUpdated",
      "type": "event"
    },
    {
      "anonymous": false,
      "inputs": [
        {
          "indexed": false,
          "internalType": "uint256",
          "name": "value",
          "type": "uint256"
        }
      ],
      "name": "SlippageUpdated",
      "type": "event"
    },
    {
      "anonymous": false,
      "inputs": [
        {
          "indexed": true,
          "internalType": "address",
          "name": "beneficiary",
          "type": "address"
        },
        {
          "indexed": true,
          "internalType": "address",
          "name": "tokenIn",
          "type": "address"
        },
        {
          "indexed": true,
          "internalType": "address",
          "name": "tokenOut",
          "type": "address"
        },
        {
          "indexed": false,
          "internalType": "uint128",
          "name": "amountIn",
          "type": "uint128"
        },
        {
          "indexed": false,
          "internalType": "uint256",
          "name": "amountOut",
          "type": "uint256"
        }
      ],
      "name": "Swapped",
      "type": "event"
    },
    {
      "inputs": [],
      "name": "ADMIN_ROLE",
      "outputs": [
        {
          "internalType": "bytes32",
          "name": "",
          "type": "bytes32"
        }
      ],
      "stateMutability": "view",
      "type": "function"
    },
    {
      "inputs": [],
      "name": "DEFAULT_ADMIN_ROLE",
      "outputs": [
        {
          "internalType": "bytes32",
          "name": "",
          "type": "bytes32"
        }
      ],
      "stateMutability": "view",
      "type": "function"
    },
    {
      "inputs": [],
      "name": "PRECISION",
      "outputs": [
        {
          "internalType": "uint256",
          "name": "",
          "type": "uint256"
        }
      ],
      "stateMutability": "view",
      "type": "function"
    },
    {
      "inputs": [],
      "name": "SWAPPER_ROLE",
      "outputs": [
        {
          "internalType": "bytes32",
          "name": "",
          "type": "bytes32"
        }
      ],
      "stateMutability": "view",
      "type": "function"
    },
    {
      "inputs": [],
      "name": "factory",
      "outputs": [
        {
          "internalType": "contract IUniswapV3Factory",
          "name": "",
          "type": "address"
        }
      ],
      "stateMutability": "view",
      "type": "function"
    },
    {
      "inputs": [
        {
          "internalType": "address",
          "name": "tokenIn",
          "type": "address"
        },
        {
          "internalType": "address",
          "name": "tokenOut",
          "type": "address"
        },
        {
          "internalType": "uint128",
          "name": "amountIn",
          "type": "uint128"
        },
        {
          "internalType": "uint24",
          "name": "fee",
          "type": "uint24"
        },
        {
          "internalType": "uint32",
          "name": "secondsAgo",
          "type": "uint32"
        }
      ],
      "name": "getAmountOut",
      "outputs": [
        {
          "internalType": "uint256",
          "name": "amountOut",
          "type": "uint256"
        }
      ],
      "stateMutability": "view",
      "type": "function"
    },
    {
      "inputs": [
        {
          "internalType": "bytes32",
          "name": "role",
          "type": "bytes32"
        }
      ],
      "name": "getRoleAdmin",
      "outputs": [
        {
          "internalType": "bytes32",
          "name": "",
          "type": "bytes32"
        }
      ],
      "stateMutability": "view",
      "type": "function"
    },
    {
      "inputs": [
        {
          "internalType": "bytes32",
          "name": "role",
          "type": "bytes32"
        },
        {
          "internalType": "uint256",
          "name": "index",
          "type": "uint256"
        }
      ],
      "name": "getRoleMember",
      "outputs": [
        {
          "internalType": "address",
          "name": "",
          "type": "address"
        }
      ],
      "stateMutability": "view",
      "type": "function"
    },
    {
      "inputs": [
        {
          "internalType": "bytes32",
          "name": "role",
          "type": "bytes32"
        }
      ],
      "name": "getRoleMemberCount",
      "outputs": [
        {
          "internalType": "uint256",
          "name": "",
          "type": "uint256"
        }
      ],
      "stateMutability": "view",
      "type": "function"
    },
    {
      "inputs": [
        {
          "internalType": "bytes32",
          "name": "role",
          "type": "bytes32"
        },
        {
          "internalType": "address",
          "name": "account",
          "type": "address"
        }
      ],
      "name": "grantRole",
      "outputs": [],
      "stateMutability": "nonpayable",
      "type": "function"
    },
    {
      "inputs": [
        {
          "internalType": "bytes32",
          "name": "role",
          "type": "bytes32"
        },
        {
          "internalType": "address",
          "name": "account",
          "type": "address"
        }
      ],
      "name": "hasRole",
      "outputs": [
        {
          "internalType": "bool",
          "name": "",
          "type": "bool"
        }
      ],
      "stateMutability": "view",
      "type": "function"
    },
    {
      "inputs": [
        {
          "internalType": "bytes32",
          "name": "role",
          "type": "bytes32"
        },
        {
          "internalType": "address",
          "name": "account",
          "type": "address"
        }
      ],
      "name": "renounceRole",
      "outputs": [],
      "stateMutability": "nonpayable",
      "type": "function"
    },
    {
      "inputs": [
        {
          "internalType": "bytes32",
          "name": "role",
          "type": "bytes32"
        },
        {
          "internalType": "address",
          "name": "account",
          "type": "address"
        }
      ],
      "name": "revokeRole",
      "outputs": [],
      "stateMutability": "nonpayable",
      "type": "function"
    },
    {
      "inputs": [],
      "name": "secondsAgoDefault",
      "outputs": [
        {
          "internalType": "uint256",
          "name": "",
          "type": "uint256"
        }
      ],
      "stateMutability": "view",
      "type": "function"
    },
    {
      "inputs": [],
      "name": "slippage",
      "outputs": [
        {
          "internalType": "uint256",
          "name": "",
          "type": "uint256"
        }
      ],
      "stateMutability": "view",
      "type": "function"
    },
    {
      "inputs": [
        {
          "internalType": "address",
          "name": "tokenA",
          "type": "address"
        },
        {
          "internalType": "address",
          "name": "tokenB",
          "type": "address"
        }
      ],
      "name": "sortTokens",
      "outputs": [
        {
          "internalType": "address",
          "name": "token0",
          "type": "address"
        },
        {
          "internalType": "address",
          "name": "token1",
          "type": "address"
        }
      ],
      "stateMutability": "pure",
      "type": "function"
    },
    {
      "inputs": [
        {
          "internalType": "address",
          "name": "beneficiary",
          "type": "address"
        },
        {
          "internalType": "address",
          "name": "tokenIn",
          "type": "address"
        },
        {
          "internalType": "address",
          "name": "tokenOut",
          "type": "address"
        },
        {
          "internalType": "uint128",
          "name": "amountIn",
          "type": "uint128"
        },
        {
          "internalType": "uint24",
          "name": "fee",
          "type": "uint24"
        }
      ],
      "name": "swap",
      "outputs": [
        {
          "internalType": "uint256",
          "name": "amountOut",
          "type": "uint256"
        }
      ],
      "stateMutability": "nonpayable",
      "type": "function"
    },
    {
      "inputs": [],
      "name": "swapRouter",
      "outputs": [
        {
          "internalType": "contract ISwapRouter",
          "name": "",
          "type": "address"
        }
      ],
      "stateMutability": "view",
      "type": "function"
    },
    {
      "inputs": [
        {
          "internalType": "address",
          "name": "beneficiary",
          "type": "address"
        },
        {
          "internalType": "address",
          "name": "tokenIn",
          "type": "address"
        },
        {
          "internalType": "address",
          "name": "tokenOut",
          "type": "address"
        },
        {
          "internalType": "uint128",
          "name": "amountIn",
          "type": "uint128"
        },
        {
          "internalType": "uint24",
          "name": "fee",
          "type": "uint24"
        },
        {
          "internalType": "uint256",
          "name": "slippageForSwap",
          "type": "uint256"
        }
      ],
      "name": "swapWithCustomSlippage",
      "outputs": [
        {
          "internalType": "uint256",
          "name": "amountOut",
          "type": "uint256"
        }
      ],
      "stateMutability": "nonpayable",
      "type": "function"
    },
    {
      "inputs": [
        {
          "internalType": "uint32",
          "name": "value",
          "type": "uint32"
        }
      ],
      "name": "updateSecondsAgoDefault",
      "outputs": [
        {
          "internalType": "bool",
          "name": "",
          "type": "bool"
        }
      ],
      "stateMutability": "nonpayable",
      "type": "function"
    },
    {
      "inputs": [
        {
          "internalType": "uint256",
          "name": "value",
          "type": "uint256"
        }
      ],
      "name": "updateSlippage",
      "outputs": [
        {
          "internalType": "bool",
          "name": "",
          "type": "bool"
        }
      ],
      "stateMutability": "nonpayable",
      "type": "function"
    }
  ],
  "transactionHash": "0x2a195134d090e5eb435746d2b7164c4e547f702e76778a09576391da49982e06",
  "args": [
    "0xE592427A0AEce92De3Edee1F18E0157C05861564",
    "0x1F98431c8aD98523631AE4a59f267346ea31F984",
    10000,
    30
  ],
  "numDeployments": 1,
  "solcInputHash": "a170c61c650e83cdda1ea9668bc9a2dd",
  "bytecode": "0x60c06040523480156200001157600080fd5b506040516200291c3803806200291c83398101604081905262000034916200025f565b6001600160a01b038416620000665760405162461bcd60e51b81526004016200005d9062000343565b60405180910390fd5b6001600160a01b0383166200008f5760405162461bcd60e51b81526004016200005d90620002bb565b620f4240821115620000b55760405162461bcd60e51b81526004016200005d9062000300565b620000c26000336200012e565b620000ee7fa49807205ce4d355092ef5a8a18f56e8913cf4a201fbe287825b095693c21775336200012e565b606093841b6001600160601b03199081166080529290931b90911660a0526001556002805463ffffffff191663ffffffff9092169190911790556200038b565b6200013a82826200013e565b5050565b6000828152602081815260409091206200016391839062000ec6620001b7821b17901c565b156200013a5762000173620001d7565b6001600160a01b0316816001600160a01b0316837f2f8788117e7eff1d82e926ec794901d17c78024a50270940304540a733656f0d60405160405180910390a45050565b6000620001ce836001600160a01b038416620001db565b90505b92915050565b3390565b6000620001e983836200022a565b6200022157508154600181810184556000848152602080822090930184905584548482528286019093526040902091909155620001d1565b506000620001d1565b60009081526001919091016020526040902054151590565b80516001600160a01b03811681146200025a57600080fd5b919050565b6000806000806080858703121562000275578384fd5b620002808562000242565b9350620002906020860162000242565b925060408501519150606085015163ffffffff81168114620002b0578182fd5b939692955090935050565b60208082526025908201527f5377617048656c70657256333a20666163746f7279206973207a65726f206164604082015264647265737360d81b606082015260800190565b60208082526023908201527f5377617048656c70657256333a20736c6970706167652067742070726563697360408201526234b7b760e91b606082015260800190565b60208082526028908201527f5377617048656c70657256333a2073776170526f75746572206973207a65726f604082015267206164647265737360c01b606082015260800190565b60805160601c60a05160601c61254e620003ce60003980610ad35280610b6a52508061055e528061064452806108d452806109ac5280610aaf525061254e6000f3fe608060405234801561001057600080fd5b50600436106101775760003560e01c8063a217fddf116100d8578063c45a01551161008c578063d92cec1b11610066578063d92cec1b146102c5578063de2309cd146102d8578063df668eca146102eb57610177565b8063c45a015514610297578063ca15c8731461029f578063d547741f146102b257610177565b8063aaf5eb68116100bd578063aaf5eb681461027f578063c13c4ac814610287578063c31c9c071461028f57610177565b8063a217fddf14610264578063a7ce47c51461026c57610177565b80634b0a5a741161012f57806375b238fc1161011457806375b238fc146102295780639010d07c1461023157806391d148541461025157610177565b80634b0a5a74146101f5578063544caa561461020857610177565b80632f2ff15d116101605780632f2ff15d146101c557806336568abe146101da5780633e032a3b146101ed57610177565b806315b0d4961461017c578063248a9ca3146101a5575b600080fd5b61018f61018a366004611e7e565b6102f3565b60405161019c9190611fad565b60405180910390f35b6101b86101b3366004611e7e565b6103ad565b60405161019c9190611fb8565b6101d86101d3366004611e96565b6103c5565b005b6101d86101e8366004611e96565b61042c565b6101b861048d565b6101b8610203366004611c7e565b610493565b61021b610216366004611c46565b610731565b60405161019c929190611f21565b6101b8610765565b61024461023f366004611eba565b610789565b60405161019c9190611f0d565b61018f61025f366004611e96565b6107aa565b6101b86107c2565b6101b861027a366004611ce8565b6107c7565b6101b8610a9a565b6101b8610aa1565b610244610aad565b610244610ad1565b6101b86102ad366004611e7e565b610af5565b6101d86102c0366004611e96565b610b0c565b6101b86102d3366004611d5a565b610b65565b61018f6102e6366004611ef3565b610dce565b6101b8610ea2565b60007fa49807205ce4d355092ef5a8a18f56e8913cf4a201fbe287825b095693c2177561032081336107aa565b6103455760405162461bcd60e51b815260040161033c90611fc1565b60405180910390fd5b6001548314156103675760405162461bcd60e51b815260040161033c90612292565b60018390556040517ff5a802650e0a86db227cc342f06327d2ca0ff5cf2b12e0084fc5d8a7db2c54fd9061039c908590611fb8565b60405180910390a150600192915050565b6000818152602081905260409020600201545b919050565b6000828152602081905260409020600201546103e39061025f610edb565b61041e5760405162461bcd60e51b815260040180806020018281038252602f815260200180612405602f913960400191505060405180910390fd5b6104288282610edf565b5050565b610434610edb565b6001600160a01b0316816001600160a01b0316146104835760405162461bcd60e51b815260040180806020018281038252602f8152602001806124ea602f913960400191505060405180910390fd5b6104288282610f48565b60015490565b60006001600160a01b0386166104bb5760405162461bcd60e51b815260040161033c906120b0565b6001600160a01b0385166104e15760405162461bcd60e51b815260040161033c90612235565b6001600160a01b0384166105075760405162461bcd60e51b815260040161033c9061216a565b6000836001600160801b0316116105305760405162461bcd60e51b815260040161033c9061210d565b8461054f6001600160a01b03821633306001600160801b038816610fb1565b61058c6001600160a01b0382167f00000000000000000000000000000000000000000000000000000000000000006001600160801b03871661103f565b6002546000906105a990889088908890889063ffffffff16610b65565b90506000620f42406001548302816105bd57fe5b60408051610100810182526001600160a01b03808d1682528b8116602083015262ffffff8a16828401528d811660608301524260808301526001600160801b038b1660a083015293909204850360c08301819052600060e084015290517f414bf38900000000000000000000000000000000000000000000000000000000815290935090917f0000000000000000000000000000000000000000000000000000000000000000169063414bf389906106799084906004016122ef565b602060405180830381600087803b15801561069357600080fd5b505af11580156106a7573d6000803e3d6000fd5b505050506040513d601f19601f820116820180604052508101906106cb9190611edb565b9450876001600160a01b0316896001600160a01b03168b6001600160a01b03167f6b1d45ce194b297c172df51dd91dab61664ff05f469f952ecf5843d642718f6d8a8960405161071c92919061235e565b60405180910390a45050505095945050505050565b600080826001600160a01b0316846001600160a01b0316101561075857508290508161075e565b50819050825b9250929050565b7fa49807205ce4d355092ef5a8a18f56e8913cf4a201fbe287825b095693c2177581565b60008281526020819052604081206107a1908361119e565b90505b92915050565b60008281526020819052604081206107a190836111aa565b600081565b60006001600160a01b0387166107ef5760405162461bcd60e51b815260040161033c906120b0565b6001600160a01b0386166108155760405162461bcd60e51b815260040161033c90612235565b6001600160a01b03851661083b5760405162461bcd60e51b815260040161033c9061216a565b6000846001600160801b0316116108645760405162461bcd60e51b815260040161033c9061210d565b600082116108845760405162461bcd60e51b815260040161033c906121fe565b620f424082106108a65760405162461bcd60e51b815260040161033c906121c7565b856108c56001600160a01b03821633306001600160801b038916610fb1565b6109026001600160a01b0382167f00000000000000000000000000000000000000000000000000000000000000006001600160801b03881661103f565b60025460009061091f90899089908990899063ffffffff16610b65565b60408051610100810182526001600160a01b038b811682528a8116602083015262ffffff8916828401528c811660608301524260808301526001600160801b038a1660a0830152620f424088850204840360c08301819052600060e084015292517f414bf389000000000000000000000000000000000000000000000000000000008152939450919290917f0000000000000000000000000000000000000000000000000000000000000000169063414bf389906109e19084906004016122ef565b602060405180830381600087803b1580156109fb57600080fd5b505af1158015610a0f573d6000803e3d6000fd5b505050506040513d601f19601f82011682018060405250810190610a339190611edb565b9450886001600160a01b03168a6001600160a01b03168c6001600160a01b03167f6b1d45ce194b297c172df51dd91dab61664ff05f469f952ecf5843d642718f6d8b89604051610a8492919061235e565b60405180910390a4505050509695505050505050565b620f424081565b60025463ffffffff1690565b7f000000000000000000000000000000000000000000000000000000000000000081565b7f000000000000000000000000000000000000000000000000000000000000000081565b60008181526020819052604081206107a4906111bf565b600082815260208190526040902060020154610b2a9061025f610edb565b6104835760405162461bcd60e51b815260040180806020018281038252603081526020018061245a6030913960400191505060405180910390fd5b6000807f00000000000000000000000000000000000000000000000000000000000000006001600160a01b0316631698ee828888876040518463ffffffff1660e01b8152600401610bb893929190611f3b565b60206040518083038186803b158015610bd057600080fd5b505afa158015610be4573d6000803e3d6000fd5b505050506040513d601f19601f82011682018060405250810190610c089190611c2a565b90506001600160a01b038116610c305760405162461bcd60e51b815260040161033c9061201e565b6040805160028082526060820183526000926020830190803683370190505090508381600081518110610c5f57fe5b602002602001019063ffffffff16908163ffffffff1681525050600081600181518110610c8857fe5b63ffffffff909216602092830291909101909101526040517f883bdbfd0000000000000000000000000000000000000000000000000000000081526000906001600160a01b0384169063883bdbfd90610ce5908590600401611f63565b60006040518083038186803b158015610cfd57600080fd5b505afa158015610d11573d6000803e3d6000fd5b505050506040513d6000823e601f3d908101601f19168201604052610d399190810190611db6565b509050600081600081518110610d4b57fe5b602002602001015182600181518110610d6057fe5b602002602001015103905060008663ffffffff168260060b81610d7f57fe5b05905060008260060b128015610da957508663ffffffff168260060b81610da257fe5b0760060b15155b15610db357600019015b610dbf818a8d8d6111ca565b9b9a5050505050505050505050565b60007fa49807205ce4d355092ef5a8a18f56e8913cf4a201fbe287825b095693c21775610dfb81336107aa565b610e175760405162461bcd60e51b815260040161033c90611fc1565b60025463ffffffff84811691161415610e425760405162461bcd60e51b815260040161033c90612053565b600280547fffffffffffffffffffffffffffffffffffffffffffffffffffffffff000000001663ffffffff85161790556040517ff6fa11323b93729936bf8c8d341ee248b57a7f4f607d7ec80812b5dd499388b99061039c908590612377565b7f724f6a44d576143e18c60911798b2b15551ca96bd8f7cb7524b8fa36253a26d881565b60006107a1836001600160a01b038416611305565b3390565b6000828152602081905260409020610ef79082610ec6565b1561042857610f04610edb565b6001600160a01b0316816001600160a01b0316837f2f8788117e7eff1d82e926ec794901d17c78024a50270940304540a733656f0d60405160405180910390a45050565b6000828152602081905260409020610f60908261134f565b1561042857610f6d610edb565b6001600160a01b0316816001600160a01b0316837ff6391f5c32d9c69d2a47ea670b442974b53935d1edc7fd64eb21e047a839171b60405160405180910390a45050565b604080516001600160a01b0380861660248301528416604482015260648082018490528251808303909101815260849091019091526020810180517bffffffffffffffffffffffffffffffffffffffffffffffffffffffff167f23b872dd00000000000000000000000000000000000000000000000000000000179052611039908590611364565b50505050565b8015806110de5750604080517fdd62ed3e0000000000000000000000000000000000000000000000000000000081523060048201526001600160a01b03848116602483015291519185169163dd62ed3e91604480820192602092909190829003018186803b1580156110b057600080fd5b505afa1580156110c4573d6000803e3d6000fd5b505050506040513d60208110156110da57600080fd5b5051155b6111195760405162461bcd60e51b81526004018080602001828103825260368152602001806124b46036913960400191505060405180910390fd5b604080516001600160a01b038416602482015260448082018490528251808303909101815260649091019091526020810180517bffffffffffffffffffffffffffffffffffffffffffffffffffffffff167f095ea7b300000000000000000000000000000000000000000000000000000000179052611199908490611364565b505050565b60006107a18383611415565b60006107a1836001600160a01b038416611479565b60006107a482611491565b6000806111d686611495565b90506001600160801b036001600160a01b0382161161126f576001600160a01b038082168002908481169086161061123a576112357801000000000000000000000000000000000000000000000000876001600160801b0316836117f0565b611267565b61126781876001600160801b031678010000000000000000000000000000000000000000000000006117f0565b9250506112fc565b600061128e6001600160a01b03831680680100000000000000006117f0565b9050836001600160a01b0316856001600160a01b0316106112d3576112ce700100000000000000000000000000000000876001600160801b0316836117f0565b6112f8565b6112f881876001600160801b03167001000000000000000000000000000000006117f0565b9250505b50949350505050565b60006113118383611479565b611347575081546001818101845560008481526020808220909301849055845484825282860190935260409020919091556107a4565b5060006107a4565b60006107a1836001600160a01b0384166118a0565b60006113b9826040518060400160405280602081526020017f5361666545524332303a206c6f772d6c6576656c2063616c6c206661696c6564815250856001600160a01b03166119669092919063ffffffff16565b805190915015611199578080602001905160208110156113d857600080fd5b50516111995760405162461bcd60e51b815260040180806020018281038252602a81526020018061248a602a913960400191505060405180910390fd5b815460009082106114575760405162461bcd60e51b81526004018080602001828103825260228152602001806123e36022913960400191505060405180910390fd5b82600001828154811061146657fe5b9060005260206000200154905092915050565b60009081526001919091016020526040902054151590565b5490565b60008060008360020b126114ac578260020b6114b4565b8260020b6000035b9050620d89e881111561150e576040805162461bcd60e51b815260206004820152600160248201527f5400000000000000000000000000000000000000000000000000000000000000604482015290519081900360640190fd5b60006001821661152f57700100000000000000000000000000000000611541565b6ffffcb933bd6fad37aa2d162d1a5940015b70ffffffffffffffffffffffffffffffffff1690506002821615611575576ffff97272373d413259a46990580e213a0260801c5b6004821615611594576ffff2e50f5f656932ef12357cf3c7fdcc0260801c5b60088216156115b3576fffe5caca7e10e4e61c3624eaa0941cd00260801c5b60108216156115d2576fffcb9843d60f6159c9db58835c9266440260801c5b60208216156115f1576fff973b41fa98c081472e6896dfb254c00260801c5b6040821615611610576fff2ea16466c96a3843ec78b326b528610260801c5b608082161561162f576ffe5dee046a99a2a811c461f1969c30530260801c5b61010082161561164f576ffcbe86c7900a88aedcffc83b479aa3a40260801c5b61020082161561166f576ff987a7253ac413176f2b074cf7815e540260801c5b61040082161561168f576ff3392b0822b70005940c7a398e4b70f30260801c5b6108008216156116af576fe7159475a2c29b7443b29c7fa6e889d90260801c5b6110008216156116cf576fd097f3bdfd2022b8845ad8f792aa58250260801c5b6120008216156116ef576fa9f746462d870fdf8a65dc1f90e061e50260801c5b61400082161561170f576f70d869a156d2a1b890bb3df62baf32f70260801c5b61800082161561172f576f31be135f97d08fd981231505542fcfa60260801c5b62010000821615611750576f09aa508b5b7a84e1c677de54f3e99bc90260801c5b62020000821615611770576e5d6af8dedb81196699c329225ee6040260801c5b6204000082161561178f576d2216e584f5fa1ea926041bedfe980260801c5b620800008216156117ac576b048a170391f7dc42444e8fa20260801c5b60008460020b13156117c75780600019816117c357fe5b0490505b6401000000008106156117db5760016117de565b60005b60ff16602082901c0192505050919050565b6000808060001985870986860292508281109083900303905080611826576000841161181b57600080fd5b508290049050611899565b80841161183257600080fd5b6000848688096000868103871696879004966002600389028118808a02820302808a02820302808a02820302808a02820302808a02820302808a02909103029181900381900460010186841190950394909402919094039290920491909117919091029150505b9392505050565b6000818152600183016020526040812054801561195c57835460001980830191908101906000908790839081106118d357fe5b90600052602060002001549050808760000184815481106118f057fe5b60009182526020808320909101929092558281526001898101909252604090209084019055865487908061192057fe5b600190038181906000526020600020016000905590558660010160008781526020019081526020016000206000905560019450505050506107a4565b60009150506107a4565b6060611975848460008561197d565b949350505050565b6060824710156119be5760405162461bcd60e51b81526004018080602001828103825260268152602001806124346026913960400191505060405180910390fd5b6119c785611acd565b611a18576040805162461bcd60e51b815260206004820152601d60248201527f416464726573733a2063616c6c20746f206e6f6e2d636f6e7472616374000000604482015290519081900360640190fd5b600080866001600160a01b031685876040518082805190602001908083835b60208310611a565780518252601f199092019160209182019101611a37565b6001836020036101000a03801982511681845116808217855250505050505090500191505060006040518083038185875af1925050503d8060008114611ab8576040519150601f19603f3d011682016040523d82523d6000602084013e611abd565b606091505b50915091506112f8828286611ad3565b3b151590565b60608315611ae2575081611899565b825115611af25782518084602001fd5b8160405162461bcd60e51b81526004018080602001828103825283818151815260200191508051906020019080838360005b83811015611b3c578181015183820152602001611b24565b50505050905090810190601f168015611b695780820380516001836020036101000a031916815260200191505b509250505060405180910390fd5b600082601f830112611b87578081fd5b81516020611b9c611b97836123ac565b612388565b8281528181019085830183850287018401881015611bb8578586fd5b855b85811015611bdf578151611bcd816123ca565b84529284019290840190600101611bba565b5090979650505050505050565b80356001600160801b03811681146103c057600080fd5b803562ffffff811681146103c057600080fd5b803563ffffffff811681146103c057600080fd5b600060208284031215611c3b578081fd5b8151611899816123ca565b60008060408385031215611c58578081fd5b8235611c63816123ca565b91506020830135611c73816123ca565b809150509250929050565b600080600080600060a08688031215611c95578081fd5b8535611ca0816123ca565b94506020860135611cb0816123ca565b93506040860135611cc0816123ca565b9250611cce60608701611bec565b9150611cdc60808701611c03565b90509295509295909350565b60008060008060008060c08789031215611d00578081fd5b8635611d0b816123ca565b95506020870135611d1b816123ca565b94506040870135611d2b816123ca565b9350611d3960608801611bec565b9250611d4760808801611c03565b915060a087013590509295509295509295565b600080600080600060a08688031215611d71578081fd5b8535611d7c816123ca565b94506020860135611d8c816123ca565b9350611d9a60408701611bec565b9250611da860608701611c03565b9150611cdc60808701611c16565b60008060408385031215611dc8578182fd5b825167ffffffffffffffff80821115611ddf578384fd5b818501915085601f830112611df2578384fd5b81516020611e02611b97836123ac565b82815281810190858301838502870184018b1015611e1e578889fd5b8896505b84871015611e4e5780518060060b8114611e3a57898afd5b835260019690960195918301918301611e22565b5091880151919650909350505080821115611e67578283fd5b50611e7485828601611b77565b9150509250929050565b600060208284031215611e8f578081fd5b5035919050565b60008060408385031215611ea8578182fd5b823591506020830135611c73816123ca565b60008060408385031215611ecc578182fd5b50508035926020909101359150565b600060208284031215611eec578081fd5b5051919050565b600060208284031215611f04578081fd5b6107a182611c16565b6001600160a01b0391909116815260200190565b6001600160a01b0392831681529116602082015260400190565b6001600160a01b03938416815291909216602082015262ffffff909116604082015260600190565b6020808252825182820181905260009190848201906040850190845b81811015611fa157835163ffffffff1683529284019291840191600101611f7f565b50909695505050505050565b901515815260200190565b90815260200190565b60208082526027908201527f5377617048656c70657256333a2063616c6c657220646f6573206e6f7420686160408201527f766520726f6c6500000000000000000000000000000000000000000000000000606082015260800190565b6020808252818101527f5377617048656c70657256333a20706f6f6c20646f65736e2774206578697374604082015260600190565b6020808252602f908201527f5377617048656c70657256333a206e6577207365636f6e647341676f4465666160408201527f756c74206973207468652073616d650000000000000000000000000000000000606082015260800190565b60208082526029908201527f5377617048656c70657256333a2062656e6566696369617279206973207a657260408201527f6f20616464726573730000000000000000000000000000000000000000000000606082015260800190565b60208082526026908201527f5377617048656c70657256333a20616d6f756e74496e206973206e6f7420706f60408201527f7369746976650000000000000000000000000000000000000000000000000000606082015260800190565b60208082526026908201527f5377617048656c70657256333a20746f6b656e4f7574206973207a65726f206160408201527f6464726573730000000000000000000000000000000000000000000000000000606082015260800190565b6020808252601d908201527f5377617048656c70657256333a20756e7361666520736c697070616765000000604082015260600190565b6020808252601b908201527f5377617048656c70657256333a207a65726f20736c6970706167650000000000604082015260600190565b60208082526025908201527f5377617048656c70657256333a20746f6b656e496e206973207a65726f20616460408201527f6472657373000000000000000000000000000000000000000000000000000000606082015260800190565b60208082526026908201527f5377617048656c70657256333a206e657720736c69707061676520697320746860408201527f652073616d650000000000000000000000000000000000000000000000000000606082015260800190565b6000610100820190506001600160a01b0380845116835280602085015116602084015262ffffff60408501511660408401528060608501511660608401526080840151608084015260a084015160a084015260c084015160c08401528060e08501511660e08401525092915050565b6001600160801b03929092168252602082015260400190565b63ffffffff91909116815260200190565b60405181810167ffffffffffffffff811182821017156123a457fe5b604052919050565b600067ffffffffffffffff8211156123c057fe5b5060209081020190565b6001600160a01b03811681146123df57600080fd5b5056fe456e756d657261626c655365743a20696e646578206f7574206f6620626f756e6473416363657373436f6e74726f6c3a2073656e646572206d75737420626520616e2061646d696e20746f206772616e74416464726573733a20696e73756666696369656e742062616c616e636520666f722063616c6c416363657373436f6e74726f6c3a2073656e646572206d75737420626520616e2061646d696e20746f207265766f6b655361666545524332303a204552433230206f7065726174696f6e20646964206e6f7420737563636565645361666545524332303a20617070726f76652066726f6d206e6f6e2d7a65726f20746f206e6f6e2d7a65726f20616c6c6f77616e6365416363657373436f6e74726f6c3a2063616e206f6e6c792072656e6f756e636520726f6c657320666f722073656c66a26469706673582212208e26807fa0ab52fe10963ee3d52ec5fa31bcffebc72d7250e5d0536f8301c05c64736f6c63430007060033",
  "devdoc": {
    "kind": "dev",
    "methods": {
      "constructor": {
        "params": {
          "factory_": "Factory address",
          "secondsAgoDefault_": "Number of seconds from the current time to query the average price for the period",
          "slippage_": "Maximum slippage for swap",
          "swapRouter_": "Swap router address for exchange"
        }
      },
      "getAmountOut(address,address,uint128,uint24,uint32)": {
        "details": "See {ISwapHelperV3}"
      },
      "getRoleAdmin(bytes32)": {
        "details": "Returns the admin role that controls `role`. See {grantRole} and {revokeRole}. To change a role's admin, use {_setRoleAdmin}."
      },
      "getRoleMember(bytes32,uint256)": {
        "details": "Returns one of the accounts that have `role`. `index` must be a value between 0 and {getRoleMemberCount}, non-inclusive. Role bearers are not sorted in any particular way, and their ordering may change at any point. WARNING: When using {getRoleMember} and {getRoleMemberCount}, make sure you perform all queries on the same block. See the following https://forum.openzeppelin.com/t/iterating-over-elements-on-enumerableset-in-openzeppelin-contracts/2296[forum post] for more information."
      },
      "getRoleMemberCount(bytes32)": {
        "details": "Returns the number of accounts that have `role`. Can be used together with {getRoleMember} to enumerate all bearers of a role."
      },
      "grantRole(bytes32,address)": {
        "details": "Grants `role` to `account`. If `account` had not been already granted `role`, emits a {RoleGranted} event. Requirements: - the caller must have ``role``'s admin role."
      },
      "hasRole(bytes32,address)": {
        "details": "Returns `true` if `account` has been granted `role`."
      },
      "renounceRole(bytes32,address)": {
        "details": "Revokes `role` from the calling account. Roles are often managed via {grantRole} and {revokeRole}: this function's purpose is to provide a mechanism for accounts to lose their privileges if they are compromised (such as when a trusted device is misplaced). If the calling account had been granted `role`, emits a {RoleRevoked} event. Requirements: - the caller must be `account`."
      },
      "revokeRole(bytes32,address)": {
        "details": "Revokes `role` from `account`. If `account` had been granted `role`, emits a {RoleRevoked} event. Requirements: - the caller must have ``role``'s admin role."
      },
      "swap(address,address,address,uint128,uint24)": {
        "details": "See {ISwapHelperV3}"
      },
      "swapWithCustomSlippage(address,address,address,uint128,uint24,uint256)": {
        "details": "See {ISwapHelperV3}"
      },
      "updateSecondsAgoDefault(uint32)": {
        "params": {
          "value": "Number of seconds"
        }
      },
      "updateSlippage(uint256)": {
        "params": {
          "value": "Number of seconds"
        }
      }
    },
    "title": "The contract implements the token swap functionality through UniswapV3 smart contracts. Using oracle we calculate the minimum price per swap;",
    "version": 1
  },
  "userdoc": {
    "events": {
      "SecondsAgoDefaultUpdated(uint32)": {
        "notice": "Emitted when seconds ago default updated"
      },
      "SlippageUpdated(uint256)": {
        "notice": "Emitted when slippage updated"
      },
      "Swapped(address,address,address,uint128,uint256)": {
        "notice": "Emitted when swap confirmed"
      }
    },
    "kind": "user",
    "methods": {
      "constructor": {
        "notice": "Creates an instance of a contract that allows you to do a single swap on smart contracts UniswapV3 and sends an `outputToken` to the address"
      },
      "secondsAgoDefault()": {
        "notice": "Returns a seconds ago default param"
      },
      "slippage()": {
        "notice": "Returns a slippage for calculate price"
      },
      "updateSecondsAgoDefault(uint32)": {
        "notice": "Update secondsAgoDefault param responsible for the number of seconds since the current moment to query the average price value (100% = 1000000)"
      },
      "updateSlippage(uint256)": {
        "notice": "Update slippage for calculate minimum price swap"
      }
    },
    "version": 1
  },
  "storageLayout": {
    "storage": [
      {
        "astId": 286,
        "contract": "contracts/SwapHelperUniswapV3.sol:SwapHelperUniswapV3",
        "label": "_roles",
        "offset": 0,
        "slot": "0",
        "type": "t_mapping(t_bytes32,t_struct(RoleData)282_storage)"
      },
      {
        "astId": 5443,
        "contract": "contracts/SwapHelperUniswapV3.sol:SwapHelperUniswapV3",
        "label": "_slippage",
        "offset": 0,
        "slot": "1",
        "type": "t_uint256"
      },
      {
        "astId": 5445,
        "contract": "contracts/SwapHelperUniswapV3.sol:SwapHelperUniswapV3",
        "label": "_secondsAgoDefault",
        "offset": 0,
        "slot": "2",
        "type": "t_uint32"
      }
    ],
    "types": {
      "t_array(t_bytes32)dyn_storage": {
        "base": "t_bytes32",
        "encoding": "dynamic_array",
        "label": "bytes32[]",
        "numberOfBytes": "32"
      },
      "t_bytes32": {
        "encoding": "inplace",
        "label": "bytes32",
        "numberOfBytes": "32"
      },
      "t_mapping(t_bytes32,t_struct(RoleData)282_storage)": {
        "encoding": "mapping",
        "key": "t_bytes32",
        "label": "mapping(bytes32 => struct AccessControl.RoleData)",
        "numberOfBytes": "32",
        "value": "t_struct(RoleData)282_storage"
      },
      "t_mapping(t_bytes32,t_uint256)": {
        "encoding": "mapping",
        "key": "t_bytes32",
        "label": "mapping(bytes32 => uint256)",
        "numberOfBytes": "32",
        "value": "t_uint256"
      },
      "t_struct(AddressSet)1805_storage": {
        "encoding": "inplace",
        "label": "struct EnumerableSet.AddressSet",
        "members": [
          {
            "astId": 1804,
            "contract": "contracts/SwapHelperUniswapV3.sol:SwapHelperUniswapV3",
            "label": "_inner",
            "offset": 0,
            "slot": "0",
            "type": "t_struct(Set)1540_storage"
          }
        ],
        "numberOfBytes": "64"
      },
      "t_struct(RoleData)282_storage": {
        "encoding": "inplace",
        "label": "struct AccessControl.RoleData",
        "members": [
          {
            "astId": 279,
            "contract": "contracts/SwapHelperUniswapV3.sol:SwapHelperUniswapV3",
            "label": "members",
            "offset": 0,
            "slot": "0",
            "type": "t_struct(AddressSet)1805_storage"
          },
          {
            "astId": 281,
            "contract": "contracts/SwapHelperUniswapV3.sol:SwapHelperUniswapV3",
            "label": "adminRole",
            "offset": 0,
            "slot": "2",
            "type": "t_bytes32"
          }
        ],
        "numberOfBytes": "96"
      },
      "t_struct(Set)1540_storage": {
        "encoding": "inplace",
        "label": "struct EnumerableSet.Set",
        "members": [
          {
            "astId": 1535,
            "contract": "contracts/SwapHelperUniswapV3.sol:SwapHelperUniswapV3",
            "label": "_values",
            "offset": 0,
            "slot": "0",
            "type": "t_array(t_bytes32)dyn_storage"
          },
          {
            "astId": 1539,
            "contract": "contracts/SwapHelperUniswapV3.sol:SwapHelperUniswapV3",
            "label": "_indexes",
            "offset": 0,
            "slot": "1",
            "type": "t_mapping(t_bytes32,t_uint256)"
          }
        ],
        "numberOfBytes": "64"
      },
      "t_uint256": {
        "encoding": "inplace",
        "label": "uint256",
        "numberOfBytes": "32"
      },
      "t_uint32": {
        "encoding": "inplace",
        "label": "uint32",
        "numberOfBytes": "4"
      }
    }
  }
}