{
  "address": "0xaeEFB5c9C43d17DaBF1aD802d26D467994fb6059",
  "abi": [
    {
      "inputs": [
        {
          "internalType": "address",
          "name": "uniswapHelperV3_",
          "type": "address"
        },
        {
          "internalType": "address",
          "name": "admin",
          "type": "address"
        }
      ],
      "stateMutability": "nonpayable",
      "type": "constructor"
    },
    {
      "anonymous": false,
      "inputs": [
        {
          "indexed": false,
          "internalType": "address",
          "name": "operator",
          "type": "address"
        },
        {
          "indexed": false,
          "internalType": "address",
          "name": "token",
          "type": "address"
        },
        {
          "indexed": false,
          "internalType": "uint256",
          "name": "amount",
          "type": "uint256"
        }
      ],
      "name": "Deposited",
      "type": "event"
    },
    {
      "anonymous": false,
      "inputs": [
        {
          "indexed": false,
          "internalType": "uint256",
          "name": "orderId",
          "type": "uint256"
        },
        {
          "indexed": false,
          "internalType": "address",
          "name": "userAddress",
          "type": "address"
        }
      ],
      "name": "OrderCreated",
      "type": "event"
    },
    {
      "anonymous": false,
      "inputs": [
        {
          "indexed": false,
          "internalType": "uint256",
          "name": "orderId",
          "type": "uint256"
        },
        {
          "indexed": false,
          "internalType": "address",
          "name": "validator",
          "type": "address"
        }
      ],
      "name": "OrderExecuted",
      "type": "event"
    },
    {
      "anonymous": false,
      "inputs": [
        {
          "indexed": false,
          "internalType": "uint256[]",
          "name": "leftOrders",
          "type": "uint256[]"
        },
        {
          "indexed": false,
          "internalType": "uint256[]",
          "name": "rightOrders",
          "type": "uint256[]"
        }
      ],
      "name": "OrdersBounded",
      "type": "event"
    },
    {
      "anonymous": false,
      "inputs": [
        {
          "indexed": true,
          "internalType": "bytes32",
          "name": "role",
          "type": "bytes32"
        },
        {
          "indexed": true,
          "internalType": "bytes32",
          "name": "previousAdminRole",
          "type": "bytes32"
        },
        {
          "indexed": true,
          "internalType": "bytes32",
          "name": "newAdminRole",
          "type": "bytes32"
        }
      ],
      "name": "RoleAdminChanged",
      "type": "event"
    },
    {
      "anonymous": false,
      "inputs": [
        {
          "indexed": true,
          "internalType": "bytes32",
          "name": "role",
          "type": "bytes32"
        },
        {
          "indexed": true,
          "internalType": "address",
          "name": "account",
          "type": "address"
        },
        {
          "indexed": true,
          "internalType": "address",
          "name": "sender",
          "type": "address"
        }
      ],
      "name": "RoleGranted",
      "type": "event"
    },
    {
      "anonymous": false,
      "inputs": [
        {
          "indexed": true,
          "internalType": "bytes32",
          "name": "role",
          "type": "bytes32"
        },
        {
          "indexed": true,
          "internalType": "address",
          "name": "account",
          "type": "address"
        },
        {
          "indexed": true,
          "internalType": "address",
          "name": "sender",
          "type": "address"
        }
      ],
      "name": "RoleRevoked",
      "type": "event"
    },
    {
      "anonymous": false,
      "inputs": [
        {
          "indexed": false,
          "internalType": "address",
          "name": "token",
          "type": "address"
        }
      ],
      "name": "TokenAdded",
      "type": "event"
    },
    {
      "anonymous": false,
      "inputs": [
        {
          "indexed": false,
          "internalType": "address",
          "name": "token",
          "type": "address"
        }
      ],
      "name": "TokenRemoved",
      "type": "event"
    },
    {
      "anonymous": false,
      "inputs": [
        {
          "indexed": false,
          "internalType": "address",
          "name": "operator",
          "type": "address"
        },
        {
          "indexed": false,
          "internalType": "address",
          "name": "token",
          "type": "address"
        },
        {
          "indexed": false,
          "internalType": "uint256",
          "name": "amount",
          "type": "uint256"
        }
      ],
      "name": "Withdrawed",
      "type": "event"
    },
    {
      "inputs": [],
      "name": "ADMIN_ROLE",
      "outputs": [
        {
          "internalType": "bytes32",
          "name": "",
          "type": "bytes32"
        }
      ],
      "stateMutability": "view",
      "type": "function"
    },
    {
      "inputs": [],
      "name": "DEFAULT_ADMIN_ROLE",
      "outputs": [
        {
          "internalType": "bytes32",
          "name": "",
          "type": "bytes32"
        }
      ],
      "stateMutability": "view",
      "type": "function"
    },
    {
      "inputs": [],
      "name": "MAX_ITERATIONS",
      "outputs": [
        {
          "internalType": "uint32",
          "name": "",
          "type": "uint32"
        }
      ],
      "stateMutability": "view",
      "type": "function"
    },
    {
      "inputs": [],
      "name": "PRECISION",
      "outputs": [
        {
          "internalType": "uint32",
          "name": "",
          "type": "uint32"
        }
      ],
      "stateMutability": "view",
      "type": "function"
    },
    {
      "inputs": [
        {
          "internalType": "uint256",
          "name": "itemId",
          "type": "uint256"
        }
      ],
      "name": "activeOrderId",
      "outputs": [
        {
          "internalType": "uint256",
          "name": "",
          "type": "uint256"
        }
      ],
      "stateMutability": "view",
      "type": "function"
    },
    {
      "inputs": [
        {
          "internalType": "uint256",
          "name": "offset",
          "type": "uint256"
        },
        {
          "internalType": "uint256",
          "name": "limit",
          "type": "uint256"
        }
      ],
      "name": "activeOrdersIds",
      "outputs": [
        {
          "internalType": "uint256[]",
          "name": "ordersIds",
          "type": "uint256[]"
        }
      ],
      "stateMutability": "view",
      "type": "function"
    },
    {
      "inputs": [],
      "name": "activeOrdersLength",
      "outputs": [
        {
          "internalType": "uint256",
          "name": "",
          "type": "uint256"
        }
      ],
      "stateMutability": "view",
      "type": "function"
    },
    {
      "inputs": [
        {
          "internalType": "address[]",
          "name": "tokens",
          "type": "address[]"
        }
      ],
      "name": "addTokensToWhitelist",
      "outputs": [],
      "stateMutability": "nonpayable",
      "type": "function"
    },
    {
      "inputs": [
        {
          "internalType": "uint256[]",
          "name": "leftOrders",
          "type": "uint256[]"
        },
        {
          "internalType": "uint256[]",
          "name": "rightOrders",
          "type": "uint256[]"
        }
      ],
      "name": "boundOrders",
      "outputs": [],
      "stateMutability": "nonpayable",
      "type": "function"
    },
    {
      "inputs": [
        {
          "internalType": "uint256",
          "name": "amount",
          "type": "uint256"
        }
      ],
      "name": "calculateFee",
      "outputs": [
        {
          "internalType": "uint256",
          "name": "",
          "type": "uint256"
        }
      ],
      "stateMutability": "view",
      "type": "function"
    },
    {
      "inputs": [
        {
          "internalType": "uint256",
          "name": "orderId",
          "type": "uint256"
        }
      ],
      "name": "checkOrder",
      "outputs": [
        {
          "internalType": "bool",
          "name": "",
          "type": "bool"
        }
      ],
      "stateMutability": "view",
      "type": "function"
    },
    {
      "inputs": [
        {
          "internalType": "bytes",
          "name": "",
          "type": "bytes"
        }
      ],
      "name": "checkUpkeep",
      "outputs": [
        {
          "internalType": "bool",
          "name": "upkeepNeeded",
          "type": "bool"
        },
        {
          "internalType": "bytes",
          "name": "performData",
          "type": "bytes"
        }
      ],
      "stateMutability": "view",
      "type": "function"
    },
    {
      "inputs": [
        {
          "components": [
            {
              "internalType": "address",
              "name": "userAddress",
              "type": "address"
            },
            {
              "internalType": "address",
              "name": "baseToken",
              "type": "address"
            },
            {
              "internalType": "address",
              "name": "targetToken",
              "type": "address"
            },
            {
              "internalType": "uint24",
              "name": "pairFee",
              "type": "uint24"
            },
            {
              "internalType": "uint24",
              "name": "slippage",
              "type": "uint24"
            },
            {
              "internalType": "uint128",
              "name": "baseAmount",
              "type": "uint128"
            },
            {
              "internalType": "uint128",
              "name": "aimTargetTokenAmount",
              "type": "uint128"
            },
            {
              "internalType": "uint128",
              "name": "minTargetTokenAmount",
              "type": "uint128"
            },
            {
              "internalType": "uint256",
              "name": "expiration",
              "type": "uint256"
            },
            {
              "internalType": "uint256[]",
              "name": "boundOrders",
              "type": "uint256[]"
            },
            {
              "internalType": "enum TradingPlatform.Action",
              "name": "action",
              "type": "uint8"
            },
            {
              "internalType": "bytes",
              "name": "data",
              "type": "bytes"
            }
          ],
          "internalType": "struct TradingPlatform.Order",
          "name": "order",
          "type": "tuple"
        }
      ],
      "name": "createOrder",
      "outputs": [
        {
          "internalType": "uint256",
          "name": "orderId",
          "type": "uint256"
        }
      ],
      "stateMutability": "nonpayable",
      "type": "function"
    },
    {
      "inputs": [
        {
          "internalType": "address",
          "name": "token",
          "type": "address"
        },
        {
          "internalType": "uint256",
          "name": "amount",
          "type": "uint256"
        }
      ],
      "name": "deposit",
      "outputs": [
        {
          "internalType": "bool",
          "name": "",
          "type": "bool"
        }
      ],
      "stateMutability": "nonpayable",
      "type": "function"
    },
    {
      "inputs": [
        {
          "internalType": "uint256[]",
          "name": "ordersIds",
          "type": "uint256[]"
        }
      ],
      "name": "executeOrders",
      "outputs": [
        {
          "internalType": "bool",
          "name": "",
          "type": "bool"
        }
      ],
      "stateMutability": "nonpayable",
      "type": "function"
    },
    {
      "inputs": [],
      "name": "getFeeRecipient",
      "outputs": [
        {
          "internalType": "address",
          "name": "",
          "type": "address"
        }
      ],
      "stateMutability": "view",
      "type": "function"
    },
    {
      "inputs": [],
      "name": "getOrderCounter",
      "outputs": [
        {
          "internalType": "uint256",
          "name": "",
          "type": "uint256"
        }
      ],
      "stateMutability": "view",
      "type": "function"
    },
    {
      "inputs": [
        {
          "internalType": "uint256",
          "name": "orderId",
          "type": "uint256"
        }
      ],
      "name": "getOrderInfo",
      "outputs": [
        {
          "components": [
            {
              "internalType": "address",
              "name": "userAddress",
              "type": "address"
            },
            {
              "internalType": "address",
              "name": "baseToken",
              "type": "address"
            },
            {
              "internalType": "address",
              "name": "targetToken",
              "type": "address"
            },
            {
              "internalType": "uint24",
              "name": "pairFee",
              "type": "uint24"
            },
            {
              "internalType": "uint24",
              "name": "slippage",
              "type": "uint24"
            },
            {
              "internalType": "uint128",
              "name": "baseAmount",
              "type": "uint128"
            },
            {
              "internalType": "uint128",
              "name": "aimTargetTokenAmount",
              "type": "uint128"
            },
            {
              "internalType": "uint128",
              "name": "minTargetTokenAmount",
              "type": "uint128"
            },
            {
              "internalType": "uint256",
              "name": "expiration",
              "type": "uint256"
            },
            {
              "internalType": "uint256[]",
              "name": "boundOrders",
              "type": "uint256[]"
            },
            {
              "internalType": "enum TradingPlatform.Action",
              "name": "action",
              "type": "uint8"
            },
            {
              "internalType": "bytes",
              "name": "data",
              "type": "bytes"
            }
          ],
          "internalType": "struct TradingPlatform.Order",
          "name": "order",
          "type": "tuple"
        }
      ],
      "stateMutability": "view",
      "type": "function"
    },
    {
      "inputs": [],
      "name": "getProtocolFee",
      "outputs": [
        {
          "internalType": "uint32",
          "name": "",
          "type": "uint32"
        }
      ],
      "stateMutability": "view",
      "type": "function"
    },
    {
      "inputs": [
        {
          "internalType": "bytes32",
          "name": "role",
          "type": "bytes32"
        }
      ],
      "name": "getRoleAdmin",
      "outputs": [
        {
          "internalType": "bytes32",
          "name": "",
          "type": "bytes32"
        }
      ],
      "stateMutability": "view",
      "type": "function"
    },
    {
      "inputs": [
        {
          "internalType": "bytes32",
          "name": "role",
          "type": "bytes32"
        },
        {
          "internalType": "uint256",
          "name": "index",
          "type": "uint256"
        }
      ],
      "name": "getRoleMember",
      "outputs": [
        {
          "internalType": "address",
          "name": "",
          "type": "address"
        }
      ],
      "stateMutability": "view",
      "type": "function"
    },
    {
      "inputs": [
        {
          "internalType": "bytes32",
          "name": "role",
          "type": "bytes32"
        }
      ],
      "name": "getRoleMemberCount",
      "outputs": [
        {
          "internalType": "uint256",
          "name": "",
          "type": "uint256"
        }
      ],
      "stateMutability": "view",
      "type": "function"
    },
    {
      "inputs": [],
      "name": "getSwapHelper",
      "outputs": [
        {
          "internalType": "address",
          "name": "",
          "type": "address"
        }
      ],
      "stateMutability": "view",
      "type": "function"
    },
    {
      "inputs": [
        {
          "internalType": "address",
          "name": "token",
          "type": "address"
        }
      ],
      "name": "getTokenStatus",
      "outputs": [
        {
          "internalType": "bool",
          "name": "",
          "type": "bool"
        }
      ],
      "stateMutability": "view",
      "type": "function"
    },
    {
      "inputs": [
        {
          "internalType": "address",
          "name": "user",
          "type": "address"
        },
        {
          "internalType": "address",
          "name": "token",
          "type": "address"
        }
      ],
      "name": "getUserBalance",
      "outputs": [
        {
          "internalType": "uint256",
          "name": "",
          "type": "uint256"
        }
      ],
      "stateMutability": "view",
      "type": "function"
    },
    {
      "inputs": [
        {
          "internalType": "bytes32",
          "name": "role",
          "type": "bytes32"
        },
        {
          "internalType": "address",
          "name": "account",
          "type": "address"
        }
      ],
      "name": "grantRole",
      "outputs": [],
      "stateMutability": "nonpayable",
      "type": "function"
    },
    {
      "inputs": [
        {
          "internalType": "bytes32",
          "name": "role",
          "type": "bytes32"
        },
        {
          "internalType": "address",
          "name": "account",
          "type": "address"
        }
      ],
      "name": "hasRole",
      "outputs": [
        {
          "internalType": "bool",
          "name": "",
          "type": "bool"
        }
      ],
      "stateMutability": "view",
      "type": "function"
    },
    {
      "inputs": [
        {
          "internalType": "uint256",
          "name": "orderId",
          "type": "uint256"
        }
      ],
      "name": "isActiveOrderExist",
      "outputs": [
        {
          "internalType": "bool",
          "name": "",
          "type": "bool"
        }
      ],
      "stateMutability": "view",
      "type": "function"
    },
    {
      "inputs": [
        {
          "internalType": "bytes",
          "name": "performData",
          "type": "bytes"
        }
      ],
      "name": "performUpkeep",
      "outputs": [],
      "stateMutability": "nonpayable",
      "type": "function"
    },
    {
      "inputs": [
        {
          "internalType": "address[]",
          "name": "tokens",
          "type": "address[]"
        }
      ],
      "name": "removeTokensFromWhitelist",
      "outputs": [],
      "stateMutability": "nonpayable",
      "type": "function"
    },
    {
      "inputs": [
        {
          "internalType": "bytes32",
          "name": "role",
          "type": "bytes32"
        },
        {
          "internalType": "address",
          "name": "account",
          "type": "address"
        }
      ],
      "name": "renounceRole",
      "outputs": [],
      "stateMutability": "nonpayable",
      "type": "function"
    },
    {
      "inputs": [
        {
          "internalType": "bytes32",
          "name": "role",
          "type": "bytes32"
        },
        {
          "internalType": "address",
          "name": "account",
          "type": "address"
        }
      ],
      "name": "revokeRole",
      "outputs": [],
      "stateMutability": "nonpayable",
      "type": "function"
    },
    {
      "inputs": [
        {
          "internalType": "uint32",
          "name": "newProtocolFee",
          "type": "uint32"
        }
      ],
      "name": "setProtocolFee",
      "outputs": [],
      "stateMutability": "nonpayable",
      "type": "function"
    },
    {
      "inputs": [],
      "name": "shouldRebalance",
      "outputs": [
        {
          "internalType": "uint256[]",
          "name": "",
          "type": "uint256[]"
        }
      ],
      "stateMutability": "view",
      "type": "function"
    },
    {
      "inputs": [
        {
          "internalType": "bytes4",
          "name": "interfaceId",
          "type": "bytes4"
        }
      ],
      "name": "supportsInterface",
      "outputs": [
        {
          "internalType": "bool",
          "name": "",
          "type": "bool"
        }
      ],
      "stateMutability": "view",
      "type": "function"
    },
    {
      "inputs": [
        {
          "internalType": "address",
          "name": "token",
          "type": "address"
        },
        {
          "internalType": "uint256",
          "name": "amount",
          "type": "uint256"
        }
      ],
      "name": "withdraw",
      "outputs": [
        {
          "internalType": "bool",
          "name": "",
          "type": "bool"
        }
      ],
      "stateMutability": "nonpayable",
      "type": "function"
    }
  ],
  "transactionHash": "0xa3fad6ae97be15c4f867a58a71affa2d5f3ca15470576f384f591ee37c9c5961",
  "args": [
    "0x99CB3439F88dFD1D9c6C4B7141a0696EcEa96ff3",
    "0xB984f9F42d405A37F7f3903C73cbF7112DCc859b"
  ],
  "numDeployments": 1,
  "solcInputHash": "4babb79d1fb6fe1f66773d9dca7a5cc8",
  "bytecode": "0x608060405260028054600160a01b600160e01b0319167927100000007800000000000000000000000000000000000000001790553480156200004057600080fd5b506040516200425f3803806200425f8339810160408190526200006391620002e1565b6001600160a01b038216620000bf5760405162461bcd60e51b815260206004820152601c60248201527f556e697377617048656c7065725633207a65726f20616464726573730000000060448201526064015b60405180910390fd5b6001600160a01b0381166200010c5760405162461bcd60e51b815260206004820152601260248201527141646d696e207a65726f206164647265737360701b6044820152606401620000b6565b620001387fa49807205ce4d355092ef5a8a18f56e8913cf4a201fbe287825b095693c21775826200015f565b50600380546001600160a01b0319166001600160a01b039290921691909117905562000319565b6200016b82826200016f565b5050565b620001868282620001b260201b62001f921760201c565b6000828152600160209081526040909120620001ad9183906200201662000252821b17901c565b505050565b6000828152602081815260408083206001600160a01b038516845290915290205460ff166200016b576000828152602081815260408083206001600160a01b03851684529091529020805460ff191660011790556200020e3390565b6001600160a01b0316816001600160a01b0316837f2f8788117e7eff1d82e926ec794901d17c78024a50270940304540a733656f0d60405160405180910390a45050565b600062000269836001600160a01b03841662000272565b90505b92915050565b6000818152600183016020526040812054620002bb575081546001818101845560008481526020808220909301849055845484825282860190935260409020919091556200026c565b5060006200026c565b80516001600160a01b0381168114620002dc57600080fd5b919050565b60008060408385031215620002f557600080fd5b6200030083620002c4565b91506200031060208401620002c4565b90509250929050565b613f3680620003296000396000f3fe608060405234801561001057600080fd5b506004361061021c5760003560e01c806399a5d74711610125578063b629a26a116100ad578063d547741f1161007c578063d547741f146104ed578063e246023f14610500578063f3fef3a314610513578063f9b56b3314610526578063fc511b1a1461053957600080fd5b8063b629a26a1461049f578063ca15c873146104a7578063cd5933ee146104ba578063d311636b146104cd57600080fd5b8063a5a41031116100f4578063a5a4103114610445578063aa9f76281461045a578063aaf5eb681461046d578063ae2c1d5f14610477578063b36bb0e31461048c57600080fd5b806399a5d7471461040f5780639c0651ea14610422578063a217fddf1461042a578063a3ff31b51461043257600080fd5b806347e7ef24116101a85780636e04ff0d116101775780636e04ff0d1461038e57806375b238fc146103af57806380cfdfc2146103d65780639010d07c146103e957806391d14854146103fc57600080fd5b806347e7ef241461031e57806348efc672146103315780634ccb20c0146103445780636805d6ad1461035557600080fd5b8063248a9ca3116101ef578063248a9ca3146102ad5780632f2ff15d146102d057806336568abe146102e55780633b8424b2146102f85780634585e33b1461030b57600080fd5b806301ffc9a7146102215780631d92c26d146102495780631fd46d5f14610267578063215aeeee14610288575b600080fd5b61023461022f366004613339565b61054c565b60405190151581526020015b60405180910390f35b6102526103e881565b60405163ffffffff9091168152602001610240565b61027a610275366004613536565b610577565b604051908152602001610240565b6003546001600160a01b03165b6040516001600160a01b039091168152602001610240565b61027a6102bb366004613672565b60009081526020819052604090206001015490565b6102e36102de36600461368b565b610c05565b005b6102e36102f336600461368b565b610c2f565b6102346103063660046136b7565b610cad565b6102e36103193660046136eb565b610d22565b61023461032c36600461375c565b610d8a565b61023461033f366004613672565b610e77565b6002546001600160a01b0316610295565b61027a610363366004613786565b6001600160a01b039182166000908152600c6020908152604080832093909416825291909152205490565b6103a161039c3660046136eb565b611396565b604051610240929190613808565b61027a7fa49807205ce4d355092ef5a8a18f56e8913cf4a201fbe287825b095693c2177581565b6102e36103e4366004613823565b6113d7565b6102956103f73660046138af565b611560565b61023461040a36600461368b565b61157f565b61027a61041d366004613672565b6115a8565b61027a6115d4565b61027a600081565b6102346104403660046138d1565b6115e5565b600254600160c01b900463ffffffff16610252565b6102e36104683660046138ec565b6115f2565b610252620f424081565b61047f61162d565b604051610240919061394d565b6102e361049a366004613823565b611727565b61027a61181b565b61027a6104b5366004613672565b611826565b61027a6104c8366004613672565b61183d565b6104e06104db366004613672565b6118a2565b6040516102409190613998565b6102e36104fb36600461368b565b611ac8565b61023461050e366004613672565b611aed565b61023461052136600461375c565b611afa565b61047f6105343660046138af565b611bf8565b6102e3610547366004613aff565b611ce4565b60006001600160e01b03198216635a05180f60e01b148061057157506105718261202b565b92915050565b80516000906001600160a01b031633146105cd5760405162461bcd60e51b815260206004820152601260248201527157726f6e672075736572206164647265737360701b60448201526064015b60405180910390fd5b60208201516001600160a01b031661061c5760405162461bcd60e51b81526020600482015260126024820152715a65726f206164647265737320636865636b60701b60448201526064016105c4565b60408201516001600160a01b031661066b5760405162461bcd60e51b81526020600482015260126024820152715a65726f206164647265737320636865636b60701b60448201526064016105c4565b81604001516001600160a01b031682602001516001600160a01b031614156106d55760405162461bcd60e51b815260206004820152601860248201527f546f6b656e73206d75737420626520646966666572656e74000000000000000060448201526064016105c4565b60008260a001516001600160801b0316116107325760405162461bcd60e51b815260206004820181905260248201527f416d6f756e7420696e206d7573742062652067726561746572207468616e203060448201526064016105c4565b6000826080015162ffffff16118015610755575061c350826080015162ffffff16105b6107935760405162461bcd60e51b815260206004820152600f60248201526e556e7361666520736c69707061676560881b60448201526064016105c4565b60008260c001516001600160801b0316116107fa5760405162461bcd60e51b815260206004820152602160248201527f41696d20616d6f756e74206d7573742062652067726561746572207468616e206044820152600360fc1b60648201526084016105c4565b42826101000151116108465760405162461bcd60e51b815260206004820152601560248201527457726f6e672065787069726174696f6e206461746560581b60448201526064016105c4565b602082015161085790600490612060565b801561086f5750604082015161086f90600490612060565b6108af5760405162461bcd60e51b8152602060048201526011602482015270151bdad95b881b9bdd08185b1b1bddd959607a1b60448201526064016105c4565b6108bd600f80546001019055565b50600f5461012082015151156109625760005b8261012001515181101561096057600083610120015182815181106108f7576108f7613b6a565b6020908102919091018101516000818152600a9092526040909120549091506001600160a01b0316331461092a57600080fd5b6000908152600a60209081526040822060060180546001810182559083529120018290558061095881613b96565b9150506108d0565b505b61096d600682612082565b50336000908152600d6020908152604080832080546001808201835591855283852001859055848452600a835292819020855181546001600160a01b03199081166001600160a01b03928316178355878501519583018054909116958216959095179094559085015160028201805460608801516080890151939096166001600160b81b031990911617600160a01b62ffffff968716021762ffffff60b81b1916600160b81b95909216949094021790925560a084015160c08501516001600160801b03918216600160801b9183169190910217600384015560e08501516004840180546fffffffffffffffffffffffffffffffff19169190921617905561010084015160058301556101208401518051859392610a92926006850192910190613266565b5061014082015160078201805460ff19166001836003811115610ab757610ab7613960565b02179055506101608201518051610ad89160088401916020909101906132b1565b5050336000908152600c60209081526040808320868301516001600160a01b0316845290915290205460a08401519091506001600160801b0316811015610b7a576000818460a001516001600160801b0316610b349190613bb1565b336000818152600c6020908152604080832089830180516001600160a01b039081168652919093529083209290925551929350610b74921690308461208e565b50610bc7565b60a0830151336000908152600c60209081526040808320828801516001600160a01b03168452909152812080546001600160801b0390931692909190610bc1908490613bb1565b90915550505b604080518381523360208201527f4ceaea0569072c9203c8c195ffccdbca9851b9d0410f577878a6792f12ec9b52910160405180910390a150919050565b600082815260208190526040902060010154610c20816120f9565b610c2a8383612106565b505050565b6001600160a01b0381163314610c9f5760405162461bcd60e51b815260206004820152602f60248201527f416363657373436f6e74726f6c3a2063616e206f6e6c792072656e6f756e636560448201526e103937b632b9903337b91039b2b63360891b60648201526084016105c4565b610ca98282612128565b5050565b6000805b8251811015610d1957610cdc838281518110610ccf57610ccf613b6a565b6020026020010151610e77565b610ce557610d07565b610d07838281518110610cfa57610cfa613b6a565b602002602001015161214a565b80610d1181613b96565b915050610cb1565b50600192915050565b6000610d30828401846136b7565b90506000815111610d7b5760405162461bcd60e51b81526020600482015260156024820152742737ba3434b733903337b91032bc32b1baba34b7b760591b60448201526064016105c4565b610d8481610cad565b50505050565b6000610d97600484612060565b610dd75760405162461bcd60e51b8152602060048201526011602482015270151bdad95b881b9bdd08185b1b1bddd959607a1b60448201526064016105c4565b610dec6001600160a01b03841633308561208e565b336000908152600c602090815260408083206001600160a01b038716845290915281208054849290610e1f908490613bc8565b9091555050604080513381526001600160a01b03851660208201529081018390527f8752a472e571a816aea92eec8dae9baf628e840f4929fbcc2d155e6233ff68a7906060015b60405180910390a150600192915050565b6000610e84600683612b92565b610e9057506000919050565b6000828152600a6020908152604080832081516101808101835281546001600160a01b039081168252600183015481168286015260028301549081168285015262ffffff600160a01b820481166060840152600160b81b90910416608082015260038201546001600160801b0380821660a0840152600160801b909104811660c083015260048301541660e0820152600582015461010082015260068201805484518187028101870190955280855291949293610120860193909290830182828015610f7b57602002820191906000526020600020905b815481526020019060010190808311610f67575b5050509183525050600782015460209091019060ff166003811115610fa257610fa2613960565b6003811115610fb357610fb3613960565b8152602001600882018054610fc790613be0565b80601f0160208091040260200160405190810160405280929190818152602001828054610ff390613be0565b80156110405780601f1061101557610100808354040283529160200191611040565b820191906000526020600020905b81548152906001019060200180831161102357829003601f168201915b50505050508152505090506002600381111561105e5761105e613960565b816101400151600381111561107557611075613960565b14156110d85760008161016001518060200190518101906110969190613c1b565b6000858152600b6020526040902054815191925042916110bf91906001600160801b0316613bc8565b106110ce575060019392505050565b5060009392505050565b600381610140015160038111156110f1576110f1613960565b141561123d5760008161016001518060200190518101906111129190613c79565b600354602084015160408086015184516060880151600254935163d92cec1b60e01b81529697506000966001600160a01b039096169563d92cec1b9561116e959094939291600160a01b90910463ffffffff1690600401613cea565b602060405180830381865afa15801561118b573d6000803e3d6000fd5b505050506040513d601f19601f820116820180604052508101906111af9190613d2e565b6000868152600b6020526040902054909150801580156111dc57508360c001516001600160801b03168210155b80611228575080158015906112285750816111fb828560200151612baa565b6112059083613bc8565b101580611228575061121b818460200151612baa565b6112259082613bb1565b82105b156112395750600195945050505050565b5050505b600354602082015160408084015160a08501516060860151600254935163d92cec1b60e01b81526000966001600160a01b03169563d92cec1b9561129895919491939192600160a01b90910463ffffffff1690600401613cea565b602060405180830381865afa1580156112b5573d6000803e3d6000fd5b505050506040513d601f19601f820116820180604052508101906112d99190613d2e565b9050600082610140015160038111156112f4576112f4613960565b14801561130e57508160c001516001600160801b03168111155b801561132657508160e001516001600160801b031681115b15611335575060019392505050565b6001826101400151600381111561134e5761134e613960565b14801561136857508160c001516001600160801b03168110155b15611377575060019392505050565b808260e001516001600160801b031610156110ce575060009392505050565b6000606060006113a461162d565b905060008151119250806040516020016113be919061394d565b6040516020818303038152906040529150509250929050565b7fa49807205ce4d355092ef5a8a18f56e8913cf4a201fbe287825b095693c21775611401816120f9565b60005b8251811015610c2a5760006001600160a01b031683828151811061142a5761142a613b6a565b60200260200101516001600160a01b031614156114895760405162461bcd60e51b815260206004820152601860248201527f546f6b656e207a65726f206164647265737320636865636b000000000000000060448201526064016105c4565b6114b683828151811061149e5761149e613b6a565b6020026020010151600461206090919063ffffffff16565b156114c05761154e565b6114ed8382815181106114d5576114d5613b6a565b6020026020010151600461201690919063ffffffff16565b507f784c8f4dbf0ffedd6e72c76501c545a70f8b203b30a26ce542bf92ba87c248a483828151811061152157611521613b6a565b602002602001015160405161154591906001600160a01b0391909116815260200190565b60405180910390a15b8061155881613b96565b915050611404565b60008281526001602052604081206115789083612bc9565b9392505050565b6000918252602082815260408084206001600160a01b0393909316845291905290205460ff1690565b600254600090620f4240906115ca90600160c01b900463ffffffff1684613d47565b6105719190613d66565b60006115e06006612bd5565b905090565b6000610571600483612060565b620f424063ffffffff82161061160757600080fd5b6002805463ffffffff909216600160c01b0263ffffffff60c01b19909216919091179055565b6060600061163b6006612bd5565b90506103e88082101561164b5750805b6000816001600160401b0381111561166557611665613363565b60405190808252806020026020018201604052801561168e578160200160208202803683370190505b5090506000805b838110156117085760006116aa600683612bc9565b90506116b581610e77565b156116e75780846116c68585613bb1565b815181106116d6576116d6613b6a565b6020026020010181815250506116f5565b826116f181613b96565b9350505b508061170081613b96565b915050611695565b50801561171f57600061171b8285613bb1565b8352505b509392505050565b7fa49807205ce4d355092ef5a8a18f56e8913cf4a201fbe287825b095693c21775611751816120f9565b60005b8251811015610c2a5761177283828151811061149e5761149e613b6a565b61177b57611809565b6117a883828151811061179057611790613b6a565b60200260200101516004612bdf90919063ffffffff16565b507f4c910b69fe65a61f7531b9c5042b2329ca7179c77290aa7e2eb3afa3c8511fd38382815181106117dc576117dc613b6a565b602002602001015160405161180091906001600160a01b0391909116815260200190565b60405180910390a15b8061181381613b96565b915050611754565b60006115e0600f5490565b600081815260016020526040812061057190612bd5565b60006118496006612bd5565b82106118975760405162461bcd60e51b815260206004820152601960248201527f5661756c7456323a20496e76616c696420746f6b656e2069640000000000000060448201526064016105c4565b610571600683612bc9565b611908604080516101808101825260008082526020820181905291810182905260608082018390526080820183905260a0820183905260c0820183905260e082018390526101008201839052610120820152906101408201908152602001606081525090565b6000828152600a602090815260409182902082516101808101845281546001600160a01b039081168252600183015481168285015260028301549081168286015262ffffff600160a01b820481166060840152600160b81b90910416608082015260038201546001600160801b0380821660a0840152600160801b909104811660c083015260048301541660e082015260058201546101008201526006820180548551818602810186019096528086529194929361012086019392908301828280156119f357602002820191906000526020600020905b8154815260200190600101908083116119df575b5050509183525050600782015460209091019060ff166003811115611a1a57611a1a613960565b6003811115611a2b57611a2b613960565b8152602001600882018054611a3f90613be0565b80601f0160208091040260200160405190810160405280929190818152602001828054611a6b90613be0565b8015611ab85780601f10611a8d57610100808354040283529160200191611ab8565b820191906000526020600020905b815481529060010190602001808311611a9b57829003601f168201915b5050505050815250509050919050565b600082815260208190526040902060010154611ae3816120f9565b610c2a8383612128565b6000610571600683612b92565b336000908152600c602090815260408083206001600160a01b0386168452909152812054821115611b655760405162461bcd60e51b8152602060048201526015602482015274416d6f756e74206578636565642062616c616e636560581b60448201526064016105c4565b336000908152600c602090815260408083206001600160a01b038716845290915281208054849290611b98908490613bb1565b90915550611bb290506001600160a01b0384163384612bf4565b604080513381526001600160a01b03851660208201529081018390527ff10eae2de0b095be715d0a32380cea8e913ae297b48430b5397024146ce9036590606001610e66565b60606000611c066006612bd5565b9050808410611c25575050604080516000815260208101909152610571565b6000611c318486613bc8565b905080821015611c3e5750805b611c488582613bb1565b6001600160401b03811115611c5f57611c5f613363565b604051908082528060200260200182016040528015611c88578160200160208202803683370190505b50925060005b8351811015611cdb57611cac611ca48288613bc8565b600690612bc9565b848281518110611cbe57611cbe613b6a565b602090810291909101015280611cd381613b96565b915050611c8e565b50505092915050565b8281148015611cf257508215155b611d355760405162461bcd60e51b81526020600482015260146024820152734e6f6e2d636f6d70617469626c65206c6973747360601b60448201526064016105c4565b60005b83811015611f4e5733600a6000878785818110611d5757611d57613b6a565b60209081029290920135835250810191909152604001600020546001600160a01b0316148015611dbe575033600a6000858585818110611d9957611d99613b6a565b60209081029290920135835250810191909152604001600020546001600160a01b0316145b611dfb5760405162461bcd60e51b815260206004820152600e60248201526d2737ba103cb7bab91037b93232b960911b60448201526064016105c4565b828282818110611e0d57611e0d613b6a565b90506020020135858583818110611e2657611e26613b6a565b905060200201351415611e7b5760405162461bcd60e51b815260206004820181905260248201527f43616e277420626f756e6420616e206f7264657220746f20796f757273656c6660448201526064016105c4565b600a6000868684818110611e9157611e91613b6a565b905060200201358152602001908152602001600020600601838383818110611ebb57611ebb613b6a565b8354600181018555600094855260208086209202939093013592019190915550600a90848484818110611ef057611ef0613b6a565b905060200201358152602001908152602001600020600601858583818110611f1a57611f1a613b6a565b8354600181018555600094855260209485902091909402929092013591909201555080611f4681613b96565b915050611d38565b507f23079a0355a8409d0737d38f2df10559f6e8d96f8ddfbe858bd99fd50f2d05f284848484604051611f849493929190613dbe565b60405180910390a150505050565b611f9c828261157f565b610ca9576000828152602081815260408083206001600160a01b03851684529091529020805460ff19166001179055611fd23390565b6001600160a01b0316816001600160a01b0316837f2f8788117e7eff1d82e926ec794901d17c78024a50270940304540a733656f0d60405160405180910390a45050565b6000611578836001600160a01b038416612c24565b60006001600160e01b03198216637965db0b60e01b148061057157506301ffc9a760e01b6001600160e01b0319831614610571565b6001600160a01b03811660009081526001830160205260408120541515611578565b60006115788383612c24565b6040516001600160a01b0380851660248301528316604482015260648101829052610d849085906323b872dd60e01b906084015b60408051601f198184030181529190526020810180516001600160e01b03166001600160e01b031990931692909217909152612c73565b6121038133612d45565b50565b6121108282611f92565b6000828152600160205260409020610c2a9082612016565b6121328282612d9e565b6000828152600160205260409020610c2a9082612bdf565b6000818152600a6020908152604080832081516101808101835281546001600160a01b039081168252600183015481168286015260028301549081168285015262ffffff600160a01b820481166060840152600160b81b90910416608082015260038201546001600160801b0380821660a0840152600160801b909104811660c083015260048301541660e082015260058201546101008201526006820180548451818702810187019095528085529194929361012086019390929083018282801561223557602002820191906000526020600020905b815481526020019060010190808311612221575b5050509183525050600782015460209091019060ff16600381111561225c5761225c613960565b600381111561226d5761226d613960565b815260200160088201805461228190613be0565b80601f01602080910402602001604051908101604052809291908181526020018280546122ad90613be0565b80156122fa5780601f106122cf576101008083540402835291602001916122fa565b820191906000526020600020905b8154815290600101906020018083116122dd57829003601f168201915b5050509190925250505060a08101519091506003826101400151600381111561232557612325613960565b14156124f05760008261016001518060200190518101906123469190613c79565b600354602085015160408087015184516060890151600254935163d92cec1b60e01b81529697506000966001600160a01b039096169563d92cec1b956123a2959094939291600160a01b90910463ffffffff1690600401613cea565b602060405180830381865afa1580156123bf573d6000803e3d6000fd5b505050506040513d601f19601f820116820180604052508101906123e39190613d2e565b90506000600b60008781526020019081526020016000205490508161240c828560200151612baa565b6124169083613bc8565b106124b957826040015162ffffff1693508460a001516001600160801b0316846001600160801b0316111561245d5760a08501519350612457600687612e03565b506124b9565b6000868152600b60209081526040808320859055600a909152812060030180548692906124949084906001600160801b0316613de5565b92506101000a8154816001600160801b0302191690836001600160801b031602179055505b6124c7818460200151612baa565b6124d19082613bb1565b8210156124ec5760a085015193506124ea600687612e03565b505b5050505b6002826101400151600381111561250957612509613960565b14156125cb57600082610160015180602001905181019061252a9190613c1b565b9050806020015191508260a001516001600160801b031681602001516001600160801b0316111561256d5760a08301519150612567600685612e03565b506125c9565b6000848152600b60209081526040808320429055600a909152812060030180548492906125a49084906001600160801b0316613de5565b92506101000a8154816001600160801b0302191690836001600160801b031602179055505b505b600082610140015160038111156125e4576125e4613960565b148061260657506001826101400151600381111561260457612604613960565b145b156128ec57612616600684612e03565b5061012082015151156128ec5760005b826101200151518110156128ea57612666836101200151828151811061264e5761264e613b6a565b60200260200101516006612b9290919063ffffffff16565b156128d8576000600a6000856101200151848151811061268857612688613b6a565b602090810291909101810151825281810192909252604090810160002081516101808101835281546001600160a01b039081168252600183015481168286015260028301549081168285015262ffffff600160a01b820481166060840152600160b81b90910416608082015260038201546001600160801b0380821660a0840152600160801b909104811660c083015260048301541660e082015260058201546101008201526006820180548451818702810187019095528085529194929361012086019390929083018282801561277f57602002820191906000526020600020905b81548152602001906001019080831161276b575b5050509183525050600782015460209091019060ff1660038111156127a6576127a6613960565b60038111156127b7576127b7613960565b81526020016008820180546127cb90613be0565b80601f01602080910402602001604051908101604052809291908181526020018280546127f790613be0565b80156128445780601f1061281957610100808354040283529160200191612844565b820191906000526020600020905b81548152906001019060200180831161282757829003601f168201915b5050509190925250505060a081015181516001600160a01b039081166000908152600c6020908152604080832082870151909416835292905290812080549394506001600160801b039092169261289c908490613bc8565b925050819055506128d584610120015183815181106128bd576128bd613b6a565b60200260200101516006612e0390919063ffffffff16565b50505b806128e281613b96565b915050612626565b505b602082015160035460405163095ea7b360e01b81526001600160a01b0391821660048201526001600160801b038416602482015291169063095ea7b3906044016020604051808303816000875af115801561294b573d6000803e3d6000fd5b505050506040513d601f19601f8201168201806040525081019061296f9190613e0d565b5060035482516020840151604080860151606087015191516312c2969d60e21b81526001600160a01b0394851660048201529284166024840152831660448301526001600160801b038516606483015262ffffff1660848201526000929190911690634b0a5a749060a4016020604051808303816000875af11580156129f9573d6000803e3d6000fd5b505050506040513d601f19601f82011682018060405250810190612a1d9190613d2e565b90506000612a2a826115a8565b905060008461014001516003811115612a4557612a45613960565b1480612a67575060018461014001516003811115612a6557612a65613960565b145b15612ac357612a768183613bb1565b8460e001516001600160801b031610612ac35760405162461bcd60e51b815260206004820152600f60248201526e556e666169722065786368616e676560881b60448201526064016105c4565b6002546001600160a01b039081166000908152600c602090815260408083208882015190941683529290529081208054839290612b01908490613bc8565b90915550612b1190508183613bb1565b84516001600160a01b039081166000908152600c60209081526040808320818a015190941683529290529081208054909190612b4e908490613bc8565b9091555050604080518681523360208201527f7dcea57e3cdcea187cf2d57047e2b9260a274caa69cb5fe9525d123ef6c12a17910160405180910390a15050505050565b60008181526001830160205260408120541515611578565b6000620f4240612bbf62ffffff841685613d47565b6115789190613d66565b60006115788383612e0f565b6000610571825490565b6000611578836001600160a01b038416612e39565b6040516001600160a01b038316602482015260448101829052610c2a90849063a9059cbb60e01b906064016120c2565b6000818152600183016020526040812054612c6b57508154600181810184556000848152602080822090930184905584548482528286019093526040902091909155610571565b506000610571565b6000612cc8826040518060400160405280602081526020017f5361666545524332303a206c6f772d6c6576656c2063616c6c206661696c6564815250856001600160a01b0316612f2c9092919063ffffffff16565b805190915015610c2a5780806020019051810190612ce69190613e0d565b610c2a5760405162461bcd60e51b815260206004820152602a60248201527f5361666545524332303a204552433230206f7065726174696f6e20646964206e6044820152691bdd081cdd58d8d9595960b21b60648201526084016105c4565b612d4f828261157f565b610ca957612d5c81612f43565b612d67836020612f55565b604051602001612d78929190613e2f565b60408051601f198184030181529082905262461bcd60e51b82526105c491600401613ea4565b612da8828261157f565b15610ca9576000828152602081815260408083206001600160a01b0385168085529252808320805460ff1916905551339285917ff6391f5c32d9c69d2a47ea670b442974b53935d1edc7fd64eb21e047a839171b9190a45050565b60006115788383612e39565b6000826000018281548110612e2657612e26613b6a565b9060005260206000200154905092915050565b60008181526001830160205260408120548015612f22576000612e5d600183613bb1565b8554909150600090612e7190600190613bb1565b9050818114612ed6576000866000018281548110612e9157612e91613b6a565b9060005260206000200154905080876000018481548110612eb457612eb4613b6a565b6000918252602080832090910192909255918252600188019052604090208390555b8554869080612ee757612ee7613eb7565b600190038181906000526020600020016000905590558560010160008681526020019081526020016000206000905560019350505050610571565b6000915050610571565b6060612f3b84846000856130f0565b949350505050565b60606105716001600160a01b03831660145b60606000612f64836002613d47565b612f6f906002613bc8565b6001600160401b03811115612f8657612f86613363565b6040519080825280601f01601f191660200182016040528015612fb0576020820181803683370190505b509050600360fc1b81600081518110612fcb57612fcb613b6a565b60200101906001600160f81b031916908160001a905350600f60fb1b81600181518110612ffa57612ffa613b6a565b60200101906001600160f81b031916908160001a905350600061301e846002613d47565b613029906001613bc8565b90505b60018111156130a1576f181899199a1a9b1b9c1cb0b131b232b360811b85600f166010811061305d5761305d613b6a565b1a60f81b82828151811061307357613073613b6a565b60200101906001600160f81b031916908160001a90535060049490941c9361309a81613ecd565b905061302c565b5083156115785760405162461bcd60e51b815260206004820181905260248201527f537472696e67733a20686578206c656e67746820696e73756666696369656e7460448201526064016105c4565b6060824710156131515760405162461bcd60e51b815260206004820152602660248201527f416464726573733a20696e73756666696369656e742062616c616e636520666f6044820152651c8818d85b1b60d21b60648201526084016105c4565b600080866001600160a01b0316858760405161316d9190613ee4565b60006040518083038185875af1925050503d80600081146131aa576040519150601f19603f3d011682016040523d82523d6000602084013e6131af565b606091505b50915091506131c0878383876131cb565b979650505050505050565b60608315613237578251613230576001600160a01b0385163b6132305760405162461bcd60e51b815260206004820152601d60248201527f416464726573733a2063616c6c20746f206e6f6e2d636f6e747261637400000060448201526064016105c4565b5081612f3b565b612f3b838381511561324c5781518083602001fd5b8060405162461bcd60e51b81526004016105c49190613ea4565b8280548282559060005260206000209081019282156132a1579160200282015b828111156132a1578251825591602001919060010190613286565b506132ad929150613324565b5090565b8280546132bd90613be0565b90600052602060002090601f0160209004810192826132df57600085556132a1565b82601f106132f857805160ff19168380011785556132a1565b828001600101855582156132a157918201828111156132a1578251825591602001919060010190613286565b5b808211156132ad5760008155600101613325565b60006020828403121561334b57600080fd5b81356001600160e01b03198116811461157857600080fd5b634e487b7160e01b600052604160045260246000fd5b60405161018081016001600160401b038111828210171561339c5761339c613363565b60405290565b604051601f8201601f191681016001600160401b03811182821017156133ca576133ca613363565b604052919050565b80356001600160a01b03811681146133e957600080fd5b919050565b62ffffff8116811461210357600080fd5b80356133e9816133ee565b6001600160801b038116811461210357600080fd5b80356133e98161340a565b60006001600160401b0382111561344357613443613363565b5060051b60200190565b600082601f83011261345e57600080fd5b8135602061347361346e8361342a565b6133a2565b82815260059290921b8401810191818101908684111561349257600080fd5b8286015b848110156134ad5780358352918301918301613496565b509695505050505050565b8035600481106133e957600080fd5b600082601f8301126134d857600080fd5b81356001600160401b038111156134f1576134f1613363565b613504601f8201601f19166020016133a2565b81815284602083860101111561351957600080fd5b816020850160208301376000918101602001919091529392505050565b60006020828403121561354857600080fd5b81356001600160401b038082111561355f57600080fd5b90830190610180828603121561357457600080fd5b61357c613379565b613585836133d2565b8152613593602084016133d2565b60208201526135a4604084016133d2565b60408201526135b5606084016133ff565b60608201526135c6608084016133ff565b60808201526135d760a0840161341f565b60a08201526135e860c0840161341f565b60c08201526135f960e0840161341f565b60e08201526101008381013590820152610120808401358381111561361d57600080fd5b6136298882870161344d565b82840152505061014061363d8185016134b8565b90820152610160838101358381111561365557600080fd5b613661888287016134c7565b918301919091525095945050505050565b60006020828403121561368457600080fd5b5035919050565b6000806040838503121561369e57600080fd5b823591506136ae602084016133d2565b90509250929050565b6000602082840312156136c957600080fd5b81356001600160401b038111156136df57600080fd5b612f3b8482850161344d565b600080602083850312156136fe57600080fd5b82356001600160401b038082111561371557600080fd5b818501915085601f83011261372957600080fd5b81358181111561373857600080fd5b86602082850101111561374a57600080fd5b60209290920196919550909350505050565b6000806040838503121561376f57600080fd5b613778836133d2565b946020939093013593505050565b6000806040838503121561379957600080fd5b6137a2836133d2565b91506136ae602084016133d2565b60005b838110156137cb5781810151838201526020016137b3565b83811115610d845750506000910152565b600081518084526137f48160208601602086016137b0565b601f01601f19169290920160200192915050565b8215158152604060208201526000612f3b60408301846137dc565b6000602080838503121561383657600080fd5b82356001600160401b0381111561384c57600080fd5b8301601f8101851361385d57600080fd5b803561386b61346e8261342a565b81815260059190911b8201830190838101908783111561388a57600080fd5b928401925b828410156131c0576138a0846133d2565b8252928401929084019061388f565b600080604083850312156138c257600080fd5b50508035926020909101359150565b6000602082840312156138e357600080fd5b611578826133d2565b6000602082840312156138fe57600080fd5b813563ffffffff8116811461157857600080fd5b600081518084526020808501945080840160005b8381101561394257815187529582019590820190600101613926565b509495945050505050565b6020815260006115786020830184613912565b634e487b7160e01b600052602160045260246000fd5b6004811061399457634e487b7160e01b600052602160045260246000fd5b9052565b602081526139b26020820183516001600160a01b03169052565b600060208301516139ce60408401826001600160a01b03169052565b5060408301516001600160a01b038116606084015250606083015162ffffff8116608084015250608083015162ffffff811660a08401525060a08301516001600160801b03811660c08401525060c08301516001600160801b03811660e08401525060e0830151610100613a4c818501836001600160801b03169052565b8401516101208481019190915284015161018061014080860182905291925090613a7a6101a0860184613912565b90860151909250610160613a9086820183613976565b860151858403601f1901838701529050613aaa83826137dc565b9695505050505050565b60008083601f840112613ac657600080fd5b5081356001600160401b03811115613add57600080fd5b6020830191508360208260051b8501011115613af857600080fd5b9250929050565b60008060008060408587031215613b1557600080fd5b84356001600160401b0380821115613b2c57600080fd5b613b3888838901613ab4565b90965094506020870135915080821115613b5157600080fd5b50613b5e87828801613ab4565b95989497509550505050565b634e487b7160e01b600052603260045260246000fd5b634e487b7160e01b600052601160045260246000fd5b6000600019821415613baa57613baa613b80565b5060010190565b600082821015613bc357613bc3613b80565b500390565b60008219821115613bdb57613bdb613b80565b500190565b600181811c90821680613bf457607f821691505b60208210811415613c1557634e487b7160e01b600052602260045260246000fd5b50919050565b600060408284031215613c2d57600080fd5b604051604081018181106001600160401b0382111715613c4f57613c4f613363565b6040528251613c5d8161340a565b81526020830151613c6d8161340a565b60208201529392505050565b600060608284031215613c8b57600080fd5b604051606081018181106001600160401b0382111715613cad57613cad613363565b6040528251613cbb8161340a565b81526020830151613ccb816133ee565b60208201526040830151613cde816133ee565b60408201529392505050565b6001600160a01b0395861681529390941660208401526001600160801b0391909116604083015262ffffff16606082015263ffffffff909116608082015260a00190565b600060208284031215613d4057600080fd5b5051919050565b6000816000190483118215151615613d6157613d61613b80565b500290565b600082613d8357634e487b7160e01b600052601260045260246000fd5b500490565b81835260006001600160fb1b03831115613da157600080fd5b8260051b8083602087013760009401602001938452509192915050565b604081526000613dd2604083018688613d88565b82810360208401526131c0818587613d88565b60006001600160801b0383811690831681811015613e0557613e05613b80565b039392505050565b600060208284031215613e1f57600080fd5b8151801515811461157857600080fd5b7f416363657373436f6e74726f6c3a206163636f756e7420000000000000000000815260008351613e678160178501602088016137b0565b7001034b99036b4b9b9b4b733903937b6329607d1b6017918401918201528351613e988160288401602088016137b0565b01602801949350505050565b60208152600061157860208301846137dc565b634e487b7160e01b600052603160045260246000fd5b600081613edc57613edc613b80565b506000190190565b60008251613ef68184602087016137b0565b919091019291505056fea26469706673582212200399a62ef7681570135b18c8a7ed48c26866d11d9a34476480232bbdfea6e09864736f6c634300080c0033",
  "devdoc": {
    "kind": "dev",
    "methods": {
      "activeOrderId(uint256)": {
        "params": {
          "itemId": "Index in active orders list"
        }
      },
      "activeOrdersIds(uint256,uint256)": {
        "params": {
          "limit": "Number of items requested",
          "offset": "Number of skipped elements"
        }
      },
      "getRoleAdmin(bytes32)": {
        "details": "Returns the admin role that controls `role`. See {grantRole} and {revokeRole}. To change a role's admin, use {_setRoleAdmin}."
      },
      "getRoleMember(bytes32,uint256)": {
        "details": "Returns one of the accounts that have `role`. `index` must be a value between 0 and {getRoleMemberCount}, non-inclusive. Role bearers are not sorted in any particular way, and their ordering may change at any point. WARNING: When using {getRoleMember} and {getRoleMemberCount}, make sure you perform all queries on the same block. See the following https://forum.openzeppelin.com/t/iterating-over-elements-on-enumerableset-in-openzeppelin-contracts/2296[forum post] for more information."
      },
      "getRoleMemberCount(bytes32)": {
        "details": "Returns the number of accounts that have `role`. Can be used together with {getRoleMember} to enumerate all bearers of a role."
      },
      "grantRole(bytes32,address)": {
        "details": "Grants `role` to `account`. If `account` had not been already granted `role`, emits a {RoleGranted} event. Requirements: - the caller must have ``role``'s admin role. May emit a {RoleGranted} event."
      },
      "hasRole(bytes32,address)": {
        "details": "Returns `true` if `account` has been granted `role`."
      },
      "isActiveOrderExist(uint256)": {
        "params": {
          "orderId": "Order id"
        }
      },
      "performUpkeep(bytes)": {
        "details": "The input to this method should not be trusted, and the caller of the method should not even be restricted to any single registry. Anyone should be able call it, and the input should be validated, there is no guarantee that the data passed in is the performData returned from checkUpkeep. This could happen due to malicious keepers, racing keepers, or simply a state change while the performUpkeep transaction is waiting for confirmation. Always validate the data passed in.",
        "params": {
          "performData": "is the data which was passed back from the checkData simulation. If it is encoded, it can easily be decoded into other types by calling `abi.decode`. This data should not be trusted, and should be validated against the contract's current state."
        }
      },
      "renounceRole(bytes32,address)": {
        "details": "Revokes `role` from the calling account. Roles are often managed via {grantRole} and {revokeRole}: this function's purpose is to provide a mechanism for accounts to lose their privileges if they are compromised (such as when a trusted device is misplaced). If the calling account had been revoked `role`, emits a {RoleRevoked} event. Requirements: - the caller must be `account`. May emit a {RoleRevoked} event."
      },
      "revokeRole(bytes32,address)": {
        "details": "Revokes `role` from `account`. If `account` had been granted `role`, emits a {RoleRevoked} event. Requirements: - the caller must have ``role``'s admin role. May emit a {RoleRevoked} event."
      },
      "supportsInterface(bytes4)": {
        "details": "See {IERC165-supportsInterface}."
      }
    },
    "title": "The contract implements the token trading platform",
    "version": 1
  },
  "userdoc": {
    "kind": "user",
    "methods": {
      "activeOrderId(uint256)": {
        "notice": "Returns a active order by index"
      },
      "activeOrdersIds(uint256,uint256)": {
        "notice": "Returns a payment tokens by pagination params"
      },
      "activeOrdersLength()": {
        "notice": "Returns a payment tokens count"
      },
      "constructor": {
        "notice": "TODO:"
      },
      "getFeeRecipient()": {
        "notice": "Returns a address of feeRecipient"
      },
      "getProtocolFee()": {
        "notice": "Returns a address of feeRecipient"
      },
      "getSwapHelper()": {
        "notice": "Returns a address of uniswapHelperV3"
      },
      "isActiveOrderExist(uint256)": {
        "notice": "Returns a boolean indicating whether the payment token exists"
      },
      "performUpkeep(bytes)": {
        "notice": "method that is actually executed by the keepers, via the registry. The data returned by the checkUpkeep simulation will be passed into this method to actually be executed."
      },
      "setProtocolFee(uint32)": {
        "notice": "Returns a address of feeRecipient"
      }
    },
    "version": 1
  },
  "storageLayout": {
    "storage": [
      {
        "astId": 43,
        "contract": "contracts/TradingPlatform.sol:TradingPlatform",
        "label": "_roles",
        "offset": 0,
        "slot": "0",
        "type": "t_mapping(t_bytes32,t_struct(RoleData)38_storage)"
      },
      {
        "astId": 353,
        "contract": "contracts/TradingPlatform.sol:TradingPlatform",
        "label": "_roleMembers",
        "offset": 0,
        "slot": "1",
        "type": "t_mapping(t_bytes32,t_struct(AddressSet)3392_storage)"
      },
      {
        "astId": 4455,
        "contract": "contracts/TradingPlatform.sol:TradingPlatform",
        "label": "feeRecipient",
        "offset": 0,
        "slot": "2",
        "type": "t_address"
      },
      {
        "astId": 4458,
        "contract": "contracts/TradingPlatform.sol:TradingPlatform",
        "label": "_secondsAgoDefault",
        "offset": 20,
        "slot": "2",
        "type": "t_uint32"
      },
      {
        "astId": 4461,
        "contract": "contracts/TradingPlatform.sol:TradingPlatform",
        "label": "protocolFee",
        "offset": 24,
        "slot": "2",
        "type": "t_uint32"
      },
      {
        "astId": 4463,
        "contract": "contracts/TradingPlatform.sol:TradingPlatform",
        "label": "_uniswapHelperV3",
        "offset": 0,
        "slot": "3",
        "type": "t_address"
      },
      {
        "astId": 4466,
        "contract": "contracts/TradingPlatform.sol:TradingPlatform",
        "label": "_tokensWhiteList",
        "offset": 0,
        "slot": "4",
        "type": "t_struct(AddressSet)3392_storage"
      },
      {
        "astId": 4469,
        "contract": "contracts/TradingPlatform.sol:TradingPlatform",
        "label": "_activeOrders",
        "offset": 0,
        "slot": "6",
        "type": "t_struct(UintSet)3549_storage"
      },
      {
        "astId": 4472,
        "contract": "contracts/TradingPlatform.sol:TradingPlatform",
        "label": "_canceledOrders",
        "offset": 0,
        "slot": "8",
        "type": "t_struct(UintSet)3549_storage"
      },
      {
        "astId": 4477,
        "contract": "contracts/TradingPlatform.sol:TradingPlatform",
        "label": "orderInfo",
        "offset": 0,
        "slot": "10",
        "type": "t_mapping(t_uint256,t_struct(Order)4525_storage)"
      },
      {
        "astId": 4481,
        "contract": "contracts/TradingPlatform.sol:TradingPlatform",
        "label": "additionalInformation",
        "offset": 0,
        "slot": "11",
        "type": "t_mapping(t_uint256,t_uint256)"
      },
      {
        "astId": 4487,
        "contract": "contracts/TradingPlatform.sol:TradingPlatform",
        "label": "balances",
        "offset": 0,
        "slot": "12",
        "type": "t_mapping(t_address,t_mapping(t_address,t_uint256))"
      },
      {
        "astId": 4492,
        "contract": "contracts/TradingPlatform.sol:TradingPlatform",
        "label": "userOrders",
        "offset": 0,
        "slot": "13",
        "type": "t_mapping(t_address,t_array(t_uint256)dyn_storage)"
      },
      {
        "astId": 4495,
        "contract": "contracts/TradingPlatform.sol:TradingPlatform",
        "label": "tokenCounter",
        "offset": 0,
        "slot": "14",
        "type": "t_struct(Counter)1922_storage"
      },
      {
        "astId": 4498,
        "contract": "contracts/TradingPlatform.sol:TradingPlatform",
        "label": "orderCounter",
        "offset": 0,
        "slot": "15",
        "type": "t_struct(Counter)1922_storage"
      }
    ],
    "types": {
      "t_address": {
        "encoding": "inplace",
        "label": "address",
        "numberOfBytes": "20"
      },
      "t_array(t_bytes32)dyn_storage": {
        "base": "t_bytes32",
        "encoding": "dynamic_array",
        "label": "bytes32[]",
        "numberOfBytes": "32"
      },
      "t_array(t_uint256)dyn_storage": {
        "base": "t_uint256",
        "encoding": "dynamic_array",
        "label": "uint256[]",
        "numberOfBytes": "32"
      },
      "t_bool": {
        "encoding": "inplace",
        "label": "bool",
        "numberOfBytes": "1"
      },
      "t_bytes32": {
        "encoding": "inplace",
        "label": "bytes32",
        "numberOfBytes": "32"
      },
      "t_bytes_storage": {
        "encoding": "bytes",
        "label": "bytes",
        "numberOfBytes": "32"
      },
      "t_enum(Action)4542": {
        "encoding": "inplace",
        "label": "enum TradingPlatform.Action",
        "numberOfBytes": "1"
      },
      "t_mapping(t_address,t_array(t_uint256)dyn_storage)": {
        "encoding": "mapping",
        "key": "t_address",
        "label": "mapping(address => uint256[])",
        "numberOfBytes": "32",
        "value": "t_array(t_uint256)dyn_storage"
      },
      "t_mapping(t_address,t_bool)": {
        "encoding": "mapping",
        "key": "t_address",
        "label": "mapping(address => bool)",
        "numberOfBytes": "32",
        "value": "t_bool"
      },
      "t_mapping(t_address,t_mapping(t_address,t_uint256))": {
        "encoding": "mapping",
        "key": "t_address",
        "label": "mapping(address => mapping(address => uint256))",
        "numberOfBytes": "32",
        "value": "t_mapping(t_address,t_uint256)"
      },
      "t_mapping(t_address,t_uint256)": {
        "encoding": "mapping",
        "key": "t_address",
        "label": "mapping(address => uint256)",
        "numberOfBytes": "32",
        "value": "t_uint256"
      },
      "t_mapping(t_bytes32,t_struct(AddressSet)3392_storage)": {
        "encoding": "mapping",
        "key": "t_bytes32",
        "label": "mapping(bytes32 => struct EnumerableSet.AddressSet)",
        "numberOfBytes": "32",
        "value": "t_struct(AddressSet)3392_storage"
      },
      "t_mapping(t_bytes32,t_struct(RoleData)38_storage)": {
        "encoding": "mapping",
        "key": "t_bytes32",
        "label": "mapping(bytes32 => struct AccessControl.RoleData)",
        "numberOfBytes": "32",
        "value": "t_struct(RoleData)38_storage"
      },
      "t_mapping(t_bytes32,t_uint256)": {
        "encoding": "mapping",
        "key": "t_bytes32",
        "label": "mapping(bytes32 => uint256)",
        "numberOfBytes": "32",
        "value": "t_uint256"
      },
      "t_mapping(t_uint256,t_struct(Order)4525_storage)": {
        "encoding": "mapping",
        "key": "t_uint256",
        "label": "mapping(uint256 => struct TradingPlatform.Order)",
        "numberOfBytes": "32",
        "value": "t_struct(Order)4525_storage"
      },
      "t_mapping(t_uint256,t_uint256)": {
        "encoding": "mapping",
        "key": "t_uint256",
        "label": "mapping(uint256 => uint256)",
        "numberOfBytes": "32",
        "value": "t_uint256"
      },
      "t_struct(AddressSet)3392_storage": {
        "encoding": "inplace",
        "label": "struct EnumerableSet.AddressSet",
        "members": [
          {
            "astId": 3391,
            "contract": "contracts/TradingPlatform.sol:TradingPlatform",
            "label": "_inner",
            "offset": 0,
            "slot": "0",
            "type": "t_struct(Set)3077_storage"
          }
        ],
        "numberOfBytes": "64"
      },
      "t_struct(Counter)1922_storage": {
        "encoding": "inplace",
        "label": "struct Counters.Counter",
        "members": [
          {
            "astId": 1921,
            "contract": "contracts/TradingPlatform.sol:TradingPlatform",
            "label": "_value",
            "offset": 0,
            "slot": "0",
            "type": "t_uint256"
          }
        ],
        "numberOfBytes": "32"
      },
      "t_struct(Order)4525_storage": {
        "encoding": "inplace",
        "label": "struct TradingPlatform.Order",
        "members": [
          {
            "astId": 4500,
            "contract": "contracts/TradingPlatform.sol:TradingPlatform",
            "label": "userAddress",
            "offset": 0,
            "slot": "0",
            "type": "t_address"
          },
          {
            "astId": 4502,
            "contract": "contracts/TradingPlatform.sol:TradingPlatform",
            "label": "baseToken",
            "offset": 0,
            "slot": "1",
            "type": "t_address"
          },
          {
            "astId": 4504,
            "contract": "contracts/TradingPlatform.sol:TradingPlatform",
            "label": "targetToken",
            "offset": 0,
            "slot": "2",
            "type": "t_address"
          },
          {
            "astId": 4506,
            "contract": "contracts/TradingPlatform.sol:TradingPlatform",
            "label": "pairFee",
            "offset": 20,
            "slot": "2",
            "type": "t_uint24"
          },
          {
            "astId": 4508,
            "contract": "contracts/TradingPlatform.sol:TradingPlatform",
            "label": "slippage",
            "offset": 23,
            "slot": "2",
            "type": "t_uint24"
          },
          {
            "astId": 4510,
            "contract": "contracts/TradingPlatform.sol:TradingPlatform",
            "label": "baseAmount",
            "offset": 0,
            "slot": "3",
            "type": "t_uint128"
          },
          {
            "astId": 4512,
            "contract": "contracts/TradingPlatform.sol:TradingPlatform",
            "label": "aimTargetTokenAmount",
            "offset": 16,
            "slot": "3",
            "type": "t_uint128"
          },
          {
            "astId": 4514,
            "contract": "contracts/TradingPlatform.sol:TradingPlatform",
            "label": "minTargetTokenAmount",
            "offset": 0,
            "slot": "4",
            "type": "t_uint128"
          },
          {
            "astId": 4516,
            "contract": "contracts/TradingPlatform.sol:TradingPlatform",
            "label": "expiration",
            "offset": 0,
            "slot": "5",
            "type": "t_uint256"
          },
          {
            "astId": 4519,
            "contract": "contracts/TradingPlatform.sol:TradingPlatform",
            "label": "boundOrders",
            "offset": 0,
            "slot": "6",
            "type": "t_array(t_uint256)dyn_storage"
          },
          {
            "astId": 4522,
            "contract": "contracts/TradingPlatform.sol:TradingPlatform",
            "label": "action",
            "offset": 0,
            "slot": "7",
            "type": "t_enum(Action)4542"
          },
          {
            "astId": 4524,
            "contract": "contracts/TradingPlatform.sol:TradingPlatform",
            "label": "data",
            "offset": 0,
            "slot": "8",
            "type": "t_bytes_storage"
          }
        ],
        "numberOfBytes": "288"
      },
      "t_struct(RoleData)38_storage": {
        "encoding": "inplace",
        "label": "struct AccessControl.RoleData",
        "members": [
          {
            "astId": 35,
            "contract": "contracts/TradingPlatform.sol:TradingPlatform",
            "label": "members",
            "offset": 0,
            "slot": "0",
            "type": "t_mapping(t_address,t_bool)"
          },
          {
            "astId": 37,
            "contract": "contracts/TradingPlatform.sol:TradingPlatform",
            "label": "adminRole",
            "offset": 0,
            "slot": "1",
            "type": "t_bytes32"
          }
        ],
        "numberOfBytes": "64"
      },
      "t_struct(Set)3077_storage": {
        "encoding": "inplace",
        "label": "struct EnumerableSet.Set",
        "members": [
          {
            "astId": 3072,
            "contract": "contracts/TradingPlatform.sol:TradingPlatform",
            "label": "_values",
            "offset": 0,
            "slot": "0",
            "type": "t_array(t_bytes32)dyn_storage"
          },
          {
            "astId": 3076,
            "contract": "contracts/TradingPlatform.sol:TradingPlatform",
            "label": "_indexes",
            "offset": 0,
            "slot": "1",
            "type": "t_mapping(t_bytes32,t_uint256)"
          }
        ],
        "numberOfBytes": "64"
      },
      "t_struct(UintSet)3549_storage": {
        "encoding": "inplace",
        "label": "struct EnumerableSet.UintSet",
        "members": [
          {
            "astId": 3548,
            "contract": "contracts/TradingPlatform.sol:TradingPlatform",
            "label": "_inner",
            "offset": 0,
            "slot": "0",
            "type": "t_struct(Set)3077_storage"
          }
        ],
        "numberOfBytes": "64"
      },
      "t_uint128": {
        "encoding": "inplace",
        "label": "uint128",
        "numberOfBytes": "16"
      },
      "t_uint24": {
        "encoding": "inplace",
        "label": "uint24",
        "numberOfBytes": "3"
      },
      "t_uint256": {
        "encoding": "inplace",
        "label": "uint256",
        "numberOfBytes": "32"
      },
      "t_uint32": {
        "encoding": "inplace",
        "label": "uint32",
        "numberOfBytes": "4"
      }
    }
  }
}