{
  "address": "0x03D55c808d4B19B82157a3B1E75113D0d86D105c",
  "abi": [
    {
      "inputs": [
        {
          "internalType": "address",
          "name": "uniswapHelperV3_",
          "type": "address"
        },
        {
          "internalType": "address",
          "name": "admin",
          "type": "address"
        },
        {
          "internalType": "uint32",
          "name": "protocolFee_",
          "type": "uint32"
        },
        {
          "internalType": "address",
          "name": "feeRecipient_",
          "type": "address"
        }
      ],
      "stateMutability": "nonpayable",
      "type": "constructor"
    },
    {
      "anonymous": false,
      "inputs": [
        {
          "indexed": false,
          "internalType": "address",
          "name": "operator",
          "type": "address"
        },
        {
          "indexed": false,
          "internalType": "address",
          "name": "token",
          "type": "address"
        },
        {
          "indexed": false,
          "internalType": "uint256",
          "name": "amount",
          "type": "uint256"
        }
      ],
      "name": "Deposited",
      "type": "event"
    },
    {
      "anonymous": false,
      "inputs": [
        {
          "indexed": false,
          "internalType": "uint256",
          "name": "orderId",
          "type": "uint256"
        }
      ],
      "name": "OrderCanceled",
      "type": "event"
    },
    {
      "anonymous": false,
      "inputs": [
        {
          "indexed": false,
          "internalType": "uint256",
          "name": "orderId",
          "type": "uint256"
        },
        {
          "indexed": false,
          "internalType": "address",
          "name": "userAddress",
          "type": "address"
        }
      ],
      "name": "OrderCreated",
      "type": "event"
    },
    {
      "anonymous": false,
      "inputs": [
        {
          "indexed": false,
          "internalType": "uint256",
          "name": "orderId",
          "type": "uint256"
        },
        {
          "indexed": false,
          "internalType": "address",
          "name": "validator",
          "type": "address"
        }
      ],
      "name": "OrderExecuted",
      "type": "event"
    },
    {
      "anonymous": false,
      "inputs": [
        {
          "indexed": false,
          "internalType": "uint256",
          "name": "leftOrderId",
          "type": "uint256"
        },
        {
          "indexed": false,
          "internalType": "uint256",
          "name": "rightOrderId",
          "type": "uint256"
        }
      ],
      "name": "OrdersBounded",
      "type": "event"
    },
    {
      "anonymous": false,
      "inputs": [
        {
          "indexed": true,
          "internalType": "bytes32",
          "name": "role",
          "type": "bytes32"
        },
        {
          "indexed": true,
          "internalType": "bytes32",
          "name": "previousAdminRole",
          "type": "bytes32"
        },
        {
          "indexed": true,
          "internalType": "bytes32",
          "name": "newAdminRole",
          "type": "bytes32"
        }
      ],
      "name": "RoleAdminChanged",
      "type": "event"
    },
    {
      "anonymous": false,
      "inputs": [
        {
          "indexed": true,
          "internalType": "bytes32",
          "name": "role",
          "type": "bytes32"
        },
        {
          "indexed": true,
          "internalType": "address",
          "name": "account",
          "type": "address"
        },
        {
          "indexed": true,
          "internalType": "address",
          "name": "sender",
          "type": "address"
        }
      ],
      "name": "RoleGranted",
      "type": "event"
    },
    {
      "anonymous": false,
      "inputs": [
        {
          "indexed": true,
          "internalType": "bytes32",
          "name": "role",
          "type": "bytes32"
        },
        {
          "indexed": true,
          "internalType": "address",
          "name": "account",
          "type": "address"
        },
        {
          "indexed": true,
          "internalType": "address",
          "name": "sender",
          "type": "address"
        }
      ],
      "name": "RoleRevoked",
      "type": "event"
    },
    {
      "anonymous": false,
      "inputs": [
        {
          "indexed": false,
          "internalType": "address",
          "name": "token",
          "type": "address"
        }
      ],
      "name": "TokenAdded",
      "type": "event"
    },
    {
      "anonymous": false,
      "inputs": [
        {
          "indexed": false,
          "internalType": "address",
          "name": "token",
          "type": "address"
        }
      ],
      "name": "TokenRemoved",
      "type": "event"
    },
    {
      "anonymous": false,
      "inputs": [
        {
          "indexed": false,
          "internalType": "address",
          "name": "operator",
          "type": "address"
        },
        {
          "indexed": false,
          "internalType": "address",
          "name": "token",
          "type": "address"
        },
        {
          "indexed": false,
          "internalType": "uint256",
          "name": "amount",
          "type": "uint256"
        }
      ],
      "name": "Withdrawed",
      "type": "event"
    },
    {
      "inputs": [],
      "name": "ADMIN_ROLE",
      "outputs": [
        {
          "internalType": "bytes32",
          "name": "",
          "type": "bytes32"
        }
      ],
      "stateMutability": "view",
      "type": "function"
    },
    {
      "inputs": [],
      "name": "DEFAULT_ADMIN_ROLE",
      "outputs": [
        {
          "internalType": "bytes32",
          "name": "",
          "type": "bytes32"
        }
      ],
      "stateMutability": "view",
      "type": "function"
    },
    {
      "inputs": [],
      "name": "PRECISION",
      "outputs": [
        {
          "internalType": "uint32",
          "name": "",
          "type": "uint32"
        }
      ],
      "stateMutability": "view",
      "type": "function"
    },
    {
      "inputs": [
        {
          "internalType": "uint256",
          "name": "itemId",
          "type": "uint256"
        }
      ],
      "name": "activeOrderId",
      "outputs": [
        {
          "internalType": "uint256",
          "name": "",
          "type": "uint256"
        }
      ],
      "stateMutability": "view",
      "type": "function"
    },
    {
      "inputs": [
        {
          "internalType": "uint256",
          "name": "offset",
          "type": "uint256"
        },
        {
          "internalType": "uint256",
          "name": "limit",
          "type": "uint256"
        }
      ],
      "name": "activeOrdersIds",
      "outputs": [
        {
          "internalType": "uint256[]",
          "name": "ordersIds",
          "type": "uint256[]"
        }
      ],
      "stateMutability": "view",
      "type": "function"
    },
    {
      "inputs": [],
      "name": "activeOrdersLength",
      "outputs": [
        {
          "internalType": "uint256",
          "name": "",
          "type": "uint256"
        }
      ],
      "stateMutability": "view",
      "type": "function"
    },
    {
      "inputs": [
        {
          "internalType": "address[]",
          "name": "tokens",
          "type": "address[]"
        }
      ],
      "name": "addTokensToWhitelist",
      "outputs": [],
      "stateMutability": "nonpayable",
      "type": "function"
    },
    {
      "inputs": [
        {
          "internalType": "uint256",
          "name": "leftOrderId",
          "type": "uint256"
        },
        {
          "internalType": "uint256",
          "name": "rightOrderId",
          "type": "uint256"
        }
      ],
      "name": "boundOrders",
      "outputs": [],
      "stateMutability": "nonpayable",
      "type": "function"
    },
    {
      "inputs": [
        {
          "internalType": "uint256[]",
          "name": "ordersIds",
          "type": "uint256[]"
        }
      ],
      "name": "cancelOrders",
      "outputs": [],
      "stateMutability": "nonpayable",
      "type": "function"
    },
    {
      "inputs": [
        {
          "internalType": "uint256",
          "name": "orderId",
          "type": "uint256"
        }
      ],
      "name": "checkOrder",
      "outputs": [
        {
          "internalType": "bool",
          "name": "",
          "type": "bool"
        }
      ],
      "stateMutability": "view",
      "type": "function"
    },
    {
      "inputs": [
        {
          "internalType": "bytes",
          "name": "checkData",
          "type": "bytes"
        }
      ],
      "name": "checkUpkeep",
      "outputs": [
        {
          "internalType": "bool",
          "name": "upkeepNeeded",
          "type": "bool"
        },
        {
          "internalType": "bytes",
          "name": "performData",
          "type": "bytes"
        }
      ],
      "stateMutability": "view",
      "type": "function"
    },
    {
      "inputs": [
        {
          "components": [
            {
              "internalType": "address",
              "name": "userAddress",
              "type": "address"
            },
            {
              "internalType": "address",
              "name": "baseToken",
              "type": "address"
            },
            {
              "internalType": "address",
              "name": "targetToken",
              "type": "address"
            },
            {
              "internalType": "uint24",
              "name": "pairFee",
              "type": "uint24"
            },
            {
              "internalType": "uint24",
              "name": "slippage",
              "type": "uint24"
            },
            {
              "internalType": "uint128",
              "name": "baseAmount",
              "type": "uint128"
            },
            {
              "internalType": "uint128",
              "name": "aimTargetTokenAmount",
              "type": "uint128"
            },
            {
              "internalType": "uint128",
              "name": "minTargetTokenAmount",
              "type": "uint128"
            },
            {
              "internalType": "uint256",
              "name": "expiration",
              "type": "uint256"
            },
            {
              "internalType": "uint256",
              "name": "boundOrder",
              "type": "uint256"
            },
            {
              "internalType": "enum ITradingPlatform.Action",
              "name": "action",
              "type": "uint8"
            },
            {
              "internalType": "bytes",
              "name": "data",
              "type": "bytes"
            }
          ],
          "internalType": "struct ITradingPlatform.Order",
          "name": "order",
          "type": "tuple"
        }
      ],
      "name": "createOrder",
      "outputs": [
        {
          "internalType": "uint256",
          "name": "",
          "type": "uint256"
        }
      ],
      "stateMutability": "nonpayable",
      "type": "function"
    },
    {
      "inputs": [
        {
          "internalType": "address",
          "name": "token",
          "type": "address"
        },
        {
          "internalType": "uint256",
          "name": "amount",
          "type": "uint256"
        }
      ],
      "name": "deposit",
      "outputs": [
        {
          "internalType": "bool",
          "name": "",
          "type": "bool"
        }
      ],
      "stateMutability": "nonpayable",
      "type": "function"
    },
    {
      "inputs": [
        {
          "internalType": "uint256[]",
          "name": "ordersIds",
          "type": "uint256[]"
        }
      ],
      "name": "executeOrders",
      "outputs": [
        {
          "internalType": "bool",
          "name": "",
          "type": "bool"
        }
      ],
      "stateMutability": "nonpayable",
      "type": "function"
    },
    {
      "inputs": [],
      "name": "getFeeRecipient",
      "outputs": [
        {
          "internalType": "address",
          "name": "",
          "type": "address"
        }
      ],
      "stateMutability": "view",
      "type": "function"
    },
    {
      "inputs": [],
      "name": "getOrderCounter",
      "outputs": [
        {
          "internalType": "uint256",
          "name": "",
          "type": "uint256"
        }
      ],
      "stateMutability": "view",
      "type": "function"
    },
    {
      "inputs": [
        {
          "internalType": "uint256[]",
          "name": "ordersIds",
          "type": "uint256[]"
        }
      ],
      "name": "getOrdersInfo",
      "outputs": [
        {
          "components": [
            {
              "internalType": "uint256",
              "name": "id",
              "type": "uint256"
            },
            {
              "components": [
                {
                  "internalType": "address",
                  "name": "userAddress",
                  "type": "address"
                },
                {
                  "internalType": "address",
                  "name": "baseToken",
                  "type": "address"
                },
                {
                  "internalType": "address",
                  "name": "targetToken",
                  "type": "address"
                },
                {
                  "internalType": "uint24",
                  "name": "pairFee",
                  "type": "uint24"
                },
                {
                  "internalType": "uint24",
                  "name": "slippage",
                  "type": "uint24"
                },
                {
                  "internalType": "uint128",
                  "name": "baseAmount",
                  "type": "uint128"
                },
                {
                  "internalType": "uint128",
                  "name": "aimTargetTokenAmount",
                  "type": "uint128"
                },
                {
                  "internalType": "uint128",
                  "name": "minTargetTokenAmount",
                  "type": "uint128"
                },
                {
                  "internalType": "uint256",
                  "name": "expiration",
                  "type": "uint256"
                },
                {
                  "internalType": "uint256",
                  "name": "boundOrder",
                  "type": "uint256"
                },
                {
                  "internalType": "enum ITradingPlatform.Action",
                  "name": "action",
                  "type": "uint8"
                },
                {
                  "internalType": "bytes",
                  "name": "data",
                  "type": "bytes"
                }
              ],
              "internalType": "struct ITradingPlatform.Order",
              "name": "order",
              "type": "tuple"
            },
            {
              "internalType": "uint256",
              "name": "additionalInformation",
              "type": "uint256"
            },
            {
              "internalType": "uint256",
              "name": "resultTokenOut",
              "type": "uint256"
            },
            {
              "internalType": "bool",
              "name": "status",
              "type": "bool"
            }
          ],
          "internalType": "struct ITradingPlatform.OrderInfo[]",
          "name": "orders",
          "type": "tuple[]"
        }
      ],
      "stateMutability": "view",
      "type": "function"
    },
    {
      "inputs": [],
      "name": "getProtocolFee",
      "outputs": [
        {
          "internalType": "uint32",
          "name": "",
          "type": "uint32"
        }
      ],
      "stateMutability": "view",
      "type": "function"
    },
    {
      "inputs": [
        {
          "internalType": "uint256",
          "name": "orderId",
          "type": "uint256"
        }
      ],
      "name": "getResultTokenOut",
      "outputs": [
        {
          "internalType": "uint256",
          "name": "",
          "type": "uint256"
        }
      ],
      "stateMutability": "view",
      "type": "function"
    },
    {
      "inputs": [
        {
          "internalType": "bytes32",
          "name": "role",
          "type": "bytes32"
        }
      ],
      "name": "getRoleAdmin",
      "outputs": [
        {
          "internalType": "bytes32",
          "name": "",
          "type": "bytes32"
        }
      ],
      "stateMutability": "view",
      "type": "function"
    },
    {
      "inputs": [
        {
          "internalType": "bytes32",
          "name": "role",
          "type": "bytes32"
        },
        {
          "internalType": "uint256",
          "name": "index",
          "type": "uint256"
        }
      ],
      "name": "getRoleMember",
      "outputs": [
        {
          "internalType": "address",
          "name": "",
          "type": "address"
        }
      ],
      "stateMutability": "view",
      "type": "function"
    },
    {
      "inputs": [
        {
          "internalType": "bytes32",
          "name": "role",
          "type": "bytes32"
        }
      ],
      "name": "getRoleMemberCount",
      "outputs": [
        {
          "internalType": "uint256",
          "name": "",
          "type": "uint256"
        }
      ],
      "stateMutability": "view",
      "type": "function"
    },
    {
      "inputs": [],
      "name": "getSwapHelper",
      "outputs": [
        {
          "internalType": "address",
          "name": "",
          "type": "address"
        }
      ],
      "stateMutability": "view",
      "type": "function"
    },
    {
      "inputs": [
        {
          "internalType": "address",
          "name": "token",
          "type": "address"
        }
      ],
      "name": "getTokenStatus",
      "outputs": [
        {
          "internalType": "bool",
          "name": "",
          "type": "bool"
        }
      ],
      "stateMutability": "view",
      "type": "function"
    },
    {
      "inputs": [
        {
          "internalType": "address",
          "name": "user",
          "type": "address"
        },
        {
          "internalType": "address",
          "name": "token",
          "type": "address"
        }
      ],
      "name": "getUserBalance",
      "outputs": [
        {
          "internalType": "uint256",
          "name": "",
          "type": "uint256"
        }
      ],
      "stateMutability": "view",
      "type": "function"
    },
    {
      "inputs": [
        {
          "internalType": "address",
          "name": "userAddress",
          "type": "address"
        }
      ],
      "name": "getUserOrdersIds",
      "outputs": [
        {
          "internalType": "uint256[]",
          "name": "",
          "type": "uint256[]"
        }
      ],
      "stateMutability": "view",
      "type": "function"
    },
    {
      "inputs": [
        {
          "internalType": "address",
          "name": "userAddress",
          "type": "address"
        }
      ],
      "name": "getUserOrdersInfo",
      "outputs": [
        {
          "components": [
            {
              "internalType": "uint256",
              "name": "id",
              "type": "uint256"
            },
            {
              "components": [
                {
                  "internalType": "address",
                  "name": "userAddress",
                  "type": "address"
                },
                {
                  "internalType": "address",
                  "name": "baseToken",
                  "type": "address"
                },
                {
                  "internalType": "address",
                  "name": "targetToken",
                  "type": "address"
                },
                {
                  "internalType": "uint24",
                  "name": "pairFee",
                  "type": "uint24"
                },
                {
                  "internalType": "uint24",
                  "name": "slippage",
                  "type": "uint24"
                },
                {
                  "internalType": "uint128",
                  "name": "baseAmount",
                  "type": "uint128"
                },
                {
                  "internalType": "uint128",
                  "name": "aimTargetTokenAmount",
                  "type": "uint128"
                },
                {
                  "internalType": "uint128",
                  "name": "minTargetTokenAmount",
                  "type": "uint128"
                },
                {
                  "internalType": "uint256",
                  "name": "expiration",
                  "type": "uint256"
                },
                {
                  "internalType": "uint256",
                  "name": "boundOrder",
                  "type": "uint256"
                },
                {
                  "internalType": "enum ITradingPlatform.Action",
                  "name": "action",
                  "type": "uint8"
                },
                {
                  "internalType": "bytes",
                  "name": "data",
                  "type": "bytes"
                }
              ],
              "internalType": "struct ITradingPlatform.Order",
              "name": "order",
              "type": "tuple"
            },
            {
              "internalType": "uint256",
              "name": "additionalInformation",
              "type": "uint256"
            },
            {
              "internalType": "uint256",
              "name": "resultTokenOut",
              "type": "uint256"
            },
            {
              "internalType": "bool",
              "name": "status",
              "type": "bool"
            }
          ],
          "internalType": "struct ITradingPlatform.OrderInfo[]",
          "name": "",
          "type": "tuple[]"
        }
      ],
      "stateMutability": "view",
      "type": "function"
    },
    {
      "inputs": [
        {
          "internalType": "bytes32",
          "name": "role",
          "type": "bytes32"
        },
        {
          "internalType": "address",
          "name": "account",
          "type": "address"
        }
      ],
      "name": "grantRole",
      "outputs": [],
      "stateMutability": "nonpayable",
      "type": "function"
    },
    {
      "inputs": [
        {
          "internalType": "bytes32",
          "name": "role",
          "type": "bytes32"
        },
        {
          "internalType": "address",
          "name": "account",
          "type": "address"
        }
      ],
      "name": "hasRole",
      "outputs": [
        {
          "internalType": "bool",
          "name": "",
          "type": "bool"
        }
      ],
      "stateMutability": "view",
      "type": "function"
    },
    {
      "inputs": [
        {
          "internalType": "uint256",
          "name": "orderId",
          "type": "uint256"
        }
      ],
      "name": "isActiveOrderExist",
      "outputs": [
        {
          "internalType": "bool",
          "name": "",
          "type": "bool"
        }
      ],
      "stateMutability": "view",
      "type": "function"
    },
    {
      "inputs": [
        {
          "internalType": "bytes",
          "name": "performData",
          "type": "bytes"
        }
      ],
      "name": "performUpkeep",
      "outputs": [],
      "stateMutability": "nonpayable",
      "type": "function"
    },
    {
      "inputs": [
        {
          "internalType": "address[]",
          "name": "tokens",
          "type": "address[]"
        }
      ],
      "name": "removeTokensFromWhitelist",
      "outputs": [],
      "stateMutability": "nonpayable",
      "type": "function"
    },
    {
      "inputs": [
        {
          "internalType": "bytes32",
          "name": "role",
          "type": "bytes32"
        },
        {
          "internalType": "address",
          "name": "account",
          "type": "address"
        }
      ],
      "name": "renounceRole",
      "outputs": [],
      "stateMutability": "nonpayable",
      "type": "function"
    },
    {
      "inputs": [
        {
          "internalType": "bytes32",
          "name": "role",
          "type": "bytes32"
        },
        {
          "internalType": "address",
          "name": "account",
          "type": "address"
        }
      ],
      "name": "revokeRole",
      "outputs": [],
      "stateMutability": "nonpayable",
      "type": "function"
    },
    {
      "inputs": [
        {
          "internalType": "uint32",
          "name": "newProtocolFee",
          "type": "uint32"
        }
      ],
      "name": "setProtocolFee",
      "outputs": [],
      "stateMutability": "nonpayable",
      "type": "function"
    },
    {
      "inputs": [],
      "name": "shouldRebalance",
      "outputs": [
        {
          "internalType": "uint256[]",
          "name": "",
          "type": "uint256[]"
        }
      ],
      "stateMutability": "view",
      "type": "function"
    },
    {
      "inputs": [
        {
          "internalType": "bytes4",
          "name": "interfaceId",
          "type": "bytes4"
        }
      ],
      "name": "supportsInterface",
      "outputs": [
        {
          "internalType": "bool",
          "name": "",
          "type": "bool"
        }
      ],
      "stateMutability": "view",
      "type": "function"
    },
    {
      "inputs": [
        {
          "internalType": "address",
          "name": "token",
          "type": "address"
        },
        {
          "internalType": "uint256",
          "name": "amount",
          "type": "uint256"
        }
      ],
      "name": "withdraw",
      "outputs": [
        {
          "internalType": "bool",
          "name": "",
          "type": "bool"
        }
      ],
      "stateMutability": "nonpayable",
      "type": "function"
    }
  ],
  "transactionHash": "0x12dea026de28e5445b249ebe2e0f2d8d2cc6a5d4e7564ed4535e6feb39fc868f",
  "args": [
    "0x99CB3439F88dFD1D9c6C4B7141a0696EcEa96ff3",
    "0xB984f9F42d405A37F7f3903C73cbF7112DCc859b",
    10000,
    "0xB984f9F42d405A37F7f3903C73cbF7112DCc859b"
  ],
  "numDeployments": 2,
  "solcInputHash": "79079278460465399d4985e10ac8437f",
  "bytecode": "0x60806040526003805463ffffffff1916601e1790553480156200002157600080fd5b5060405162004e7938038062004e798339810160408190526200004491620003c8565b60016002556001600160a01b038416620000a55760405162461bcd60e51b815260206004820152601c60248201527f556e697377617048656c7065725633207a65726f20616464726573730000000060448201526064015b60405180910390fd5b6001600160a01b038316620000f25760405162461bcd60e51b815260206004820152601260248201527141646d696e207a65726f206164647265737360701b60448201526064016200009c565b6001600160a01b0381166200014a5760405162461bcd60e51b815260206004820152601a60248201527f46656520726563697069656e74207a65726f206164647265737300000000000060448201526064016200009c565b620f424063ffffffff831610620001a45760405162461bcd60e51b815260206004820152601660248201527f4665652069732031303025206f7220677265617465720000000000000000000060448201526064016200009c565b620001b160008462000246565b620001dd7fa49807205ce4d355092ef5a8a18f56e8913cf4a201fbe287825b095693c217758462000246565b60038054600160201b600160e01b031916680100000000000000006001600160a01b039687160263ffffffff60201b19161764010000000063ffffffff949094169390930292909217909155600480546001600160a01b0319169190931617909155506200042f565b62000252828262000256565b5050565b6200026d82826200029960201b62002a8b1760201c565b60008281526001602090815260409091206200029491839062002b0f62000339821b17901c565b505050565b6000828152602081815260408083206001600160a01b038516845290915290205460ff1662000252576000828152602081815260408083206001600160a01b03851684529091529020805460ff19166001179055620002f53390565b6001600160a01b0316816001600160a01b0316837f2f8788117e7eff1d82e926ec794901d17c78024a50270940304540a733656f0d60405160405180910390a45050565b600062000350836001600160a01b03841662000359565b90505b92915050565b6000818152600183016020526040812054620003a25750815460018181018455600084815260208082209093018490558454848252828601909352604090209190915562000353565b50600062000353565b80516001600160a01b0381168114620003c357600080fd5b919050565b60008060008060808587031215620003df57600080fd5b620003ea85620003ab565b9350620003fa60208601620003ab565b9250604085015163ffffffff811681146200041457600080fd5b91506200042460608601620003ab565b905092959194509250565b614a3a806200043f6000396000f3fe608060405234801561001057600080fd5b50600436106102325760003560e01c806391d1485411610130578063b36bb0e3116100b8578063cd5933ee1161007c578063cd5933ee14610532578063d547741f14610545578063e246023f14610558578063f3fef3a31461056b578063f9b56b331461057e57600080fd5b8063b36bb0e3146104de578063b55fb574146104f1578063b629a26a14610504578063ca15c8731461050c578063ca733b801461051f57600080fd5b8063a3ff31b5116100ff578063a3ff31b51461047f578063a5a4103114610492578063aa9f7628146104b9578063aaf5eb68146104cc578063ae2c1d5f146104d657600080fd5b806391d148541461043c578063989881b31461044f5780639c0651ea1461046f578063a217fddf1461047757600080fd5b806347e7ef24116101be5780636cb3da6e116101825780636cb3da6e146103c05780636e04ff0d146103e057806375b238fc1461040157806380cfdfc2146104165780639010d07c1461042957600080fd5b806347e7ef241461033d57806348efc672146103505780634ccb20c0146103635780636535c91d146103745780636805d6ad1461038757600080fd5b8063248a9ca311610205578063248a9ca3146102c05780632f2ff15d146102f157806336568abe146103045780633b8424b2146103175780634585e33b1461032a57600080fd5b806301ffc9a7146102375780630a1f64961461025f578063143ba5fb14610274578063215aeeee14610294575b600080fd5b61024a610245366004613e83565b610591565b60405190151581526020015b60405180910390f35b61027261026d366004613ead565b6105bc565b005b610287610282366004613ee6565b610819565b6040516102569190613f01565b600354600160401b90046001600160a01b03165b6040516001600160a01b039091168152602001610256565b6102e36102ce366004613f45565b60009081526020819052604090206001015490565b604051908152602001610256565b6102726102ff366004613f5e565b610885565b610272610312366004613f5e565b6108af565b61024a61032536600461401c565b610929565b6102726103383660046140a6565b6109b2565b61024a61034b366004614117565b610a1a565b61024a61035e366004613f45565b610b13565b6004546001600160a01b03166102a8565b6102e36103823660046141fb565b611020565b6102e361039536600461431c565b6001600160a01b03918216600090815260096020908152604080832093909416825291909152205490565b6102e36103ce366004613f45565b60009081526006602052604090205490565b6103f36103ee3660046140a6565b611b94565b60405161025692919061439e565b6102e36000805160206149e583398151915281565b6102726104243660046143b9565b611d2e565b6102a8610437366004613ead565b611ea5565b61024a61044a366004613f5e565b611ec4565b61046261045d366004613ee6565b611eed565b604051610256919061447d565b6102e3611f5c565b6102e3600081565b61024a61048d366004613ee6565b611f6d565b600354640100000000900463ffffffff165b60405163ffffffff9091168152602001610256565b6102726104c7366004614627565b611f7a565b6104a4620f424081565b610287612013565b6102726104ec3660046143b9565b6120fe565b6102726104ff36600461401c565b6121e0565b6102e361250b565b6102e361051a366004613f45565b612516565b61046261052d36600461401c565b61252d565b6102e3610540366004613f45565b61280d565b610272610553366004613f5e565b612865565b61024a610566366004613f45565b61288a565b61024a610579366004614117565b612897565b61028761058c366004613ead565b61299f565b60006001600160e01b03198216635a05180f60e01b14806105b657506105b682612b24565b92915050565b6105c4612b59565b81158015906105d257508015155b80156105de5750808214155b6106275760405162461bcd60e51b81526020600482015260156024820152744e6f6e2d636f6d70617469626c65206f726465727360581b60448201526064015b60405180910390fd5b6000828152600760205260409020546001600160a01b03163314801561066357506000818152600760205260409020546001600160a01b031633145b6106a05760405162461bcd60e51b815260206004820152600e60248201526d2737ba103cb7bab91037b93232b960911b604482015260640161061e565b60026000838152600760208190526040909120015460ff1660038111156106c9576106c9614445565b141580156106fe575060026000828152600760208190526040909120015460ff1660038111156106fb576106fb614445565b14155b61073c5760405162461bcd60e51b815260206004820152600f60248201526e43616e277420626f756e642044434160881b604482015260640161061e565b60008281526007602052604090206006015415801561076a5750600081815260076020526040902060060154155b6107af5760405162461bcd60e51b815260206004820152601660248201527513dc99195c9cc8185b1c9958591e48189bdd5b99195960521b604482015260640161061e565b600082815260076020908152604080832060069081018590558484529281902090920184905581518481529081018390527f8121c3ada975e5c8c13b1ea5c01638605c5bb5b14c8081213e3db773a9f0c150910160405180910390a16108156001600255565b5050565b6001600160a01b03811660009081526008602090815260409182902080548351818402810184019094528084526060939283018282801561087957602002820191906000526020600020905b815481526020019060010190808311610865575b50505050509050919050565b6000828152602081905260409020600101546108a081612bb1565b6108aa8383612bbb565b505050565b6001600160a01b038116331461091f5760405162461bcd60e51b815260206004820152602f60248201527f416363657373436f6e74726f6c3a2063616e206f6e6c792072656e6f756e636560448201526e103937b632b9903337b91039b2b63360891b606482015260840161061e565b6108158282612bdd565b6000610933612b59565b60005b825181101561099e576109618382815181106109545761095461464d565b6020026020010151610b13565b61096a5761098c565b61098c83828151811061097f5761097f61464d565b6020026020010151612bff565b8061099681614679565b915050610936565b50600190506109ad6001600255565b919050565b60006109c08284018461401c565b90506000815111610a0b5760405162461bcd60e51b81526020600482015260156024820152742737ba3434b733903337b91032bc32b1baba34b7b760591b604482015260640161061e565b610a1481610929565b50505050565b6000610a24612b59565b610a2f600b846135ce565b610a6f5760405162461bcd60e51b8152602060048201526011602482015270151bdad95b881b9bdd08185b1b1bddd959607a1b604482015260640161061e565b610a846001600160a01b0384163330856135f0565b3360009081526009602090815260408083206001600160a01b038716845290915281208054849290610ab7908490614694565b9091555050604080513381526001600160a01b03851660208201529081018390527f8752a472e571a816aea92eec8dae9baf628e840f4929fbcc2d155e6233ff68a7906060015b60405180910390a15060016105b66001600255565b6000610b20600d8361365b565b610b2c57506000919050565b600082815260076020818152604080842081516101808101835281546001600160a01b039081168252600183015481169482019490945260028201549384169281019290925262ffffff600160a01b840481166060840152600160b81b90930490921660808201526003808301546001600160801b0380821660a0850152600160801b909104811660c084015260048401541660e08301526005830154610100830152600683015461012083015292820154909261014084019160ff1690811115610bf957610bf9614445565b6003811115610c0a57610c0a614445565b8152602001600882018054610c1e906146ac565b80601f0160208091040260200160405190810160405280929190818152602001828054610c4a906146ac565b8015610c975780601f10610c6c57610100808354040283529160200191610c97565b820191906000526020600020905b815481529060010190602001808311610c7a57829003601f168201915b505050505081525050905060016003811115610cb557610cb5614445565b8161014001516003811115610ccc57610ccc614445565b1480610cee575060008161014001516003811115610cec57610cec614445565b145b8015610cfe575042816101000151105b15610d0c5750600092915050565b60028161014001516003811115610d2557610d25614445565b1415610d86576000816101600151806020019051810190610d4691906146e1565b6000858152600560205260409020548151919250610d6c916001600160801b0316614694565b4210610d7c575060019392505050565b5060009392505050565b60038161014001516003811115610d9f57610d9f614445565b1415610ee6576000816101600151806020019051810190610dc0919061473f565b600354602084015160408086015184516060880151925163d92cec1b60e01b81529596506000956001600160a01b03600160401b8704169563d92cec1b95610e179590949392909163ffffffff16906004016147b0565b602060405180830381865afa158015610e34573d6000803e3d6000fd5b505050506040513d601f19601f82011682018060405250810190610e5891906147f4565b60008681526005602052604090205490915080158015610e8557508360c001516001600160801b03168210155b80610ed157508015801590610ed15750610ea3818460400151613673565b610ead9082614694565b82101580610ed15750610ec4818460400151613673565b610ece908261480d565b82105b15610ee25750600195945050505050565b5050505b600354602082015160408084015160a08501516060860151925163d92cec1b60e01b81526000956001600160a01b03600160401b8204169563d92cec1b95610f4195919491939192909163ffffffff909116906004016147b0565b602060405180830381865afa158015610f5e573d6000803e3d6000fd5b505050506040513d601f19601f82011682018060405250810190610f8291906147f4565b905060008261014001516003811115610f9d57610f9d614445565b148015610fb757508160c001516001600160801b03168111155b8015610fcf57508160e001516001600160801b031681115b15610fde575060019392505050565b60018261014001516003811115610ff757610ff7614445565b14801561101157508160c001516001600160801b03168110155b15610d7c575060019392505050565b600061102a612b59565b81516001600160a01b031633146110785760405162461bcd60e51b815260206004820152601260248201527157726f6e672075736572206164647265737360701b604482015260640161061e565b60208201516001600160a01b03166110c75760405162461bcd60e51b81526020600482015260126024820152715a65726f206164647265737320636865636b60701b604482015260640161061e565b60408201516001600160a01b03166111165760405162461bcd60e51b81526020600482015260126024820152715a65726f206164647265737320636865636b60701b604482015260640161061e565b81604001516001600160a01b031682602001516001600160a01b031614156111805760405162461bcd60e51b815260206004820152601860248201527f546f6b656e73206d75737420626520646966666572656e740000000000000000604482015260640161061e565b60008260a001516001600160801b0316116111d65760405162461bcd60e51b81526020600482015260166024820152750416d6f756e7420696e206d75737420626520677420360541b604482015260640161061e565b6000826080015162ffffff161180156111f9575061c350826080015162ffffff16105b6112375760405162461bcd60e51b815260206004820152600f60248201526e556e7361666520736c69707061676560881b604482015260640161061e565b6002826101400151600381111561125057611250614445565b146112b25760008260c001516001600160801b0316116112b25760405162461bcd60e51b815260206004820152601760248201527f41696d20616d6f756e74206d7573742062652067742030000000000000000000604482015260640161061e565b600182610140015160038111156112cb576112cb614445565b14806112ed5750600082610140015160038111156112eb576112eb614445565b145b1561133e57428261010001511161133e5760405162461bcd60e51b815260206004820152601560248201527457726f6e672065787069726174696f6e206461746560581b604482015260640161061e565b602082015161134f90600b906135ce565b80156113675750604082015161136790600b906135ce565b6113a75760405162461bcd60e51b8152602060048201526011602482015270151bdad95b881b9bdd08185b1b1bddd959607a1b604482015260640161061e565b6113b5600a80546001019055565b60006113c0600a5490565b9050600283610140015160038111156113db576113db614445565b14156114685760008361016001518060200190518101906113fc91906146e1565b9050600081602001516001600160801b0316116114515760405162461bcd60e51b815260206004820152601360248201527205a65726f20616d6f756e7420746f207377617606c1b604482015260640161061e565b5060008181526005602052604090204290556115a3565b6003836101400151600381111561148157611481614445565b14156115a35760008361016001518060200190518101906114a2919061473f565b9050600081602001516001600160801b0316116114f75760405162461bcd60e51b815260206004820152601360248201527205a65726f20616d6f756e7420746f207377617606c1b604482015260640161061e565b8360a001516001600160801b031681600001516001600160801b0316146115545760405162461bcd60e51b815260206004820152601160248201527015dc9bdb99c818985cd948185b5bdd5b9d607a1b604482015260640161061e565b6000816040015162ffffff16116115a15760405162461bcd60e51b815260206004820152601160248201527015dc9bdb99c81cdd195c08185b5bdd5b9d607a1b604482015260640161061e565b505b610120830151156118e95761012080840151600090815260076020818152604080842081516101808101835281546001600160a01b039081168252600183015481169482019490945260028201549384169281019290925262ffffff600160a01b840481166060840152600160b81b90930490921660808201526003808301546001600160801b0380821660a0850152600160801b909104811660c084015260048401541660e083015260058301546101008301526006830154958201959095529181015492939192909161014084019160ff169081111561168757611687614445565b600381111561169857611698614445565b81526020016008820180546116ac906146ac565b80601f01602080910402602001604051908101604052809291908181526020018280546116d8906146ac565b80156117255780601f106116fa57610100808354040283529160200191611725565b820191906000526020600020905b81548152906001019060200180831161170857829003601f168201915b50505050508152505090506002600381111561174357611743614445565b846101400151600381111561175a5761175a614445565b1415801561177f57506002816101400151600381111561177c5761177c614445565b14155b6117c35760405162461bcd60e51b815260206004820152601560248201527421b0b713ba103137bab732102221a09037b93232b960591b604482015260640161061e565b80516001600160a01b0316331461181c5760405162461bcd60e51b815260206004820152601860248201527f426f756e64206f72646572206973206e6f7420796f7572730000000000000000604482015260640161061e565b61012084015161182e90600d9061365b565b61187a5760405162461bcd60e51b815260206004820152601960248201527f426f756e64206f72646572206973206e6f742061637469766500000000000000604482015260640161061e565b610120810151156118cd5760405162461bcd60e51b815260206004820152601b60248201527f426f756e64206f7264657220616c726561647920626f756e6465640000000000604482015260640161061e565b5061012083015160009081526007602052604090206006018190555b6118f4600d82613692565b5033600090815260086020908152604080832080546001808201835591855283852001859055848452600780845293829020875181546001600160a01b03199081166001600160a01b03928316178355948901518284018054909616908216179094559187015160028301805460608a015160808b0151939096166001600160b81b031990911617600160a01b62ffffff968716021762ffffff60b81b1916600160b81b95909216949094021790925560a086015160c08701516001600160801b03918216600160801b918316919091021760038084019190915560e08801516004840180546fffffffffffffffffffffffffffffffff1916919093161790915561010087015160058301556101208701516006830155610140870151938201805488959394919260ff1990911691908490811115611a3557611a35614445565b02179055506101608201518051611a56916008840191602090910190613d54565b5050336000908152600960209081526040808320878301516001600160a01b0316845290915290205460a08501519091506001600160801b0316811015611b02576000818560a001516001600160801b0316611ab2919061480d565b90508115611ae257336000908152600960209081526040808320888301516001600160a01b031684529091528120555b6020850151611afc906001600160a01b03163330846135f0565b50611b4f565b60a0840151336000908152600960209081526040808320828901516001600160a01b03168452909152812080546001600160801b0390931692909190611b4990849061480d565b90915550505b604080518381523360208201527f4ceaea0569072c9203c8c195ffccdbca9851b9d0410f577878a6792f12ec9b52910160405180910390a15090506109ad6001600255565b600060608180611ba685870187614824565b915091506000611bb4612013565b90508051836001600160801b031610611bfe5760408051600081526020810182528691611be391908101613f01565b60405160208183030381529060405294509450505050611d27565b8051600090611c0d848661485d565b6001600160801b031611611c3357611c25838561485d565b6001600160801b0316611c36565b81515b90506000611c4d6001600160801b0386168361480d565b6001600160401b03811115611c6457611c64613f8a565b604051908082528060200260200182016040528015611c8d578160200160208202803683370190505b50905060005b8151811015611cf75783611cb0826001600160801b038916614694565b81518110611cc057611cc061464d565b6020026020010151828281518110611cda57611cda61464d565b602090810291909101015280611cef81614679565b915050611c93565b506000835111965080604051602001611d109190613f01565b604051602081830303815290604052955050505050505b9250929050565b6000805160206149e5833981519152611d4681612bb1565b60005b82518110156108aa5760006001600160a01b0316838281518110611d6f57611d6f61464d565b60200260200101516001600160a01b03161415611dce5760405162461bcd60e51b815260206004820152601860248201527f546f6b656e207a65726f206164647265737320636865636b0000000000000000604482015260640161061e565b611dfb838281518110611de357611de361464d565b6020026020010151600b6135ce90919063ffffffff16565b15611e0557611e93565b611e32838281518110611e1a57611e1a61464d565b6020026020010151600b612b0f90919063ffffffff16565b507f784c8f4dbf0ffedd6e72c76501c545a70f8b203b30a26ce542bf92ba87c248a4838281518110611e6657611e6661464d565b6020026020010151604051611e8a91906001600160a01b0391909116815260200190565b60405180910390a15b80611e9d81614679565b915050611d49565b6000828152600160205260408120611ebd908361369e565b9392505050565b6000918252602082815260408084206001600160a01b0393909316845291905290205460ff1690565b6001600160a01b0381166000908152600860209081526040808320805482518185028101850190935280835260609493830182828015611f4c57602002820191906000526020600020905b815481526020019060010190808311611f38575b50505050509050611ebd8161252d565b6000611f68600d6136aa565b905090565b60006105b6600b836135ce565b6000805160206149e5833981519152611f9281612bb1565b620f424063ffffffff831610611fea5760405162461bcd60e51b815260206004820152601f60248201527f6e657750726f746f636f6c4665652063616e2774206265206774203130302500604482015260640161061e565b506003805463ffffffff9092166401000000000267ffffffff0000000019909216919091179055565b60606000612021600d6136aa565b90506000816001600160401b0381111561203d5761203d613f8a565b604051908082528060200260200182016040528015612066578160200160208202803683370190505b5090506000805b838110156120e0576000612082600d8361369e565b905061208d81610b13565b156120bf57808461209e858561480d565b815181106120ae576120ae61464d565b6020026020010181815250506120cd565b826120c981614679565b9350505b50806120d881614679565b91505061206d565b5080156120f75760006120f3828561480d565b8352505b5092915050565b6000805160206149e583398151915261211681612bb1565b60005b82518110156108aa57612137838281518110611de357611de361464d565b612140576121ce565b61216d8382815181106121555761215561464d565b6020026020010151600b6136b490919063ffffffff16565b507f4c910b69fe65a61f7531b9c5042b2329ca7179c77290aa7e2eb3afa3c8511fd38382815181106121a1576121a161464d565b60200260200101516040516121c591906001600160a01b0391909116815260200190565b60405180910390a15b806121d881614679565b915050612119565b6121e8612b59565b60005b81518110156124fd576122218282815181106122095761220961464d565b6020026020010151600d61365b90919063ffffffff16565b61222a576124eb565b6000600760008484815181106122425761224261464d565b602090810291909101810151825281810192909252604090810160002081516101808101835281546001600160a01b039081168252600183015481169482019490945260028201549384169281019290925262ffffff600160a01b840481166060840152600160b81b90930490921660808201526003808301546001600160801b0380821660a0850152600160801b909104811660c084015260048401541660e083015260058301546101008301526006830154610120830152600783015491929161014084019160ff9091169081111561231f5761231f614445565b600381111561233057612330614445565b8152602001600882018054612344906146ac565b80601f0160208091040260200160405190810160405280929190818152602001828054612370906146ac565b80156123bd5780601f10612392576101008083540402835291602001916123bd565b820191906000526020600020905b8154815290600101906020018083116123a057829003601f168201915b5050509190925250508151919250506001600160a01b031633146124145760405162461bcd60e51b815260206004820152600e60248201526d2737ba103cb7bab91037b93232b960911b604482015260640161061e565b6124418383815181106124295761242961464d565b6020026020010151600d6136c990919063ffffffff16565b5060a081015181516001600160a01b03908116600090815260096020908152604080832082870151909416835292905290812080546001600160801b0390931692909190612490908490614694565b925050819055507fc41f4ceb2938876c35e61b705e9d2f18a02c4a26ce5e049a6308a943d46851b38383815181106124ca576124ca61464d565b60200260200101516040516124e191815260200190565b60405180910390a1505b806124f581614679565b9150506121eb565b506125086001600255565b50565b6000611f68600a5490565b60008181526001602052604081206105b6906136aa565b606081516001600160401b0381111561254857612548613f8a565b60405190808252806020026020018201604052801561258157816020015b61256e613dd8565b8152602001906001900390816125665790505b50905060005b8251811015612807576040518060a001604052808483815181106125ad576125ad61464d565b60200260200101518152602001600760008685815181106125d0576125d061464d565b602090810291909101810151825281810192909252604090810160002081516101808101835281546001600160a01b039081168252600183015481169482019490945260028201549384169281019290925262ffffff600160a01b840481166060840152600160b81b90930490921660808201526003808301546001600160801b0380821660a0850152600160801b909104811660c084015260048401541660e083015260058301546101008301526006830154610120830152600783015491929161014084019160ff909116908111156126ad576126ad614445565b60038111156126be576126be614445565b81526020016008820180546126d2906146ac565b80601f01602080910402602001604051908101604052809291908181526020018280546126fe906146ac565b801561274b5780601f106127205761010080835404028352916020019161274b565b820191906000526020600020905b81548152906001019060200180831161272e57829003601f168201915b50505050508152505081526020016005600086858151811061276f5761276f61464d565b60200260200101518152602001908152602001600020548152602001600660008685815181106127a1576127a161464d565b602002602001015181526020019081526020016000205481526020016127d28584815181106122095761220961464d565b15158152508282815181106127e9576127e961464d565b602002602001018190525080806127ff90614679565b915050612587565b50919050565b6000612819600d6136aa565b821061285a5760405162461bcd60e51b815260206004820152601060248201526f125b9d985b1a59081d1bdad95b881a5960821b604482015260640161061e565b6105b6600d8361369e565b60008281526020819052604090206001015461288081612bb1565b6108aa8383612bdd565b60006105b6600d8361365b565b60006128a1612b59565b3360009081526009602090815260408083206001600160a01b038716845290915290205482111561290c5760405162461bcd60e51b8152602060048201526015602482015274416d6f756e74206578636565642062616c616e636560581b604482015260640161061e565b3360009081526009602090815260408083206001600160a01b03871684529091528120805484929061293f90849061480d565b9091555061295990506001600160a01b03841633846136d5565b604080513381526001600160a01b03851660208201529081018390527ff10eae2de0b095be715d0a32380cea8e913ae297b48430b5397024146ce9036590606001610afe565b606060006129ad600d6136aa565b90508084106129cc5750506040805160008152602081019091526105b6565b60006129d88486614694565b9050808210156129e55750805b6129ef858261480d565b6001600160401b03811115612a0657612a06613f8a565b604051908082528060200260200182016040528015612a2f578160200160208202803683370190505b50925060005b8351811015612a8257612a53612a4b8288614694565b600d9061369e565b848281518110612a6557612a6561464d565b602090810291909101015280612a7a81614679565b915050612a35565b50505092915050565b612a958282611ec4565b610815576000828152602081815260408083206001600160a01b03851684529091529020805460ff19166001179055612acb3390565b6001600160a01b0316816001600160a01b0316837f2f8788117e7eff1d82e926ec794901d17c78024a50270940304540a733656f0d60405160405180910390a45050565b6000611ebd836001600160a01b038416613705565b60006001600160e01b03198216637965db0b60e01b14806105b657506301ffc9a760e01b6001600160e01b03198316146105b6565b600280541415612bab5760405162461bcd60e51b815260206004820152601f60248201527f5265656e7472616e637947756172643a207265656e7472616e742063616c6c00604482015260640161061e565b60028055565b6125088133613754565b612bc58282612a8b565b60008281526001602052604090206108aa9082612b0f565b612be782826137ad565b60008281526001602052604090206108aa90826136b4565b600081815260076020818152604080842081516101808101835281546001600160a01b039081168252600183015481169482019490945260028201549384169281019290925262ffffff600160a01b840481166060840152600160b81b90930490921660808201526003808301546001600160801b0380821660a0850152600160801b909104811660c084015260048401541660e08301526005830154610100830152600683015461012083015292820154909261014084019160ff1690811115612ccc57612ccc614445565b6003811115612cdd57612cdd614445565b8152602001600882018054612cf1906146ac565b80601f0160208091040260200160405190810160405280929190818152602001828054612d1d906146ac565b8015612d6a5780601f10612d3f57610100808354040283529160200191612d6a565b820191906000526020600020905b815481529060010190602001808311612d4d57829003601f168201915b5050509190925250505060a081015190915060038261014001516003811115612d9557612d95614445565b1415612f5d576000826101600151806020019051810190612db6919061473f565b600354602085015160408087015184516060890151925163d92cec1b60e01b81529596506000956001600160a01b03600160401b8704169563d92cec1b95612e0d9590949392909163ffffffff16906004016147b0565b602060405180830381865afa158015612e2a573d6000803e3d6000fd5b505050506040513d601f19601f82011682018060405250810190612e4e91906147f4565b600086815260056020526040902054909150801580612e845750612e76818460400151613673565b612e809082614694565b8210155b15612ec7578460a001516001600160801b031683602001516001600160801b031610612ebb57612eb5600d876136c9565b50612efa565b82602001519350612efa565b612ed5818460400151613673565b612edf908261480d565b821015612efa5760a08501519350612ef8600d876136c9565b505b6000868152600560209081526040808320859055600790915281206003018054869290612f319084906001600160801b0316614888565b92506101000a8154816001600160801b0302191690836001600160801b031602179055505050506132ce565b60028261014001516003811115612f7657612f76614445565b1415613036576000826101600151806020019051810190612f9791906146e1565b9050806020015191508260a001516001600160801b031681602001516001600160801b031610612fd55760a08301519150612fd3600d856136c9565b505b600084815260056020908152604080832042905560079091528120600301805484929061300c9084906001600160801b0316614888565b92506101000a8154816001600160801b0302191690836001600160801b03160217905550506132ce565b6000826101400151600381111561304f5761304f614445565b148061307157506001826101400151600381111561306f5761306f614445565b145b156132ce57613081600d846136c9565b50610120820151156132ce5761012082015161309f90600d9061365b565b156132ce5761012080830151600090815260076020818152604080842081516101808101835281546001600160a01b039081168252600183015481169482019490945260028201549384169281019290925262ffffff600160a01b840481166060840152600160b81b90930490921660808201526003808301546001600160801b0380821660a0850152600160801b909104811660c084015260048401541660e083015260058301546101008301526006830154958201959095529181015492939192909161014084019160ff169081111561317d5761317d614445565b600381111561318e5761318e614445565b81526020016008820180546131a2906146ac565b80601f01602080910402602001604051908101604052809291908181526020018280546131ce906146ac565b801561321b5780601f106131f05761010080835404028352916020019161321b565b820191906000526020600020905b8154815290600101906020018083116131fe57829003601f168201915b505050505081525050905061323f836101200151600d6136c990919063ffffffff16565b5060a081015181516001600160a01b03908116600090815260096020908152604080832082870151909416835292905290812080546001600160801b039093169290919061328e908490614694565b90915550506101208301516040519081527fc41f4ceb2938876c35e61b705e9d2f18a02c4a26ce5e049a6308a943d46851b39060200160405180910390a1505b602082015160035460405163095ea7b360e01b81526001600160a01b03600160401b909204821660048201526001600160801b038416602482015291169063095ea7b3906044016020604051808303816000875af1158015613334573d6000803e3d6000fd5b505050506040513d601f19601f8201168201806040525081019061335891906148b0565b50600354602083015160408085015160608601516080870151925163a7ce47c560e01b81523060048201526001600160a01b03948516602482015291841660448301526001600160801b038616606483015262ffffff908116608483015290911660a4820152600092600160401b90049091169063a7ce47c59060c4016020604051808303816000875af11580156133f4573d6000803e3d6000fd5b505050506040513d601f19601f8201168201806040525081019061341891906147f4565b9050600061343882600360049054906101000a900463ffffffff16613812565b90506000846101400151600381111561345357613453614445565b148061347557506001846101400151600381111561347357613473614445565b145b156134d157613484818361480d565b8460e001516001600160801b0316106134d15760405162461bcd60e51b815260206004820152600f60248201526e556e666169722065786368616e676560881b604482015260640161061e565b6004546001600160a01b039081166000908152600960209081526040808320888201519094168352929052908120805483929061350f908490614694565b9091555061351f9050818361480d565b84516001600160a01b039081166000908152600960209081526040808320818a01519094168352929052908120805490919061355c908490614694565b9091555061356c9050818361480d565b6000868152600660205260408120805490919061358a908490614694565b9091555050604080518681523360208201527f7dcea57e3cdcea187cf2d57047e2b9260a274caa69cb5fe9525d123ef6c12a17910160405180910390a15050505050565b6001600160a01b03811660009081526001830160205260408120541515611ebd565b6040516001600160a01b0380851660248301528316604482015260648101829052610a149085906323b872dd60e01b906084015b60408051601f198184030181529190526020810180516001600160e01b03166001600160e01b031990931692909217909152613828565b60008181526001830160205260408120541515611ebd565b6000620f424061368862ffffff8416856148d2565b611ebd91906148f1565b6000611ebd8383613705565b6000611ebd83836138fd565b60006105b6825490565b6000611ebd836001600160a01b038416613927565b6000611ebd8383613927565b6040516001600160a01b0383166024820152604481018290526108aa90849063a9059cbb60e01b90606401613624565b600081815260018301602052604081205461374c575081546001818101845560008481526020808220909301849055845484825282860190935260409020919091556105b6565b5060006105b6565b61375e8282611ec4565b6108155761376b81613a1a565b613776836020613a2c565b604051602001613787929190614913565b60408051601f198184030181529082905262461bcd60e51b825261061e91600401614988565b6137b78282611ec4565b15610815576000828152602081815260408083206001600160a01b0385168085529252808320805460ff1916905551339285917ff6391f5c32d9c69d2a47ea670b442974b53935d1edc7fd64eb21e047a839171b9190a45050565b6000620f424061368863ffffffff8416856148d2565b600061387d826040518060400160405280602081526020017f5361666545524332303a206c6f772d6c6576656c2063616c6c206661696c6564815250856001600160a01b0316613bc79092919063ffffffff16565b905080516000148061389e57508080602001905181019061389e91906148b0565b6108aa5760405162461bcd60e51b815260206004820152602a60248201527f5361666545524332303a204552433230206f7065726174696f6e20646964206e6044820152691bdd081cdd58d8d9595960b21b606482015260840161061e565b60008260000182815481106139145761391461464d565b9060005260206000200154905092915050565b60008181526001830160205260408120548015613a1057600061394b60018361480d565b855490915060009061395f9060019061480d565b90508181146139c457600086600001828154811061397f5761397f61464d565b90600052602060002001549050808760000184815481106139a2576139a261464d565b6000918252602080832090910192909255918252600188019052604090208390555b85548690806139d5576139d561499b565b6001900381819060005260206000200160009055905585600101600086815260200190815260200160002060009055600193505050506105b6565b60009150506105b6565b60606105b66001600160a01b03831660145b60606000613a3b8360026148d2565b613a46906002614694565b6001600160401b03811115613a5d57613a5d613f8a565b6040519080825280601f01601f191660200182016040528015613a87576020820181803683370190505b509050600360fc1b81600081518110613aa257613aa261464d565b60200101906001600160f81b031916908160001a905350600f60fb1b81600181518110613ad157613ad161464d565b60200101906001600160f81b031916908160001a9053506000613af58460026148d2565b613b00906001614694565b90505b6001811115613b78576f181899199a1a9b1b9c1cb0b131b232b360811b85600f1660108110613b3457613b3461464d565b1a60f81b828281518110613b4a57613b4a61464d565b60200101906001600160f81b031916908160001a90535060049490941c93613b71816149b1565b9050613b03565b508315611ebd5760405162461bcd60e51b815260206004820181905260248201527f537472696e67733a20686578206c656e67746820696e73756666696369656e74604482015260640161061e565b6060613bd68484600085613bde565b949350505050565b606082471015613c3f5760405162461bcd60e51b815260206004820152602660248201527f416464726573733a20696e73756666696369656e742062616c616e636520666f6044820152651c8818d85b1b60d21b606482015260840161061e565b600080866001600160a01b03168587604051613c5b91906149c8565b60006040518083038185875af1925050503d8060008114613c98576040519150601f19603f3d011682016040523d82523d6000602084013e613c9d565b606091505b5091509150613cae87838387613cb9565b979650505050505050565b60608315613d25578251613d1e576001600160a01b0385163b613d1e5760405162461bcd60e51b815260206004820152601d60248201527f416464726573733a2063616c6c20746f206e6f6e2d636f6e7472616374000000604482015260640161061e565b5081613bd6565b613bd68383815115613d3a5781518083602001fd5b8060405162461bcd60e51b815260040161061e9190614988565b828054613d60906146ac565b90600052602060002090601f016020900481019282613d825760008555613dc8565b82601f10613d9b57805160ff1916838001178555613dc8565b82800160010185558215613dc8579182015b82811115613dc8578251825591602001919060010190613dad565b50613dd4929150613e6e565b5090565b6040518060a0016040528060008152602001613e516040805161018081018252600080825260208201819052918101829052606081018290526080810182905260a0810182905260c0810182905260e0810182905261010081018290526101208101829052906101408201908152602001606081525090565b815260200160008152602001600081526020016000151581525090565b5b80821115613dd45760008155600101613e6f565b600060208284031215613e9557600080fd5b81356001600160e01b031981168114611ebd57600080fd5b60008060408385031215613ec057600080fd5b50508035926020909101359150565b80356001600160a01b03811681146109ad57600080fd5b600060208284031215613ef857600080fd5b611ebd82613ecf565b6020808252825182820181905260009190848201906040850190845b81811015613f3957835183529284019291840191600101613f1d565b50909695505050505050565b600060208284031215613f5757600080fd5b5035919050565b60008060408385031215613f7157600080fd5b82359150613f8160208401613ecf565b90509250929050565b634e487b7160e01b600052604160045260246000fd5b60405161018081016001600160401b0381118282101715613fc357613fc3613f8a565b60405290565b604051601f8201601f191681016001600160401b0381118282101715613ff157613ff1613f8a565b604052919050565b60006001600160401b0382111561401257614012613f8a565b5060051b60200190565b6000602080838503121561402f57600080fd5b82356001600160401b0381111561404557600080fd5b8301601f8101851361405657600080fd5b803561406961406482613ff9565b613fc9565b81815260059190911b8201830190838101908783111561408857600080fd5b928401925b82841015613cae5783358252928401929084019061408d565b600080602083850312156140b957600080fd5b82356001600160401b03808211156140d057600080fd5b818501915085601f8301126140e457600080fd5b8135818111156140f357600080fd5b86602082850101111561410557600080fd5b60209290920196919550909350505050565b6000806040838503121561412a57600080fd5b61413383613ecf565b946020939093013593505050565b62ffffff8116811461250857600080fd5b80356109ad81614141565b6001600160801b038116811461250857600080fd5b80356109ad8161415d565b8035600481106109ad57600080fd5b600082601f83011261419d57600080fd5b81356001600160401b038111156141b6576141b6613f8a565b6141c9601f8201601f1916602001613fc9565b8181528460208386010111156141de57600080fd5b816020850160208301376000918101602001919091529392505050565b60006020828403121561420d57600080fd5b81356001600160401b038082111561422457600080fd5b90830190610180828603121561423957600080fd5b614241613fa0565b61424a83613ecf565b815261425860208401613ecf565b602082015261426960408401613ecf565b604082015261427a60608401614152565b606082015261428b60808401614152565b608082015261429c60a08401614172565b60a08201526142ad60c08401614172565b60c08201526142be60e08401614172565b60e0820152610100838101359082015261012080840135908201526101406142e781850161417d565b9082015261016083810135838111156142ff57600080fd5b61430b8882870161418c565b918301919091525095945050505050565b6000806040838503121561432f57600080fd5b61433883613ecf565b9150613f8160208401613ecf565b60005b83811015614361578181015183820152602001614349565b83811115610a145750506000910152565b6000815180845261438a816020860160208601614346565b601f01601f19169290920160200192915050565b8215158152604060208201526000613bd66040830184614372565b600060208083850312156143cc57600080fd5b82356001600160401b038111156143e257600080fd5b8301601f810185136143f357600080fd5b803561440161406482613ff9565b81815260059190911b8201830190838101908783111561442057600080fd5b928401925b82841015613cae5761443684613ecf565b82529284019290840190614425565b634e487b7160e01b600052602160045260246000fd5b6004811061447957634e487b7160e01b600052602160045260246000fd5b9052565b60006020808301818452808551808352604092508286019150828160051b87010184880160005b8381101561461957603f19898403018552815160a08151855288820151818a8701526144db82870182516001600160a01b03169052565b8981015160c06144f5818901836001600160a01b03169052565b8a830151915060e0614511818a01846001600160a01b03169052565b606092508284015161010061452c818c018362ffffff169052565b6080915081860151610120614547818e018362ffffff169052565b978701519761014091506145658d83018a6001600160801b03169052565b948701519750610160946145838d87018a6001600160801b03169052565b938701519750610180936145a18d86018a6001600160801b03169052565b918701516101a08d0152908601516101c08c015285015195506145c86101e08b018761445b565b828501519550816102008b01526145e36102208b0187614372565b878e01518b8f015284880151948b01949094529586015115159590980194909452978a01979550505091870191506001016144a4565b509098975050505050505050565b60006020828403121561463957600080fd5b813563ffffffff81168114611ebd57600080fd5b634e487b7160e01b600052603260045260246000fd5b634e487b7160e01b600052601160045260246000fd5b600060001982141561468d5761468d614663565b5060010190565b600082198211156146a7576146a7614663565b500190565b600181811c908216806146c057607f821691505b6020821081141561280757634e487b7160e01b600052602260045260246000fd5b6000604082840312156146f357600080fd5b604051604081018181106001600160401b038211171561471557614715613f8a565b60405282516147238161415d565b815260208301516147338161415d565b60208201529392505050565b60006060828403121561475157600080fd5b604051606081018181106001600160401b038211171561477357614773613f8a565b60405282516147818161415d565b815260208301516147918161415d565b602082015260408301516147a481614141565b60408201529392505050565b6001600160a01b0395861681529390941660208401526001600160801b0391909116604083015262ffffff16606082015263ffffffff909116608082015260a00190565b60006020828403121561480657600080fd5b5051919050565b60008282101561481f5761481f614663565b500390565b6000806040838503121561483757600080fd5b82356148428161415d565b915060208301356148528161415d565b809150509250929050565b60006001600160801b0380831681851680830382111561487f5761487f614663565b01949350505050565b60006001600160801b03838116908316818110156148a8576148a8614663565b039392505050565b6000602082840312156148c257600080fd5b81518015158114611ebd57600080fd5b60008160001904831182151516156148ec576148ec614663565b500290565b60008261490e57634e487b7160e01b600052601260045260246000fd5b500490565b7f416363657373436f6e74726f6c3a206163636f756e742000000000000000000081526000835161494b816017850160208801614346565b7001034b99036b4b9b9b4b733903937b6329607d1b601791840191820152835161497c816028840160208801614346565b01602801949350505050565b602081526000611ebd6020830184614372565b634e487b7160e01b600052603160045260246000fd5b6000816149c0576149c0614663565b506000190190565b600082516149da818460208701614346565b919091019291505056fea49807205ce4d355092ef5a8a18f56e8913cf4a201fbe287825b095693c21775a264697066735822122042f56d61454e53e2f070fa78f7109cc5f1e9ce59b2f6b7c83de06681757e82f064736f6c634300080c0033",
  "devdoc": {
    "kind": "dev",
    "methods": {
      "activeOrderId(uint256)": {
        "details": "See {ITradingPlatform}"
      },
      "activeOrdersIds(uint256,uint256)": {
        "details": "See {ITradingPlatform}"
      },
      "activeOrdersLength()": {
        "details": "See {ITradingPlatform}"
      },
      "addTokensToWhitelist(address[])": {
        "details": "See {ITradingPlatform}"
      },
      "boundOrders(uint256,uint256)": {
        "details": "See {ITradingPlatform}"
      },
      "cancelOrders(uint256[])": {
        "details": "See {ITradingPlatform}"
      },
      "checkOrder(uint256)": {
        "details": "See {ITradingPlatform}"
      },
      "checkUpkeep(bytes)": {
        "details": "See {ITradingPlatform}"
      },
      "constructor": {
        "details": "The UniswapHelperV3 address, admin address, and fee recipient address must not be zero addresses.The protocol fee must be less than 100% (represented as 1,000,000 in 6 digits precision).Sets the DEFAULT_ADMIN_ROLE and ADMIN_ROLE roles to the admin address.",
        "params": {
          "admin": "The address of the contract admin.",
          "feeRecipient_": "The address where the protocol fees will be sent to.",
          "protocolFee_": "The protocol fee percentage, represented as a decimal with 6 digits precision.",
          "uniswapHelperV3_": "The address of the UniswapHelperV3 contract."
        }
      },
      "createOrder((address,address,address,uint24,uint24,uint128,uint128,uint128,uint256,uint256,uint8,bytes))": {
        "details": "See {ITradingPlatform}"
      },
      "deposit(address,uint256)": {
        "details": "See {ITradingPlatform}"
      },
      "executeOrders(uint256[])": {
        "details": "See {ITradingPlatform}"
      },
      "getFeeRecipient()": {
        "details": "See {ITradingPlatform}"
      },
      "getOrderCounter()": {
        "details": "See {ITradingPlatform}"
      },
      "getOrdersInfo(uint256[])": {
        "details": "See {ITradingPlatform}"
      },
      "getProtocolFee()": {
        "details": "See {ITradingPlatform}"
      },
      "getResultTokenOut(uint256)": {
        "details": "See {ITradingPlatform}"
      },
      "getRoleAdmin(bytes32)": {
        "details": "Returns the admin role that controls `role`. See {grantRole} and {revokeRole}. To change a role's admin, use {_setRoleAdmin}."
      },
      "getRoleMember(bytes32,uint256)": {
        "details": "Returns one of the accounts that have `role`. `index` must be a value between 0 and {getRoleMemberCount}, non-inclusive. Role bearers are not sorted in any particular way, and their ordering may change at any point. WARNING: When using {getRoleMember} and {getRoleMemberCount}, make sure you perform all queries on the same block. See the following https://forum.openzeppelin.com/t/iterating-over-elements-on-enumerableset-in-openzeppelin-contracts/2296[forum post] for more information."
      },
      "getRoleMemberCount(bytes32)": {
        "details": "Returns the number of accounts that have `role`. Can be used together with {getRoleMember} to enumerate all bearers of a role."
      },
      "getSwapHelper()": {
        "details": "See {ITradingPlatform}"
      },
      "getTokenStatus(address)": {
        "details": "See {ITradingPlatform}"
      },
      "getUserBalance(address,address)": {
        "details": "See {ITradingPlatform}"
      },
      "getUserOrdersIds(address)": {
        "details": "See {ITradingPlatform}"
      },
      "getUserOrdersInfo(address)": {
        "details": "See {ITradingPlatform}"
      },
      "grantRole(bytes32,address)": {
        "details": "Grants `role` to `account`. If `account` had not been already granted `role`, emits a {RoleGranted} event. Requirements: - the caller must have ``role``'s admin role. May emit a {RoleGranted} event."
      },
      "hasRole(bytes32,address)": {
        "details": "Returns `true` if `account` has been granted `role`."
      },
      "isActiveOrderExist(uint256)": {
        "details": "See {ITradingPlatform}"
      },
      "performUpkeep(bytes)": {
        "details": "See {ITradingPlatform}"
      },
      "removeTokensFromWhitelist(address[])": {
        "details": "See {ITradingPlatform}"
      },
      "renounceRole(bytes32,address)": {
        "details": "Revokes `role` from the calling account. Roles are often managed via {grantRole} and {revokeRole}: this function's purpose is to provide a mechanism for accounts to lose their privileges if they are compromised (such as when a trusted device is misplaced). If the calling account had been revoked `role`, emits a {RoleRevoked} event. Requirements: - the caller must be `account`. May emit a {RoleRevoked} event."
      },
      "revokeRole(bytes32,address)": {
        "details": "Revokes `role` from `account`. If `account` had been granted `role`, emits a {RoleRevoked} event. Requirements: - the caller must have ``role``'s admin role. May emit a {RoleRevoked} event."
      },
      "setProtocolFee(uint32)": {
        "details": "See {ITradingPlatform}"
      },
      "shouldRebalance()": {
        "details": "See {ITradingPlatform}"
      },
      "supportsInterface(bytes4)": {
        "details": "See {IERC165-supportsInterface}."
      },
      "withdraw(address,uint256)": {
        "details": "See {ITradingPlatform}"
      }
    },
    "title": "The contract implements the token trading platform with different trading tools",
    "version": 1
  },
  "userdoc": {
    "events": {
      "Deposited(address,address,uint256)": {
        "notice": "Emitted when tokens are deposited into the contract."
      },
      "OrderCanceled(uint256)": {
        "notice": "Emitted when an order is canceled."
      },
      "OrderCreated(uint256,address)": {
        "notice": "Emitted when a new order is created."
      },
      "OrderExecuted(uint256,address)": {
        "notice": "Emitted when an order is executed."
      },
      "OrdersBounded(uint256,uint256)": {
        "notice": "Emitted when two orders are bound together."
      },
      "TokenAdded(address)": {
        "notice": "Emitted when a new token is added to the contract."
      },
      "TokenRemoved(address)": {
        "notice": "Emitted when a token is removed from the contract."
      },
      "Withdrawed(address,address,uint256)": {
        "notice": "Emitted when tokens are withdrawn from the contract."
      }
    },
    "kind": "user",
    "methods": {
      "constructor": {
        "notice": "Initializes the TradingPlatform contract with the specified parameters."
      }
    },
    "version": 1
  },
  "storageLayout": {
    "storage": [
      {
        "astId": 381,
        "contract": "contracts/TradingPlatform.sol:TradingPlatform",
        "label": "_roles",
        "offset": 0,
        "slot": "0",
        "type": "t_mapping(t_bytes32,t_struct(RoleData)376_storage)"
      },
      {
        "astId": 691,
        "contract": "contracts/TradingPlatform.sol:TradingPlatform",
        "label": "_roleMembers",
        "offset": 0,
        "slot": "1",
        "type": "t_mapping(t_bytes32,t_struct(AddressSet)4050_storage)"
      },
      {
        "astId": 906,
        "contract": "contracts/TradingPlatform.sol:TradingPlatform",
        "label": "_status",
        "offset": 0,
        "slot": "2",
        "type": "t_uint256"
      },
      {
        "astId": 5115,
        "contract": "contracts/TradingPlatform.sol:TradingPlatform",
        "label": "secondsAgoDefault",
        "offset": 0,
        "slot": "3",
        "type": "t_uint32"
      },
      {
        "astId": 5117,
        "contract": "contracts/TradingPlatform.sol:TradingPlatform",
        "label": "protocolFee",
        "offset": 4,
        "slot": "3",
        "type": "t_uint32"
      },
      {
        "astId": 5119,
        "contract": "contracts/TradingPlatform.sol:TradingPlatform",
        "label": "uniswapHelperV3",
        "offset": 8,
        "slot": "3",
        "type": "t_address"
      },
      {
        "astId": 5121,
        "contract": "contracts/TradingPlatform.sol:TradingPlatform",
        "label": "feeRecipient",
        "offset": 0,
        "slot": "4",
        "type": "t_address"
      },
      {
        "astId": 5125,
        "contract": "contracts/TradingPlatform.sol:TradingPlatform",
        "label": "additionalInformation",
        "offset": 0,
        "slot": "5",
        "type": "t_mapping(t_uint256,t_uint256)"
      },
      {
        "astId": 5129,
        "contract": "contracts/TradingPlatform.sol:TradingPlatform",
        "label": "resultTokenOut",
        "offset": 0,
        "slot": "6",
        "type": "t_mapping(t_uint256,t_uint256)"
      },
      {
        "astId": 5134,
        "contract": "contracts/TradingPlatform.sol:TradingPlatform",
        "label": "orderInfo",
        "offset": 0,
        "slot": "7",
        "type": "t_mapping(t_uint256,t_struct(Order)8482_storage)"
      },
      {
        "astId": 5139,
        "contract": "contracts/TradingPlatform.sol:TradingPlatform",
        "label": "userOrders",
        "offset": 0,
        "slot": "8",
        "type": "t_mapping(t_address,t_array(t_uint256)dyn_storage)"
      },
      {
        "astId": 5145,
        "contract": "contracts/TradingPlatform.sol:TradingPlatform",
        "label": "balances",
        "offset": 0,
        "slot": "9",
        "type": "t_mapping(t_address,t_mapping(t_address,t_uint256))"
      },
      {
        "astId": 5148,
        "contract": "contracts/TradingPlatform.sol:TradingPlatform",
        "label": "orderCounter",
        "offset": 0,
        "slot": "10",
        "type": "t_struct(Counter)2420_storage"
      },
      {
        "astId": 5151,
        "contract": "contracts/TradingPlatform.sol:TradingPlatform",
        "label": "tokensWhiteList",
        "offset": 0,
        "slot": "11",
        "type": "t_struct(AddressSet)4050_storage"
      },
      {
        "astId": 5154,
        "contract": "contracts/TradingPlatform.sol:TradingPlatform",
        "label": "activeOrders",
        "offset": 0,
        "slot": "13",
        "type": "t_struct(UintSet)4207_storage"
      }
    ],
    "types": {
      "t_address": {
        "encoding": "inplace",
        "label": "address",
        "numberOfBytes": "20"
      },
      "t_array(t_bytes32)dyn_storage": {
        "base": "t_bytes32",
        "encoding": "dynamic_array",
        "label": "bytes32[]",
        "numberOfBytes": "32"
      },
      "t_array(t_uint256)dyn_storage": {
        "base": "t_uint256",
        "encoding": "dynamic_array",
        "label": "uint256[]",
        "numberOfBytes": "32"
      },
      "t_bool": {
        "encoding": "inplace",
        "label": "bool",
        "numberOfBytes": "1"
      },
      "t_bytes32": {
        "encoding": "inplace",
        "label": "bytes32",
        "numberOfBytes": "32"
      },
      "t_bytes_storage": {
        "encoding": "bytes",
        "label": "bytes",
        "numberOfBytes": "32"
      },
      "t_enum(Action)8511": {
        "encoding": "inplace",
        "label": "enum ITradingPlatform.Action",
        "numberOfBytes": "1"
      },
      "t_mapping(t_address,t_array(t_uint256)dyn_storage)": {
        "encoding": "mapping",
        "key": "t_address",
        "label": "mapping(address => uint256[])",
        "numberOfBytes": "32",
        "value": "t_array(t_uint256)dyn_storage"
      },
      "t_mapping(t_address,t_bool)": {
        "encoding": "mapping",
        "key": "t_address",
        "label": "mapping(address => bool)",
        "numberOfBytes": "32",
        "value": "t_bool"
      },
      "t_mapping(t_address,t_mapping(t_address,t_uint256))": {
        "encoding": "mapping",
        "key": "t_address",
        "label": "mapping(address => mapping(address => uint256))",
        "numberOfBytes": "32",
        "value": "t_mapping(t_address,t_uint256)"
      },
      "t_mapping(t_address,t_uint256)": {
        "encoding": "mapping",
        "key": "t_address",
        "label": "mapping(address => uint256)",
        "numberOfBytes": "32",
        "value": "t_uint256"
      },
      "t_mapping(t_bytes32,t_struct(AddressSet)4050_storage)": {
        "encoding": "mapping",
        "key": "t_bytes32",
        "label": "mapping(bytes32 => struct EnumerableSet.AddressSet)",
        "numberOfBytes": "32",
        "value": "t_struct(AddressSet)4050_storage"
      },
      "t_mapping(t_bytes32,t_struct(RoleData)376_storage)": {
        "encoding": "mapping",
        "key": "t_bytes32",
        "label": "mapping(bytes32 => struct AccessControl.RoleData)",
        "numberOfBytes": "32",
        "value": "t_struct(RoleData)376_storage"
      },
      "t_mapping(t_bytes32,t_uint256)": {
        "encoding": "mapping",
        "key": "t_bytes32",
        "label": "mapping(bytes32 => uint256)",
        "numberOfBytes": "32",
        "value": "t_uint256"
      },
      "t_mapping(t_uint256,t_struct(Order)8482_storage)": {
        "encoding": "mapping",
        "key": "t_uint256",
        "label": "mapping(uint256 => struct ITradingPlatform.Order)",
        "numberOfBytes": "32",
        "value": "t_struct(Order)8482_storage"
      },
      "t_mapping(t_uint256,t_uint256)": {
        "encoding": "mapping",
        "key": "t_uint256",
        "label": "mapping(uint256 => uint256)",
        "numberOfBytes": "32",
        "value": "t_uint256"
      },
      "t_struct(AddressSet)4050_storage": {
        "encoding": "inplace",
        "label": "struct EnumerableSet.AddressSet",
        "members": [
          {
            "astId": 4049,
            "contract": "contracts/TradingPlatform.sol:TradingPlatform",
            "label": "_inner",
            "offset": 0,
            "slot": "0",
            "type": "t_struct(Set)3735_storage"
          }
        ],
        "numberOfBytes": "64"
      },
      "t_struct(Counter)2420_storage": {
        "encoding": "inplace",
        "label": "struct Counters.Counter",
        "members": [
          {
            "astId": 2419,
            "contract": "contracts/TradingPlatform.sol:TradingPlatform",
            "label": "_value",
            "offset": 0,
            "slot": "0",
            "type": "t_uint256"
          }
        ],
        "numberOfBytes": "32"
      },
      "t_struct(Order)8482_storage": {
        "encoding": "inplace",
        "label": "struct ITradingPlatform.Order",
        "members": [
          {
            "astId": 8458,
            "contract": "contracts/TradingPlatform.sol:TradingPlatform",
            "label": "userAddress",
            "offset": 0,
            "slot": "0",
            "type": "t_address"
          },
          {
            "astId": 8460,
            "contract": "contracts/TradingPlatform.sol:TradingPlatform",
            "label": "baseToken",
            "offset": 0,
            "slot": "1",
            "type": "t_address"
          },
          {
            "astId": 8462,
            "contract": "contracts/TradingPlatform.sol:TradingPlatform",
            "label": "targetToken",
            "offset": 0,
            "slot": "2",
            "type": "t_address"
          },
          {
            "astId": 8464,
            "contract": "contracts/TradingPlatform.sol:TradingPlatform",
            "label": "pairFee",
            "offset": 20,
            "slot": "2",
            "type": "t_uint24"
          },
          {
            "astId": 8466,
            "contract": "contracts/TradingPlatform.sol:TradingPlatform",
            "label": "slippage",
            "offset": 23,
            "slot": "2",
            "type": "t_uint24"
          },
          {
            "astId": 8468,
            "contract": "contracts/TradingPlatform.sol:TradingPlatform",
            "label": "baseAmount",
            "offset": 0,
            "slot": "3",
            "type": "t_uint128"
          },
          {
            "astId": 8470,
            "contract": "contracts/TradingPlatform.sol:TradingPlatform",
            "label": "aimTargetTokenAmount",
            "offset": 16,
            "slot": "3",
            "type": "t_uint128"
          },
          {
            "astId": 8472,
            "contract": "contracts/TradingPlatform.sol:TradingPlatform",
            "label": "minTargetTokenAmount",
            "offset": 0,
            "slot": "4",
            "type": "t_uint128"
          },
          {
            "astId": 8474,
            "contract": "contracts/TradingPlatform.sol:TradingPlatform",
            "label": "expiration",
            "offset": 0,
            "slot": "5",
            "type": "t_uint256"
          },
          {
            "astId": 8476,
            "contract": "contracts/TradingPlatform.sol:TradingPlatform",
            "label": "boundOrder",
            "offset": 0,
            "slot": "6",
            "type": "t_uint256"
          },
          {
            "astId": 8479,
            "contract": "contracts/TradingPlatform.sol:TradingPlatform",
            "label": "action",
            "offset": 0,
            "slot": "7",
            "type": "t_enum(Action)8511"
          },
          {
            "astId": 8481,
            "contract": "contracts/TradingPlatform.sol:TradingPlatform",
            "label": "data",
            "offset": 0,
            "slot": "8",
            "type": "t_bytes_storage"
          }
        ],
        "numberOfBytes": "288"
      },
      "t_struct(RoleData)376_storage": {
        "encoding": "inplace",
        "label": "struct AccessControl.RoleData",
        "members": [
          {
            "astId": 373,
            "contract": "contracts/TradingPlatform.sol:TradingPlatform",
            "label": "members",
            "offset": 0,
            "slot": "0",
            "type": "t_mapping(t_address,t_bool)"
          },
          {
            "astId": 375,
            "contract": "contracts/TradingPlatform.sol:TradingPlatform",
            "label": "adminRole",
            "offset": 0,
            "slot": "1",
            "type": "t_bytes32"
          }
        ],
        "numberOfBytes": "64"
      },
      "t_struct(Set)3735_storage": {
        "encoding": "inplace",
        "label": "struct EnumerableSet.Set",
        "members": [
          {
            "astId": 3730,
            "contract": "contracts/TradingPlatform.sol:TradingPlatform",
            "label": "_values",
            "offset": 0,
            "slot": "0",
            "type": "t_array(t_bytes32)dyn_storage"
          },
          {
            "astId": 3734,
            "contract": "contracts/TradingPlatform.sol:TradingPlatform",
            "label": "_indexes",
            "offset": 0,
            "slot": "1",
            "type": "t_mapping(t_bytes32,t_uint256)"
          }
        ],
        "numberOfBytes": "64"
      },
      "t_struct(UintSet)4207_storage": {
        "encoding": "inplace",
        "label": "struct EnumerableSet.UintSet",
        "members": [
          {
            "astId": 4206,
            "contract": "contracts/TradingPlatform.sol:TradingPlatform",
            "label": "_inner",
            "offset": 0,
            "slot": "0",
            "type": "t_struct(Set)3735_storage"
          }
        ],
        "numberOfBytes": "64"
      },
      "t_uint128": {
        "encoding": "inplace",
        "label": "uint128",
        "numberOfBytes": "16"
      },
      "t_uint24": {
        "encoding": "inplace",
        "label": "uint24",
        "numberOfBytes": "3"
      },
      "t_uint256": {
        "encoding": "inplace",
        "label": "uint256",
        "numberOfBytes": "32"
      },
      "t_uint32": {
        "encoding": "inplace",
        "label": "uint32",
        "numberOfBytes": "4"
      }
    }
  }
}