{
  "address": "0x230396548e7C03FebA72799c6b1ca0d4032a6DA2",
  "abi": [
    {
      "inputs": [
        {
          "internalType": "contract LinkTokenInterface",
          "name": "link",
          "type": "address"
        },
        {
          "internalType": "contract KeeperRegistrarInterface",
          "name": "registrar",
          "type": "address"
        },
        {
          "internalType": "contract AutomationRegistryWithMinANeededAmountInterface",
          "name": "registry",
          "type": "address"
        }
      ],
      "stateMutability": "nonpayable",
      "type": "constructor"
    },
    {
      "anonymous": false,
      "inputs": [
        {
          "indexed": true,
          "internalType": "uint256",
          "name": "id",
          "type": "uint256"
        },
        {
          "indexed": false,
          "internalType": "uint96",
          "name": "amount",
          "type": "uint96"
        }
      ],
      "name": "FundsAdded",
      "type": "event"
    },
    {
      "anonymous": false,
      "inputs": [
        {
          "indexed": true,
          "internalType": "uint256",
          "name": "id",
          "type": "uint256"
        }
      ],
      "name": "UpkeepCanceled",
      "type": "event"
    },
    {
      "anonymous": false,
      "inputs": [
        {
          "indexed": true,
          "internalType": "uint256",
          "name": "id",
          "type": "uint256"
        }
      ],
      "name": "UpkeepCreated",
      "type": "event"
    },
    {
      "anonymous": false,
      "inputs": [
        {
          "indexed": true,
          "internalType": "uint256",
          "name": "id",
          "type": "uint256"
        },
        {
          "indexed": false,
          "internalType": "uint32",
          "name": "amount",
          "type": "uint32"
        }
      ],
      "name": "UpkeepGasLimitSet",
      "type": "event"
    },
    {
      "anonymous": false,
      "inputs": [
        {
          "indexed": true,
          "internalType": "uint256",
          "name": "id",
          "type": "uint256"
        },
        {
          "indexed": false,
          "internalType": "bytes",
          "name": "config",
          "type": "bytes"
        }
      ],
      "name": "UpkeepOffchainConfigSet",
      "type": "event"
    },
    {
      "anonymous": false,
      "inputs": [
        {
          "indexed": true,
          "internalType": "uint256",
          "name": "id",
          "type": "uint256"
        }
      ],
      "name": "UpkeepPaused",
      "type": "event"
    },
    {
      "anonymous": false,
      "inputs": [
        {
          "indexed": true,
          "internalType": "uint256",
          "name": "id",
          "type": "uint256"
        }
      ],
      "name": "UpkeepUnpaused",
      "type": "event"
    },
    {
      "anonymous": false,
      "inputs": [
        {
          "indexed": true,
          "internalType": "uint256",
          "name": "id",
          "type": "uint256"
        },
        {
          "indexed": false,
          "internalType": "bytes",
          "name": "newCheckData",
          "type": "bytes"
        }
      ],
      "name": "UpkeepUpdated",
      "type": "event"
    },
    {
      "inputs": [
        {
          "internalType": "uint256",
          "name": "upkeepId",
          "type": "uint256"
        },
        {
          "internalType": "uint96",
          "name": "amount",
          "type": "uint96"
        }
      ],
      "name": "addFunds",
      "outputs": [],
      "stateMutability": "nonpayable",
      "type": "function"
    },
    {
      "inputs": [
        {
          "internalType": "uint256",
          "name": "upkeepId",
          "type": "uint256"
        }
      ],
      "name": "cancelUpkeep",
      "outputs": [],
      "stateMutability": "nonpayable",
      "type": "function"
    },
    {
      "inputs": [
        {
          "internalType": "uint256",
          "name": "upkeepId",
          "type": "uint256"
        }
      ],
      "name": "checkUpkeep",
      "outputs": [
        {
          "internalType": "bool",
          "name": "upkeepNeeded",
          "type": "bool"
        },
        {
          "internalType": "bytes",
          "name": "performData",
          "type": "bytes"
        },
        {
          "internalType": "enum UpkeepFailureReason",
          "name": "upkeepFailureReason",
          "type": "uint8"
        },
        {
          "internalType": "uint256",
          "name": "gasUsed",
          "type": "uint256"
        },
        {
          "internalType": "uint256",
          "name": "fastGasWei",
          "type": "uint256"
        },
        {
          "internalType": "uint256",
          "name": "linkNative",
          "type": "uint256"
        }
      ],
      "stateMutability": "nonpayable",
      "type": "function"
    },
    {
      "inputs": [
        {
          "internalType": "uint256",
          "name": "offset",
          "type": "uint256"
        },
        {
          "internalType": "uint256",
          "name": "limit",
          "type": "uint256"
        }
      ],
      "name": "getActiveUpkeepIDs",
      "outputs": [
        {
          "internalType": "uint256[]",
          "name": "upkeeps",
          "type": "uint256[]"
        }
      ],
      "stateMutability": "view",
      "type": "function"
    },
    {
      "inputs": [
        {
          "internalType": "uint256",
          "name": "offset",
          "type": "uint256"
        },
        {
          "internalType": "uint256",
          "name": "limit",
          "type": "uint256"
        }
      ],
      "name": "getDetailedUpkeeps",
      "outputs": [
        {
          "components": [
            {
              "internalType": "uint256",
              "name": "id",
              "type": "uint256"
            },
            {
              "internalType": "uint96",
              "name": "minAmount",
              "type": "uint96"
            },
            {
              "components": [
                {
                  "internalType": "address",
                  "name": "target",
                  "type": "address"
                },
                {
                  "internalType": "uint32",
                  "name": "executeGas",
                  "type": "uint32"
                },
                {
                  "internalType": "bytes",
                  "name": "checkData",
                  "type": "bytes"
                },
                {
                  "internalType": "uint96",
                  "name": "balance",
                  "type": "uint96"
                },
                {
                  "internalType": "address",
                  "name": "admin",
                  "type": "address"
                },
                {
                  "internalType": "uint64",
                  "name": "maxValidBlocknumber",
                  "type": "uint64"
                },
                {
                  "internalType": "uint32",
                  "name": "lastPerformBlockNumber",
                  "type": "uint32"
                },
                {
                  "internalType": "uint96",
                  "name": "amountSpent",
                  "type": "uint96"
                },
                {
                  "internalType": "bool",
                  "name": "paused",
                  "type": "bool"
                },
                {
                  "internalType": "bytes",
                  "name": "offchainConfig",
                  "type": "bytes"
                }
              ],
              "internalType": "struct UpkeepInfo",
              "name": "info",
              "type": "tuple"
            }
          ],
          "internalType": "struct UpkeepControllerInterface.DetailedUpkeep[]",
          "name": "",
          "type": "tuple[]"
        }
      ],
      "stateMutability": "view",
      "type": "function"
    },
    {
      "inputs": [
        {
          "internalType": "uint256",
          "name": "upkeepId",
          "type": "uint256"
        }
      ],
      "name": "getMinBalanceForUpkeep",
      "outputs": [
        {
          "internalType": "uint96",
          "name": "",
          "type": "uint96"
        }
      ],
      "stateMutability": "view",
      "type": "function"
    },
    {
      "inputs": [
        {
          "internalType": "uint256",
          "name": "offset",
          "type": "uint256"
        },
        {
          "internalType": "uint256",
          "name": "limit",
          "type": "uint256"
        }
      ],
      "name": "getMinBalancesForUpkeeps",
      "outputs": [
        {
          "internalType": "uint96[]",
          "name": "",
          "type": "uint96[]"
        }
      ],
      "stateMutability": "view",
      "type": "function"
    },
    {
      "inputs": [],
      "name": "getState",
      "outputs": [
        {
          "components": [
            {
              "internalType": "uint32",
              "name": "nonce",
              "type": "uint32"
            },
            {
              "internalType": "uint96",
              "name": "ownerLinkBalance",
              "type": "uint96"
            },
            {
              "internalType": "uint256",
              "name": "expectedLinkBalance",
              "type": "uint256"
            },
            {
              "internalType": "uint96",
              "name": "totalPremium",
              "type": "uint96"
            },
            {
              "internalType": "uint256",
              "name": "numUpkeeps",
              "type": "uint256"
            },
            {
              "internalType": "uint32",
              "name": "configCount",
              "type": "uint32"
            },
            {
              "internalType": "uint32",
              "name": "latestConfigBlockNumber",
              "type": "uint32"
            },
            {
              "internalType": "bytes32",
              "name": "latestConfigDigest",
              "type": "bytes32"
            },
            {
              "internalType": "uint32",
              "name": "latestEpoch",
              "type": "uint32"
            },
            {
              "internalType": "bool",
              "name": "paused",
              "type": "bool"
            }
          ],
          "internalType": "struct State",
          "name": "state",
          "type": "tuple"
        },
        {
          "components": [
            {
              "internalType": "uint32",
              "name": "paymentPremiumPPB",
              "type": "uint32"
            },
            {
              "internalType": "uint32",
              "name": "flatFeeMicroLink",
              "type": "uint32"
            },
            {
              "internalType": "uint32",
              "name": "checkGasLimit",
              "type": "uint32"
            },
            {
              "internalType": "uint24",
              "name": "stalenessSeconds",
              "type": "uint24"
            },
            {
              "internalType": "uint16",
              "name": "gasCeilingMultiplier",
              "type": "uint16"
            },
            {
              "internalType": "uint96",
              "name": "minUpkeepSpend",
              "type": "uint96"
            },
            {
              "internalType": "uint32",
              "name": "maxPerformGas",
              "type": "uint32"
            },
            {
              "internalType": "uint32",
              "name": "maxCheckDataSize",
              "type": "uint32"
            },
            {
              "internalType": "uint32",
              "name": "maxPerformDataSize",
              "type": "uint32"
            },
            {
              "internalType": "uint256",
              "name": "fallbackGasPrice",
              "type": "uint256"
            },
            {
              "internalType": "uint256",
              "name": "fallbackLinkPrice",
              "type": "uint256"
            },
            {
              "internalType": "address",
              "name": "transcoder",
              "type": "address"
            },
            {
              "internalType": "address",
              "name": "registrar",
              "type": "address"
            }
          ],
          "internalType": "struct OnchainConfig",
          "name": "config",
          "type": "tuple"
        },
        {
          "internalType": "address[]",
          "name": "signers",
          "type": "address[]"
        },
        {
          "internalType": "address[]",
          "name": "transmitters",
          "type": "address[]"
        },
        {
          "internalType": "uint8",
          "name": "f",
          "type": "uint8"
        }
      ],
      "stateMutability": "view",
      "type": "function"
    },
    {
      "inputs": [
        {
          "internalType": "uint256",
          "name": "upkeepId",
          "type": "uint256"
        }
      ],
      "name": "getUpkeep",
      "outputs": [
        {
          "components": [
            {
              "internalType": "address",
              "name": "target",
              "type": "address"
            },
            {
              "internalType": "uint32",
              "name": "executeGas",
              "type": "uint32"
            },
            {
              "internalType": "bytes",
              "name": "checkData",
              "type": "bytes"
            },
            {
              "internalType": "uint96",
              "name": "balance",
              "type": "uint96"
            },
            {
              "internalType": "address",
              "name": "admin",
              "type": "address"
            },
            {
              "internalType": "uint64",
              "name": "maxValidBlocknumber",
              "type": "uint64"
            },
            {
              "internalType": "uint32",
              "name": "lastPerformBlockNumber",
              "type": "uint32"
            },
            {
              "internalType": "uint96",
              "name": "amountSpent",
              "type": "uint96"
            },
            {
              "internalType": "bool",
              "name": "paused",
              "type": "bool"
            },
            {
              "internalType": "bytes",
              "name": "offchainConfig",
              "type": "bytes"
            }
          ],
          "internalType": "struct UpkeepInfo",
          "name": "upkeepInfo",
          "type": "tuple"
        }
      ],
      "stateMutability": "view",
      "type": "function"
    },
    {
      "inputs": [
        {
          "internalType": "uint256",
          "name": "offset",
          "type": "uint256"
        },
        {
          "internalType": "uint256",
          "name": "limit",
          "type": "uint256"
        }
      ],
      "name": "getUpkeeps",
      "outputs": [
        {
          "components": [
            {
              "internalType": "address",
              "name": "target",
              "type": "address"
            },
            {
              "internalType": "uint32",
              "name": "executeGas",
              "type": "uint32"
            },
            {
              "internalType": "bytes",
              "name": "checkData",
              "type": "bytes"
            },
            {
              "internalType": "uint96",
              "name": "balance",
              "type": "uint96"
            },
            {
              "internalType": "address",
              "name": "admin",
              "type": "address"
            },
            {
              "internalType": "uint64",
              "name": "maxValidBlocknumber",
              "type": "uint64"
            },
            {
              "internalType": "uint32",
              "name": "lastPerformBlockNumber",
              "type": "uint32"
            },
            {
              "internalType": "uint96",
              "name": "amountSpent",
              "type": "uint96"
            },
            {
              "internalType": "bool",
              "name": "paused",
              "type": "bool"
            },
            {
              "internalType": "bytes",
              "name": "offchainConfig",
              "type": "bytes"
            }
          ],
          "internalType": "struct UpkeepInfo[]",
          "name": "",
          "type": "tuple[]"
        }
      ],
      "stateMutability": "view",
      "type": "function"
    },
    {
      "inputs": [],
      "name": "getUpkeepsCount",
      "outputs": [
        {
          "internalType": "uint256",
          "name": "",
          "type": "uint256"
        }
      ],
      "stateMutability": "view",
      "type": "function"
    },
    {
      "inputs": [],
      "name": "i_link",
      "outputs": [
        {
          "internalType": "contract LinkTokenInterface",
          "name": "",
          "type": "address"
        }
      ],
      "stateMutability": "view",
      "type": "function"
    },
    {
      "inputs": [],
      "name": "i_registrar",
      "outputs": [
        {
          "internalType": "contract KeeperRegistrarInterface",
          "name": "",
          "type": "address"
        }
      ],
      "stateMutability": "view",
      "type": "function"
    },
    {
      "inputs": [],
      "name": "i_registry",
      "outputs": [
        {
          "internalType": "contract AutomationRegistryWithMinANeededAmountInterface",
          "name": "",
          "type": "address"
        }
      ],
      "stateMutability": "view",
      "type": "function"
    },
    {
      "inputs": [],
      "name": "isNewUpkeepNeeded",
      "outputs": [
        {
          "internalType": "bool",
          "name": "isNeeded",
          "type": "bool"
        },
        {
          "internalType": "uint256",
          "name": "newOffset",
          "type": "uint256"
        },
        {
          "internalType": "uint256",
          "name": "newLimit",
          "type": "uint256"
        }
      ],
      "stateMutability": "view",
      "type": "function"
    },
    {
      "inputs": [
        {
          "internalType": "uint256",
          "name": "upkeepId",
          "type": "uint256"
        }
      ],
      "name": "pauseUpkeep",
      "outputs": [],
      "stateMutability": "nonpayable",
      "type": "function"
    },
    {
      "inputs": [
        {
          "components": [
            {
              "internalType": "string",
              "name": "name",
              "type": "string"
            },
            {
              "internalType": "bytes",
              "name": "encryptedEmail",
              "type": "bytes"
            },
            {
              "internalType": "address",
              "name": "upkeepContract",
              "type": "address"
            },
            {
              "internalType": "uint32",
              "name": "gasLimit",
              "type": "uint32"
            },
            {
              "internalType": "address",
              "name": "adminAddress",
              "type": "address"
            },
            {
              "internalType": "bytes",
              "name": "checkData",
              "type": "bytes"
            },
            {
              "internalType": "bytes",
              "name": "offchainConfig",
              "type": "bytes"
            },
            {
              "internalType": "uint96",
              "name": "amount",
              "type": "uint96"
            }
          ],
          "internalType": "struct KeeperRegistrarInterface.RegistrationParams",
          "name": "params",
          "type": "tuple"
        }
      ],
      "name": "registerAndPredictID",
      "outputs": [],
      "stateMutability": "nonpayable",
      "type": "function"
    },
    {
      "inputs": [
        {
          "internalType": "uint256",
          "name": "upkeepId",
          "type": "uint256"
        },
        {
          "internalType": "uint32",
          "name": "gasLimit",
          "type": "uint32"
        }
      ],
      "name": "setUpkeepGasLimit",
      "outputs": [],
      "stateMutability": "nonpayable",
      "type": "function"
    },
    {
      "inputs": [
        {
          "internalType": "uint256",
          "name": "upkeepId",
          "type": "uint256"
        },
        {
          "internalType": "bytes",
          "name": "config",
          "type": "bytes"
        }
      ],
      "name": "setUpkeepOffchainConfig",
      "outputs": [],
      "stateMutability": "nonpayable",
      "type": "function"
    },
    {
      "inputs": [
        {
          "internalType": "uint256",
          "name": "upkeepId",
          "type": "uint256"
        }
      ],
      "name": "unpauseUpkeep",
      "outputs": [],
      "stateMutability": "nonpayable",
      "type": "function"
    },
    {
      "inputs": [
        {
          "internalType": "uint256",
          "name": "upkeepId",
          "type": "uint256"
        },
        {
          "internalType": "bytes",
          "name": "newCheckData",
          "type": "bytes"
        }
      ],
      "name": "updateCheckData",
      "outputs": [],
      "stateMutability": "nonpayable",
      "type": "function"
    }
  ],
  "transactionHash": "0x06904b2799b19573761e5cca7229991bffbafdf4bd9ef5122a1844203c94680a",
  "args": [
    "0x326C977E6efc84E512bB9C30f76E30c160eD06FB",
    "0x57A4a13b35d25EE78e084168aBaC5ad360252467",
    "0xE16Df59B887e3Caa439E0b29B42bA2e7976FD8b2"
  ],
  "numDeployments": 2,
  "solcInputHash": "79079278460465399d4985e10ac8437f",
  "bytecode": "0x60e06040523480156200001157600080fd5b5060405162002eb438038062002eb483398101604081905262000034916200006b565b6001600160a01b0392831660805290821660a0521660c052620000bf565b6001600160a01b03811681146200006857600080fd5b50565b6000806000606084860312156200008157600080fd5b83516200008e8162000052565b6020850151909350620000a18162000052565b6040850151909250620000b48162000052565b809150509250925092565b60805160a05160c051612d3262000182600039600081816101830152818161055e01528181610641015281816107f80152818161092001528181610a4001528181610b3101528181610cb901528181610d8301528181610e6801528181610f4a01528181610fff01528181611232015281816112e601528181611433015261153d0152600081816101e7015281816116a6015261176801526000818161022301528181610c2c01528181610cf00152818161161401526116de0152612d326000f3fe608060405234801561001057600080fd5b50600436106101375760003560e01c8063948108f7116100b8578063c7c3a19a1161007c578063c7c3a19a1461030f578063c80480221461032f578063dbe5dcdf14610342578063e357cd0714610362578063f7d334ba14610378578063fd111cca1461039d57600080fd5b8063948108f71461028b5780639fab43861461029e578063a72aa27e146102b1578063b657bc9c146102c4578063c43322bb146102ef57600080fd5b80635165f2f5116100ff5780635165f2f5146102095780637d253aff1461021e5780637f25c83d146102455780638765ecbe146102655780638dcf0fe71461027857600080fd5b806306e3b6321461013c5780631865c57d146101655780632a6636061461017e57806337d10eac146101bd578063442b1278146101e2575b600080fd5b61014f61014a366004611a93565b6103b0565b60405161015c9190611ab5565b60405180910390f35b61016d61049d565b60405161015c959493929190611c4c565b6101a57f000000000000000000000000000000000000000000000000000000000000000081565b6040516001600160a01b03909116815260200161015c565b6101c56105f3565b60408051931515845260208401929092529082015260600161015c565b6101a57f000000000000000000000000000000000000000000000000000000000000000081565b61021c610217366004611d59565b6107b2565b005b6101a57f000000000000000000000000000000000000000000000000000000000000000081565b610258610253366004611a93565b6108ab565b60405161015c9190611eb7565b61021c610273366004611d59565b610a03565b61021c610286366004611f19565b610af3565b61021c610299366004611fbc565b610bdb565b61021c6102ac36600461211e565b610e2a565b61021c6102bf366004612181565b610f01565b6102d76102d2366004611d59565b610fe6565b6040516001600160601b03909116815260200161015c565b6103026102fd366004611a93565b611072565b60405161015c91906121a6565b61032261031d366004611d59565b611214565b60405161015c919061222e565b61021c61033d366004611d59565b6112a9565b610355610350366004611a93565b61138d565b60405161015c9190612241565b61036a611520565b60405190815260200161015c565b61038b610386366004611d59565b611531565b60405161015c96959493929190612282565b61021c6103ab366004612300565b6115e4565b606060006103be6000611863565b90508084106103dd575050604080516000815260208101909152610497565b60006103e98486612433565b9050808210156103f65750805b610400858261244b565b6001600160401b0381111561041757610417611fec565b604051908082528060200260200182016040528015610440578160200160208202803683370190505b50925060005b83518110156104935761046461045c8288612433565b60009061186d565b84828151811061047657610476612462565b60209081029190910101528061048b81612478565b915050610446565b5050505b92915050565b6040805161014081018252600080825260208201819052918101829052606081018290526080810182905260a0810182905260c0810182905260e081018290526101008101829052610120810191909152604080516101a081018252600080825260208201819052918101829052606081018290526080810182905260a0810182905260c0810182905260e08101829052610100810182905261012081018290526101408101829052610160810182905261018081019190915260608060007f00000000000000000000000000000000000000000000000000000000000000006001600160a01b0316631865c57d6040518163ffffffff1660e01b8152600401600060405180830381865afa1580156105ba573d6000803e3d6000fd5b505050506040513d6000823e601f3d908101601f191682016040526105e29190810190612672565b945094509450945094509091929394565b60008060008060016106056000611863565b61060f919061244b565b9050600061061d818361186d565b6040516363e1d0cd60e11b8152600481018290529091506000906001600160a01b037f0000000000000000000000000000000000000000000000000000000000000000169063c7c3a19a90602401600060405180830381865afa158015610688573d6000803e3d6000fd5b505050506040513d6000823e601f3d908101601f191682016040526106b09190810190612816565b905060008082604001518060200190518101906106cd919061294b565b91509150600083600001516001600160a01b0316636e04ff0d85604001516040518263ffffffff1660e01b8152600401610707919061297e565b600060405180830381865afa158015610724573d6000803e3d6000fd5b505050506040513d6000823e601f3d908101601f1916820160405261074c9190810190612991565b91505060008180602001905181019061076591906129d4565b9050826001600160801b031681511015610780576000610783565b60015b995061078f8385612a64565b6001600160801b03169850826001600160801b0316975050505050505050909192565b6107bd600082611880565b6107e25760405162461bcd60e51b81526004016107d990612a8f565b60405180910390fd5b604051635165f2f560e01b8152600481018290527f00000000000000000000000000000000000000000000000000000000000000006001600160a01b031690635165f2f590602401600060405180830381600087803b15801561084457600080fd5b505af1158015610858573d6000803e3d6000fd5b5050505061087081600261189890919063ffffffff16565b5061087c6000826118a4565b5060405181907f7bada562044eb163f6b4003c4553e4e62825344c0418eea087bed5ee05a4745690600090a250565b606060006108b984846103b0565b9050600081516001600160401b038111156108d6576108d6611fec565b60405190808252806020026020018201604052801561090f57816020015b6108fc611a1c565b8152602001906001900390816108f45790505b50905060005b81518110156109fa577f00000000000000000000000000000000000000000000000000000000000000006001600160a01b031663c7c3a19a84838151811061095f5761095f612462565b60200260200101516040518263ffffffff1660e01b815260040161098591815260200190565b600060405180830381865afa1580156109a2573d6000803e3d6000fd5b505050506040513d6000823e601f3d908101601f191682016040526109ca9190810190612816565b8282815181106109dc576109dc612462565b602002602001018190525080806109f290612478565b915050610915565b50949350505050565b610a0e600082611880565b610a2a5760405162461bcd60e51b81526004016107d990612a8f565b6040516343b2f65f60e11b8152600481018290527f00000000000000000000000000000000000000000000000000000000000000006001600160a01b031690638765ecbe90602401600060405180830381600087803b158015610a8c57600080fd5b505af1158015610aa0573d6000803e3d6000fd5b50505050610ab88160026118a490919063ffffffff16565b50610ac4600082611898565b5060405181907f8ab10247ce168c27748e656ecf852b951fcaac790c18106b19aa0ae57a8b741f90600090a250565b610afe600084611880565b610b1a5760405162461bcd60e51b81526004016107d990612a8f565b604051638dcf0fe760e01b81526001600160a01b037f00000000000000000000000000000000000000000000000000000000000000001690638dcf0fe790610b6a90869086908690600401612ae1565b600060405180830381600087803b158015610b8457600080fd5b505af1158015610b98573d6000803e3d6000fd5b50505050827f3e8740446213c8a77d40e08f79136ce3f347d13ed270a6ebdf57159e0faf48508383604051610bce929190612b04565b60405180910390a2505050565b610be6600083611880565b610c025760405162461bcd60e51b81526004016107d990612a8f565b6040516323b872dd60e01b81523360048201523060248201526001600160601b03821660448201527f00000000000000000000000000000000000000000000000000000000000000006001600160a01b0316906323b872dd906064016020604051808303816000875af1158015610c7d573d6000803e3d6000fd5b505050506040513d601f19601f82011682018060405250810190610ca19190612b18565b5060405163095ea7b360e01b81526001600160a01b037f0000000000000000000000000000000000000000000000000000000000000000811660048301526001600160601b03831660248301527f0000000000000000000000000000000000000000000000000000000000000000169063095ea7b3906044016020604051808303816000875af1158015610d39573d6000803e3d6000fd5b505050506040513d601f19601f82011682018060405250810190610d5d9190612b18565b5060405163948108f760e01b8152600481018390526001600160601b03821660248201527f00000000000000000000000000000000000000000000000000000000000000006001600160a01b03169063948108f790604401600060405180830381600087803b158015610dcf57600080fd5b505af1158015610de3573d6000803e3d6000fd5b50506040516001600160601b03841681528492507f8137dc366612bf502338bd8951f835ad8ceba421c4eb3d79c7f9b3ce0ac4762e91506020015b60405180910390a25050565b610e35600083611880565b610e515760405162461bcd60e51b81526004016107d990612a8f565b604051634fd5a1c360e11b81526001600160a01b037f00000000000000000000000000000000000000000000000000000000000000001690639fab438690610e9f9085908590600401612b33565b600060405180830381600087803b158015610eb957600080fd5b505af1158015610ecd573d6000803e3d6000fd5b50505050817f86aa972e9fc0c705fea6a70adc998117ea6a33853d380b06d3a4e777f4e5203a82604051610e1e919061297e565b610f0c600083611880565b610f285760405162461bcd60e51b81526004016107d990612a8f565b604051635395513f60e11b81526004810183905263ffffffff821660248201527f00000000000000000000000000000000000000000000000000000000000000006001600160a01b03169063a72aa27e90604401600060405180830381600087803b158015610f9657600080fd5b505af1158015610faa573d6000803e3d6000fd5b505060405163ffffffff841681528492507f6e922e3c48062403590addb8e090d556398efe9371d97f454fc4b10b562ae5909150602001610e1e565b604051632d95ef2760e21b8152600481018290526000907f00000000000000000000000000000000000000000000000000000000000000006001600160a01b03169063b657bc9c90602401602060405180830381865afa15801561104e573d6000803e3d6000fd5b505050506040513d601f19601f820116820180604052508101906104979190612b4c565b6060600061108084846103b0565b80519091508085106110c75760408051600080825260208201909252906110bd565b6110aa611a6f565b8152602001906001900390816110a25790505b5092505050610497565b60006110d38587612433565b9050808210156110e05750805b60006110ec878361244b565b6001600160401b0381111561110357611103611fec565b60405190808252806020026020018201604052801561113c57816020015b611129611a6f565b8152602001906001900390816111215790505b509050600061114b88886108ab565b90506000611159898961138d565b905060005b835181101561120657604051806060016040528088838151811061118457611184612462565b602002602001015181526020018383815181106111a3576111a3612462565b60200260200101516001600160601b031681526020018483815181106111cb576111cb612462565b60200260200101518152508482815181106111e8576111e8612462565b602002602001018190525080806111fe90612478565b91505061115e565b509198975050505050505050565b61121c611a1c565b6040516363e1d0cd60e11b8152600481018390527f00000000000000000000000000000000000000000000000000000000000000006001600160a01b03169063c7c3a19a90602401600060405180830381865afa158015611281573d6000803e3d6000fd5b505050506040513d6000823e601f3d908101601f191682016040526104979190810190612816565b6112b4600082611880565b6112d05760405162461bcd60e51b81526004016107d990612a8f565b604051636402401160e11b8152600481018290527f00000000000000000000000000000000000000000000000000000000000000006001600160a01b03169063c804802290602401600060405180830381600087803b15801561133257600080fd5b505af1158015611346573d6000803e3d6000fd5b5050505061135e81600061189890919063ffffffff16565b5060405181907fa08e5e152c9438f8441ddfe294ad3b09457b826764a94e320a40b228cf2d410a90600090a250565b6060600061139b84846103b0565b80519091508085106113bd5760408051600080825260208201909252906110bd565b60006113c98587612433565b9050808210156113d65750805b60006113e2878361244b565b6001600160401b038111156113f9576113f9611fec565b604051908082528060200260200182016040528015611422578160200160208202803683370190505b50905060005b8151811015611515577f00000000000000000000000000000000000000000000000000000000000000006001600160a01b031663b657bc9c86838151811061147257611472612462565b60200260200101516040518263ffffffff1660e01b815260040161149891815260200190565b602060405180830381865afa1580156114b5573d6000803e3d6000fd5b505050506040513d601f19601f820116820180604052508101906114d99190612b4c565b8282815181106114eb576114eb612462565b6001600160601b03909216602092830291909101909101528061150d81612478565b915050611428565b509695505050505050565b600061152c6000611863565b905090565b600060606000806000807f00000000000000000000000000000000000000000000000000000000000000006001600160a01b031663f7d334ba886040518263ffffffff1660e01b815260040161158991815260200190565b6000604051808303816000875af11580156115a8573d6000803e3d6000fd5b505050506040513d6000823e601f3d908101601f191682016040526115d09190810190612b69565b949c939b5091995097509550909350915050565b60e08101516040516323b872dd60e01b81523360048201523060248201526001600160601b0390911660448201527f00000000000000000000000000000000000000000000000000000000000000006001600160a01b0316906323b872dd906064016020604051808303816000875af1158015611665573d6000803e3d6000fd5b505050506040513d601f19601f820116820180604052508101906116899190612b18565b5060e081015160405163095ea7b360e01b81526001600160a01b037f0000000000000000000000000000000000000000000000000000000000000000811660048301526001600160601b0390921660248201527f00000000000000000000000000000000000000000000000000000000000000009091169063095ea7b3906044016020604051808303816000875af1158015611729573d6000803e3d6000fd5b505050506040513d601f19601f8201168201806040525081019061174d9190612b18565b5060405163022de76960e21b81526000906001600160a01b037f000000000000000000000000000000000000000000000000000000000000000016906308b79da49061179d908590600401612bea565b6020604051808303816000875af11580156117bc573d6000803e3d6000fd5b505050506040513d601f19601f820116820180604052508101906117e09190612ccd565b90508015611823576117f36000826118a4565b5060405181907f73827404e930da1450aa92d0348dd0939840f4850415c6b42a1bcf9de4162d7b90600090a25050565b60405162461bcd60e51b8152602060048201526015602482015274185d5d1bcb585c1c1c9bdd9948191a5cd8589b1959605a1b60448201526064016107d9565b6000610497825490565b600061187983836118b0565b9392505050565b60008181526001830160205260408120541515611879565b600061187983836118da565b600061187983836119cd565b60008260000182815481106118c7576118c7612462565b9060005260206000200154905092915050565b600081815260018301602052604081205480156119c35760006118fe60018361244b565b85549091506000906119129060019061244b565b905081811461197757600086600001828154811061193257611932612462565b906000526020600020015490508087600001848154811061195557611955612462565b6000918252602080832090910192909255918252600188019052604090208390555b855486908061198857611988612ce6565b600190038181906000526020600020016000905590558560010160008681526020019081526020016000206000905560019350505050610497565b6000915050610497565b6000818152600183016020526040812054611a1457508154600181810184556000848152602080822090930184905584548482528286019093526040902091909155610497565b506000610497565b604080516101408101825260008082526020820181905260609282018390528282018190526080820181905260a0820181905260c0820181905260e0820181905261010082015261012081019190915290565b6040805160608101825260008082526020820152908101611a8e611a1c565b905290565b60008060408385031215611aa657600080fd5b50508035926020909101359150565b6020808252825182820181905260009190848201906040850190845b81811015611aed57835183529284019291840191600101611ad1565b50909695505050505050565b805163ffffffff1682526020810151611b1a602084018263ffffffff169052565b506040810151611b32604084018263ffffffff169052565b506060810151611b49606084018262ffffff169052565b506080810151611b5f608084018261ffff169052565b5060a0810151611b7a60a08401826001600160601b03169052565b5060c0810151611b9260c084018263ffffffff169052565b5060e0810151611baa60e084018263ffffffff169052565b506101008181015163ffffffff811684830152505061012081810151908301526101408082015190830152610160808201516001600160a01b038116828501525050610180818101516001600160a01b038116848301525b50505050565b600081518084526020808501945080840160005b83811015611c415781516001600160a01b031687529582019590820190600101611c1c565b509495945050505050565b855163ffffffff16815260006103406020880151611c7560208501826001600160601b03169052565b50604088015160408401526060880151611c9a60608501826001600160601b03169052565b506080880151608084015260a0880151611cbc60a085018263ffffffff169052565b5060c0880151611cd460c085018263ffffffff169052565b5060e088015160e084015261010080890151611cf78286018263ffffffff169052565b505061012088810151151590840152611d14610140840188611af9565b806102e0840152611d2781840187611c08565b9050828103610300840152611d3c8186611c08565b915050611d4f61032083018460ff169052565b9695505050505050565b600060208284031215611d6b57600080fd5b5035919050565b60005b83811015611d8d578181015183820152602001611d75565b83811115611c025750506000910152565b60008151808452611db6816020860160208601611d72565b601f01601f19169290920160200192915050565b80516001600160a01b0316825260006101406020830151611df3602086018263ffffffff169052565b506040830151816040860152611e0b82860182611d9e565b9150506060830151611e2860608601826001600160601b03169052565b506080830151611e4360808601826001600160a01b03169052565b5060a0830151611e5e60a08601826001600160401b03169052565b5060c0830151611e7660c086018263ffffffff169052565b5060e0830151611e9160e08601826001600160601b03169052565b50610100838101511515908501526101208084015185830382870152611d4f8382611d9e565b6000602080830181845280855180835260408601915060408160051b870101925083870160005b82811015611f0c57603f19888603018452611efa858351611dca565b94509285019290850190600101611ede565b5092979650505050505050565b600080600060408486031215611f2e57600080fd5b8335925060208401356001600160401b0380821115611f4c57600080fd5b818601915086601f830112611f6057600080fd5b813581811115611f6f57600080fd5b876020828501011115611f8157600080fd5b6020830194508093505050509250925092565b6001600160601b0381168114611fa957600080fd5b50565b8035611fb781611f94565b919050565b60008060408385031215611fcf57600080fd5b823591506020830135611fe181611f94565b809150509250929050565b634e487b7160e01b600052604160045260246000fd5b60405161010081016001600160401b038111828210171561202557612025611fec565b60405290565b6040516101a081016001600160401b038111828210171561202557612025611fec565b60405161014081016001600160401b038111828210171561202557612025611fec565b604051601f8201601f191681016001600160401b038111828210171561209957612099611fec565b604052919050565b60006001600160401b038211156120ba576120ba611fec565b50601f01601f191660200190565b600082601f8301126120d957600080fd5b81356120ec6120e7826120a1565b612071565b81815284602083860101111561210157600080fd5b816020850160208301376000918101602001919091529392505050565b6000806040838503121561213157600080fd5b8235915060208301356001600160401b0381111561214e57600080fd5b61215a858286016120c8565b9150509250929050565b63ffffffff81168114611fa957600080fd5b8035611fb781612164565b6000806040838503121561219457600080fd5b823591506020830135611fe181612164565b60006020808301818452808551808352604092508286019150828160051b87010184880160005b8381101561222057888303603f19018552815180518452878101516001600160601b031688850152860151606087850181905261220c81860183611dca565b9689019694505050908601906001016121cd565b509098975050505050505050565b6020815260006118796020830184611dca565b6020808252825182820181905260009190848201906040850190845b81811015611aed5783516001600160601b03168352928401929184019160010161225d565b861515815260c06020820152600061229d60c0830188611d9e565b9050600786106122bd57634e487b7160e01b600052602160045260246000fd5b8560408301528460608301528360808301528260a0830152979650505050505050565b6001600160a01b0381168114611fa957600080fd5b8035611fb7816122e0565b60006020828403121561231257600080fd5b81356001600160401b038082111561232957600080fd5b90830190610100828603121561233e57600080fd5b612346612002565b82358281111561235557600080fd5b612361878286016120c8565b82525060208301358281111561237657600080fd5b612382878286016120c8565b602083015250612394604084016122f5565b60408201526123a560608401612176565b60608201526123b6608084016122f5565b608082015260a0830135828111156123cd57600080fd5b6123d9878286016120c8565b60a08301525060c0830135828111156123f157600080fd5b6123fd878286016120c8565b60c08301525061240f60e08401611fac565b60e082015295945050505050565b634e487b7160e01b600052601160045260246000fd5b600082198211156124465761244661241d565b500190565b60008282101561245d5761245d61241d565b500390565b634e487b7160e01b600052603260045260246000fd5b600060001982141561248c5761248c61241d565b5060010190565b8051611fb781612164565b8051611fb781611f94565b80518015158114611fb757600080fd5b805162ffffff81168114611fb757600080fd5b805161ffff81168114611fb757600080fd5b8051611fb7816122e0565b60006101a082840312156124fc57600080fd5b61250461202b565b905061250f82612493565b815261251d60208301612493565b602082015261252e60408301612493565b604082015261253f606083016124b9565b6060820152612550608083016124cc565b608082015261256160a0830161249e565b60a082015261257260c08301612493565b60c082015261258360e08301612493565b60e0820152610100612596818401612493565b90820152610120828101519082015261014080830151908201526101606125be8184016124de565b908201526101806125d08382016124de565b9082015292915050565b60006001600160401b038211156125f3576125f3611fec565b5060051b60200190565b600082601f83011261260e57600080fd5b8151602061261e6120e7836125da565b82815260059290921b8401810191818101908684111561263d57600080fd5b8286015b84811015611515578051612654816122e0565b8352918301918301612641565b805160ff81168114611fb757600080fd5b600080600080600085870361034081121561268c57600080fd5b6101408082121561269c57600080fd5b6126a461204e565b91506126af88612493565b82526126bd6020890161249e565b6020830152604088015160408301526126d86060890161249e565b6060830152608088015160808301526126f360a08901612493565b60a083015261270460c08901612493565b60c083015260e088015160e0830152610100612721818a01612493565b908301526101206127338982016124a9565b818401525081965061274789828a016124e9565b955050506102e08601516001600160401b038082111561276657600080fd5b61277289838a016125fd565b945061030088015191508082111561278957600080fd5b50612796888289016125fd565b9250506127a66103208701612661565b90509295509295909350565b600082601f8301126127c357600080fd5b81516127d16120e7826120a1565b8181528460208386010111156127e657600080fd5b6127f7826020830160208701611d72565b949350505050565b80516001600160401b0381168114611fb757600080fd5b60006020828403121561282857600080fd5b81516001600160401b038082111561283f57600080fd5b90830190610140828603121561285457600080fd5b61285c61204e565b612865836124de565b815261287360208401612493565b602082015260408301518281111561288a57600080fd5b612896878286016127b2565b6040830152506128a86060840161249e565b60608201526128b9608084016124de565b60808201526128ca60a084016127ff565b60a08201526128db60c08401612493565b60c08201526128ec60e0840161249e565b60e08201526101006128ff8185016124a9565b90820152610120838101518381111561291757600080fd5b612923888287016127b2565b918301919091525095945050505050565b80516001600160801b0381168114611fb757600080fd5b6000806040838503121561295e57600080fd5b61296783612934565b915061297560208401612934565b90509250929050565b6020815260006118796020830184611d9e565b600080604083850312156129a457600080fd5b6129ad836124a9565b915060208301516001600160401b038111156129c857600080fd5b61215a858286016127b2565b600060208083850312156129e757600080fd5b82516001600160401b038111156129fd57600080fd5b8301601f81018513612a0e57600080fd5b8051612a1c6120e7826125da565b81815260059190911b82018301908381019087831115612a3b57600080fd5b928401925b82841015612a5957835182529284019290840190612a40565b979650505050505050565b60006001600160801b03808316818516808303821115612a8657612a8661241d565b01949350505050565b6020808252600f908201526e15dc9bdb99c81d5c1ad9595c081a59608a1b604082015260600190565b81835281816020850137506000828201602090810191909152601f909101601f19169091010190565b838152604060208201526000612afb604083018486612ab8565b95945050505050565b6020815260006127f7602083018486612ab8565b600060208284031215612b2a57600080fd5b611879826124a9565b8281526040602082015260006127f76040830184611d9e565b600060208284031215612b5e57600080fd5b815161187981611f94565b60008060008060008060c08789031215612b8257600080fd5b612b8b876124a9565b955060208701516001600160401b03811115612ba657600080fd5b612bb289828a016127b2565b955050604087015160078110612bc757600080fd5b80945050606087015192506080870151915060a087015190509295509295509295565b6020815260008251610100806020850152612c09610120850183611d9e565b91506020850151601f1980868503016040870152612c278483611d9e565b935060408701519150612c4560608701836001600160a01b03169052565b606087015163ffffffff81166080880152915060808701516001600160a01b03811660a0880152915060a08701519150808685030160c0870152612c898483611d9e565b935060c08701519150808685030160e087015250612ca78382611d9e565b92505060e0850151612cc3828601826001600160601b03169052565b5090949350505050565b600060208284031215612cdf57600080fd5b5051919050565b634e487b7160e01b600052603160045260246000fdfea26469706673582212207acfbc9b9bc5d65048397f7f43cb935bcf59243e68adb3c02b7a44756a1e725e64736f6c634300080c0033",
  "devdoc": {
    "details": "This contract implements the UpkeepControllerInterface and provides functionality to register, cancel, pause, and unpause upkeeps, as well as update their check data, gas limits, and off-chain configurations.",
    "kind": "dev",
    "methods": {
      "addFunds(uint256,uint96)": {
        "details": "See {UpkeepControllerInterface}"
      },
      "cancelUpkeep(uint256)": {
        "details": "See {UpkeepControllerInterface}"
      },
      "checkUpkeep(uint256)": {
        "details": "See {UpkeepControllerInterface}"
      },
      "constructor": {
        "params": {
          "link": "The address of the LinkToken contract.",
          "registrar": "The address of the KeeperRegistrar contract.",
          "registry": "The address of the AutomationRegistry contract."
        }
      },
      "getActiveUpkeepIDs(uint256,uint256)": {
        "details": "See {UpkeepControllerInterface}"
      },
      "getDetailedUpkeeps(uint256,uint256)": {
        "details": "See {UpkeepControllerInterface}"
      },
      "getMinBalanceForUpkeep(uint256)": {
        "details": "See {UpkeepControllerInterface}"
      },
      "getMinBalancesForUpkeeps(uint256,uint256)": {
        "details": "See {UpkeepControllerInterface}"
      },
      "getState()": {
        "details": "See {UpkeepControllerInterface}"
      },
      "getUpkeep(uint256)": {
        "details": "See {UpkeepControllerInterface}"
      },
      "getUpkeeps(uint256,uint256)": {
        "details": "See {UpkeepControllerInterface}"
      },
      "getUpkeepsCount()": {
        "details": "See {UpkeepControllerInterface}"
      },
      "isNewUpkeepNeeded()": {
        "details": "See {UpkeepControllerInterface}"
      },
      "pauseUpkeep(uint256)": {
        "details": "See {UpkeepControllerInterface}"
      },
      "registerAndPredictID((string,bytes,address,uint32,address,bytes,bytes,uint96))": {
        "details": "See {UpkeepControllerInterface}"
      },
      "setUpkeepGasLimit(uint256,uint32)": {
        "details": "See {UpkeepControllerInterface}"
      },
      "setUpkeepOffchainConfig(uint256,bytes)": {
        "details": "See {UpkeepControllerInterface}"
      },
      "unpauseUpkeep(uint256)": {
        "details": "See {UpkeepControllerInterface}"
      },
      "updateCheckData(uint256,bytes)": {
        "details": "See {UpkeepControllerInterface}"
      }
    },
    "title": "UpkeepController contract",
    "version": 1
  },
  "userdoc": {
    "events": {
      "FundsAdded(uint256,uint96)": {
        "notice": "Emitted when funds are added to an upkeep."
      },
      "UpkeepCanceled(uint256)": {
        "notice": "Emitted when an upkeep is canceled."
      },
      "UpkeepCreated(uint256)": {
        "notice": "Emitted when a new upkeep is created."
      },
      "UpkeepGasLimitSet(uint256,uint32)": {
        "notice": "Emitted when the gas limit is set for an upkeep."
      },
      "UpkeepOffchainConfigSet(uint256,bytes)": {
        "notice": "Emitted when the off-chain configuration is set for an upkeep."
      },
      "UpkeepPaused(uint256)": {
        "notice": "Emitted when an upkeep is paused."
      },
      "UpkeepUnpaused(uint256)": {
        "notice": "Emitted when an upkeep is unpaused."
      },
      "UpkeepUpdated(uint256,bytes)": {
        "notice": "Emitted when an upkeep is updated."
      }
    },
    "kind": "user",
    "methods": {
      "constructor": {
        "notice": "Constructs the UpkeepController contract."
      }
    },
    "notice": "A contract that manages upkeeps for the Chainlink automation system.",
    "version": 1
  },
  "storageLayout": {
    "storage": [
      {
        "astId": 7202,
        "contract": "contracts/automationController/UpkeepController.sol:UpkeepController",
        "label": "activeUpkeeps",
        "offset": 0,
        "slot": "0",
        "type": "t_struct(UintSet)4207_storage"
      },
      {
        "astId": 7205,
        "contract": "contracts/automationController/UpkeepController.sol:UpkeepController",
        "label": "pausedUpkeeps",
        "offset": 0,
        "slot": "2",
        "type": "t_struct(UintSet)4207_storage"
      }
    ],
    "types": {
      "t_array(t_bytes32)dyn_storage": {
        "base": "t_bytes32",
        "encoding": "dynamic_array",
        "label": "bytes32[]",
        "numberOfBytes": "32"
      },
      "t_bytes32": {
        "encoding": "inplace",
        "label": "bytes32",
        "numberOfBytes": "32"
      },
      "t_mapping(t_bytes32,t_uint256)": {
        "encoding": "mapping",
        "key": "t_bytes32",
        "label": "mapping(bytes32 => uint256)",
        "numberOfBytes": "32",
        "value": "t_uint256"
      },
      "t_struct(Set)3735_storage": {
        "encoding": "inplace",
        "label": "struct EnumerableSet.Set",
        "members": [
          {
            "astId": 3730,
            "contract": "contracts/automationController/UpkeepController.sol:UpkeepController",
            "label": "_values",
            "offset": 0,
            "slot": "0",
            "type": "t_array(t_bytes32)dyn_storage"
          },
          {
            "astId": 3734,
            "contract": "contracts/automationController/UpkeepController.sol:UpkeepController",
            "label": "_indexes",
            "offset": 0,
            "slot": "1",
            "type": "t_mapping(t_bytes32,t_uint256)"
          }
        ],
        "numberOfBytes": "64"
      },
      "t_struct(UintSet)4207_storage": {
        "encoding": "inplace",
        "label": "struct EnumerableSet.UintSet",
        "members": [
          {
            "astId": 4206,
            "contract": "contracts/automationController/UpkeepController.sol:UpkeepController",
            "label": "_inner",
            "offset": 0,
            "slot": "0",
            "type": "t_struct(Set)3735_storage"
          }
        ],
        "numberOfBytes": "64"
      },
      "t_uint256": {
        "encoding": "inplace",
        "label": "uint256",
        "numberOfBytes": "32"
      }
    }
  }
}